:10000000000001203D020000950200009702000060
:10001000990200009B0200009D0200000000000009
:100020000000000000000000000000009F0200002F
:10003000A102000000000000A3020000A5020000D1
:10004000A9020000AB0200004D150000B51500002C
:10005000B1020000B3020000B5020000B7020000C8
:10006000B9020000BB020000BD020000BF02000098
:10007000C1020000C3020000C5020000C702000068
:10008000C9020000CB020000CD020000CF02000038
:10009000D1020000D3020000D5020000D702000008
:1000A000D9020000DB020000DD020000DF020000D8
:1000B000E1020000E3020000A7020000A702000026
:1000C000E5020000E7020000E9020000EB02000088
:0C00D000ED020000EF020000F102000051
:1000DC00364937480A1A02D0072291438D463549D2
:1000EC0035480A1A06D00722914381F30988022267
:1000FC0082F3148831483249324A00F045F83248CC
:10010C003249334A00F040F832483349334A00F060
:10011C003BF833483349344A00F036F83348344915
:10012C00344A00F031F834483449354A00F02CF8A0
:10013C0034483549354A00F027F83548354900220E
:10014C0000F02DF834483549002200F028F83448E6
:10015C003449091A082903DB0022026004300160CB
:10016C00314A90471F482049884205D00268043024
:10017C0003B4904703BCF7E700208646EC4600200A
:10018C0000212A4A9047FEE7884207D0521A05D030
:10019C00037801300B700131013AF9D17047884274
:1001AC0002D002700130FAE7704700000000012015
:1001BC0000E000200000012000000120E82D0000DC
:1001CC001800002050000020F4020000F40200008F
:1001DC0086290000E82D00001800002018000020DF
:1001EC00E8290000E8290000E8290000E8290000BF
:1001FC00E8290000E8290000E8290000E8290000AF
:10020C00E82D0000202E000050000020500000209F
:10021C00500000203606002038060020380600204A
:10022C00380600203826002061020000552400000A
:10023C000F484FF00701884385460E4880470E480B
:10024C00016841F470010160BFF34F8FBFF36F8FF2
:10025C00FFF73EBF09480A490A4A884207D0521A9A
:10026C0005D0037801300B700131013AF9D1704798
:10027C00000001205925000088ED00E0D029000085
:10028C000000002018000020FEE7FEE7FEE7FEE776
:10029C00FEE7FEE7FEE7FEE7FEE7FEE7FEE7FEE72A
:1002AC00FEE7FEE7FEE7FEE7FEE7FEE7FEE7FEE71A
:1002BC00FEE7FEE7FEE7FEE7FEE7FEE7FEE7FEE70A
:1002CC00FEE7FEE7FEE7FEE7FEE7FEE7FEE7FEE7FA
:1002DC00FEE7FEE7FEE7FEE7FEE7FEE7FEE7FEE7EA
:0802EC00FEE7FEE7FEE700BF9C
:1002F400F0B595B01C46164608460D4600F0B0FF12
:100304001A9B0D93CDE9086400242346082205A90D
:1003140028460A948DF82C400C9400F0DDFF079BCE
:100324000293BDF81830ADF80C30BDF81A30ADF8B2
:100334000E309DF814308DF8114003F00302012AA9
:100344001DD1BDF81440059EC3F3C203C4F3831446
:100354008DF81030A20008230EA9284600F0BCFF37
:10036400C6F3952608AB0093224602AB0EA930468D
:1003740000F0CEFB284600F077FF15B0F0BD022A4E
:10038400F8D1BDF81640C3F3C203A4098DF81030A8
:100394000827082C264628BF08263B4632460EA9C5
:1003A400284600F099FFA41B08AB02AA31460EA808
:1003B400374400F011FC002CEBD1DBE7014B0122A8
:1003C4001A707047910000207047000070B50E4D00
:1003D40006460FCD88B06C460FC495E80F0084E83C
:1003E4000F0008A9002E4FF00603084A41F8203DEB
:1003F40008BF0022064801F069F808B100F042FC89
:10040400044B1E7008B070BDE8290000C103000051
:10041400180000205000002007B5044B0093044A44
:100424004023FFF765FF03B05DF804FB39040000C7
:100434005100002038B50D4B0D4D002018700D48AB
:1004440004782D5DD2B21C4665B1043001F050FF32
:1004540008B100F017FC084B1A7812B12378002B6E
:10046400FBD038BD0C3001F03DFDF1E791000020D8
:10047400A4050020180000205000002008B50848FA
:10048400084A0378D35C3BB1043001F0CDFE002070
:10049400BDE80840FFF79ABF0C3001F0BFFCF6E757
:1004A40018000020A40500200120FFF78FBF0000E2
:1004B40010B5054CFFF7F8FF0421204600F098FA28
:1004C4000123637210BD00BF2C000020037813F0D9
:1004D400030F03F0040202D012B910467047B2B100
:1004E40003F00303012B03D0022B09D00120704732
:1004F4000A6800880232C0F3831002440A60F5E7F8
:100504000B684288023303EB92130B60EEE70B682F
:100514004288013303EB92130288F4E72DE9F04F8C
:10052400484C87B00F460546861C0020019200F017
:10053400FFFB23683B60D4E90123134422680133A1
:100544009B1A04F21C4704F5836A04F21448B3426C
:1005540019D3019A0023002A6CD0012262F301030B
:1005640043F0040365F389132168A2680A40033247
:100574000E44002044F82230266000F0DBFB01200A
:1005840007B0BDE8F08F0121384600F0F5FB504676
:1005940000F008FC404600F005FC0DF11809606805
:1005A400D4F808B049F8100D00EA0B00033004EB4E
:1005B40080004946FFF78AFF029BB0B90BEA0302A9
:1005C40004EB8202D16803919A1C013303EA0B0BFA
:1005D40004EB8B0C01F00303012B0292DCF80CB04A
:1005E40020D0022B04D083460BE00BEA0300DDE7A6
:1005F400BDF80E309B0903334FEA1B4B02EB930308
:100604000293404600F0D1FB08B1029B6360594657
:10061400384600F0B1FBD4E90123134422680133C6
:100624009B1A94E7BDF80C30C3F383134FEA1B4BBA
:100634001344E5E7022262F3010343F0040365F384
:100644009F5391E76401002008B50E4B0E48FF222A
:100654009A600022C3F81824C3E90022C3F81424C2
:1006640083F8202400F0B5FD38B9084A084B09493D
:100674009B1ADB0802469A4200D108BD21F82220C9
:100684000132F8E764010020B8290000882900003D
:10069400B82900000000002030B50B4C79B10B4A9A
:1006A4000B49121BD20800239A4201D1002030BD0D
:1006B40001EB83056D88854202D00133F4E70346DC
:1006C40054F83300F3E700BF88290000B82900007C
:1006D40000000020094B013903EBC000032909D8AD
:1006E400DFE801F00A02040604207047007970472D
:1006F4004079704700207047022070478829000025
:10070400034BD3E90030C31A58425841704700BF25
:10071400640100202DE9F04385B0FFF7F1FF07469F
:10072400002840F0F2807A4DC5F81804BFF34F8FCB
:100734006868AC680DF1100848F8100D20400330CB
:1007440005EB80004146FFF7C1FE009B06460028EA
:100754005FD104EA0302991C013305EB82022340B2
:1007640005EB8303D268DB68029302F00303022BD8
:100774000192009162D1BDF8063066484FEA9318A1
:10078400B8F1500FC14628BF4FF0500969F38F13D9
:1007940009F10801ADF8063000F033FD07460028E2
:1007A40000F0A18000F05CFD334601A90822384620
:1007B40000F069FD009924EA01060136B600B1454E
:1007C40035D95FFA89F97EB3F6B2A9EB060921405F
:1007D40003315FFA89F4B1464F4E05EB81010823DA
:1007E4004A46384600F04FFD36B109F10803224667
:1007F4003146384600F047FD009B08F1030803EB3F
:1008040098030093D5F81834002B4AD1D5F8104436
:1008140058E02A689A4204D86A60384605B0BDE8B0
:10082400F08304EA03008AE73B493446D7E72140D2
:10083400033108234A4605EB8101DAE7012B52D143
:10084400BDF804303348C3F38311062928BF0621B9
:1008540061F3891302318900ADF8043000F0D1FC52
:10086400074600283FD000F0FBFC3346082201A9CC
:10087400384600F008FDBDF80420C2F38312B31C0F
:1008840096424FEA8303BDD200994A1C21400331AA
:10089400009205EB81010422384600F0F4FC013695
:1008A400E9E7384600F0E0FCFFF72AFF80F001009A
:1008B400C7B2B2E7637A23B1236839461B6820467E
:1008C40098476468002CF5D1384600F0CDFC2046EA
:1008D40000F02EFAD5F818340BB9009B6B60002099
:1008E40000F028FAE0E7D5F8104444B90B4B0C4962
:1008F4001888000440F0020000F06CF8D4E7236884
:1009040020469B6898476468EFE7002785E700BFA7
:1009140064010020B82900007001002010000020AC
:10092400142A00002DE9F74F284C80460F469246C2
:1009340001A9012218469B46D4F80890FFF7EEFD62
:1009440088B3019D0026A91C5E4506EB010234D143
:1009540000211F4800F0F0F980F310006A1C02EA3D
:10096400090204EB8202000405EA0903033340EAA6
:100974001840D06014F8232068F3C50204F823203B
:1009840034F8232066F3891224F8232054F8232012
:10099400012167F39F2244F8232061F301026FF3DE
:1009A400820204F8232094F820341BB1FFF7B2FE2E
:1009B4000028FBD103B0BDE8F08F09EA020204EB82
:1009C40082025AF82630D3600136BDE76401002064
:1009D4008005002000231A46FFF7A4BF13B502AC1C
:1009E400012344F8042D2246FFF79CFF02B010BDFA
:1009F4000F4A30B5D2F810440023214641B903729E
:100A0400D2F810444CB9C2F810044160184630BD05
:100A14000D7A9D4205D04968F0E7626842606060E3
:100A2400F4E701330A2BE8D14FF0FF33EEE700BFC0
:100A340064010020084A38B50123D2F8104482F832
:100A440020341D4604B938BD2368657220465B68AE
:100A540098476468F6E700BF64010020037A052B19
:100A640010B50C460FD0437A23B1084A08492046F2
:100A740000F0F5F90749204600F0F1F92046BDE8F9
:100A8400104000F0E1B9002AF8D0F3E76F2A000023
:100A9400742A0000942A0000C38873B504460D46E6
:100AA40033B1144A00921449144A284600F0D7F985
:100AB400217A05291CD0637A4BB1A088FFF70AFE7E
:100AC4000F4B104953F82020284600F0C8F9227A29
:100AD4000D4BA08853F822600021FFF7DDFD0B4980
:100AE40003463246284602B0BDE8704000F0B7B96C
:100AF40002B070BD6F2A00007F2A0000772A000030
:100B04003C2A0000742A0000A42A0000972A00004E
:100B14002DE9F04385B01F460C9D002306460C4684
:100B2400904695F80C902B7329463846FFF7B4FF8E
:100B3400B8F1060F09D8DFE808F00412181F2833AB
:100B440040003146284600F08AF9002229463846FA
:100B5400FFF784FF85F80C9005B0BDE8F0832268A8
:100B64003146284600F07BF9EFE7D4E9002331460B
:100B7400284600F074F9E8E7A36800933146D4E905
:100B84000023284600F06BF9DFE7E3680193A368CC
:100B940000933146D4E90023284600F060F9D4E7F5
:100BA40023690293E3680193A36800933146D4E96F
:100BB4000023284600F053F9C7E7636903932369C8
:100BC4000293E3680193A36800933146D4E90023B8
:100BD400284600F044F9B8E708292DE9F84F804683
:100BE4000E4617461C4636D8002593F80C901D7304
:100BF40019461046FFF750FFDFF87CA0DFF87CB001
:100C0400AE422AD918F805205946204600F027F9A3
:100C14000135082DF4D11649DFF864B0204600F000
:100C24001EF90025AE421DD918F805A0504601F062
:100C340017FE002814BF52462E225946204600F0C3
:100C44000EF90135082DEDD1012221463846FFF772
:100C540005FF84F80C90BDE8F88F5146204600F05B
:100C6400FEF8D5E70349204600F0F9F8E9E700BFAC
:100C74006A2A0000682A0000662A0000602A000030
:100C84006C2A00001FB50021039001AA44F2010060
:100C9400CDE9011100F004F805B05DF804FB000093
:100CA40010B572B6FFF7C6FEFFF734FD0028FBD17E
:100CB400104C11492088000440F00100FFF78AFE1F
:100CC4000E4B1B68DB0700D500BE20880C490004CE
:100CD40040F00200FFF77EFEBFF34F8F09490A4B35
:100CE400CA6802F4E0621343CB60BFF34F8F00BFC6
:100CF400FDE700BF10000020032B0000F0ED00E032
:100D04000F2B000000ED00E00400FA0572B6024A61
:100D1400136801331360704788050020034A136881
:100D2400013B136003B962B6704700BF8805002019
:100D3400FFF7ECBFFFF7F2BF50E8002F0B4640E887
:100D4400003C9CF0000FF7D11046704750E8003F7C
:100D540043EA010240E8002C9CF0000FF6D1104653
:100D6400704750E8002F02EA010340E8003C9CF081
:100D7400000FF6D11046704750E8003F03EB010224
:100D840040E8002C9CF0000FF6D11046704750E864
:100D9400003FA3EB010240E8002C9CF0000FF6D1C9
:100DA400104670470121FFF7D1BF0021FFF7D9BFDB
:100DB40010B590B1D0E9012301689B1ADBB20A6037
:100DC400013BDBB2FF2B026802D10020107110BD81
:100DD40011684C1C14600B70F2E70E20F7E738B56D
:100DE40004460020FFF7A4FF226863681168994253
:100DF40013D9481E106011F8015CE368A18A01FB55
:100E04000535A36811791B1ADBB2994200D213711C
:100E14000020FFF78FFF284638BD0025F8E738B5D6
:100E2400054600200C46FFF783FF2A681368591C07
:100E34001160E968641AA98AB4FBF1F41C700020FB
:100E4400BDE83840FFF776BF826810B504462AB182
:100E540043690168006998470023A36010BD0EB47C
:100E640003B5039929B102AA04AB42F8043D00F08A
:100E74006BF802B05DF804EB03B07047826830B4DD
:100E84000468551C8560A154D0E901329A4202D30A
:100E940030BCFFF7D9BF30BC704700002DE9F84FD4
:100EA4009946DDE90A431746824688460A460126E2
:100EB400BA420FD24E4538BF4E4613F0010B01D152
:100EC40064B900240125B9F1010F1AD909F1FF39D8
:100ED4007D43F8E7B2FBF7F20136E9E79B070ED54D
:100EE400B9F1000F0CBF30252025A642EAD2013CFF
:100EF40029465046FFF7C2FF002CF6D1E1E7202532
:100F0400F3E7B8FBF5F39F42E2D9DFF83890B8FB7A
:100F1400F5F3504619F8031005FB1388FFF7AEFFED
:100F2400B5FBF7F5002DF2D1BBF1000F02D00CB1E7
:100F3400A64201D3BDE8F88F20215046013CFFF7BB
:100F44009DFFF4E71C2B00002DE9F74F0546904662
:100F54000E46002900F03A8116F8011B002958D0EA
:100F6400252940F0D180002702E047F0010716460A
:100F7400324612F8013B2D2BF7D0302B04D02B2B0B
:100F840005D147F00407F2E747F00207EFE7002432
:100F94002A2B06F101021BD1D8F80030191D1B6859
:100FA400C8F800101C44164633782E2B1CD1013689
:100FB4004FF0000A314611F8012BA2F13000092844
:100FC40014D80A2303FB0A23A3F1300A0E46F1E7DF
:100FD40012F8013CA3F130010929E5D80A2101FBEB
:100FE4000434303C1646D3E74FF0000A324612F878
:100FF400011B01F0FB0068281646F8D0692916D0B9
:1010040054D8582970D00ED825297DD03378002B98
:10101400A2D12B7B002B00F0D980284603B0BDE879
:10102400F04FFFF711BF632968D06429EED1D8F8D7
:101034000020D2F80090111D89EAE972C8F8001066
:10104400A2EBE9724FF0010B092A61DCD34538BFEA
:10105400D3462CB1B9F1000F01DB790700D5013C6F
:10106400BA0702D5BAF1000F04D0FB0702D4002C52
:1010740054D10024B9F1000F58DAC9F100092D2127
:101084002846FFF7FBFE07F00302022A05D1BAF156
:10109400000F02D1002C4DD10024CDE90047534666
:1010A4000A2249462846FFF7F9FEAFE7732954D0D0
:1010B40016D87029AAD1D8F800301A1DC8F8002013
:1010C400302128461C68FFF7D9FE78212846FFF70F
:1010D400D5FE00220823CDE9003221461022E1E7A3
:1010E40075292FD0782991D1D8F800100A1DC8F895
:1010F4000020CDE90047534610222CE0D8F80030F8
:101104001A1D1978C8F800202846FFF7B7FE7DE7B6
:101114000A230BF1010B92FBF3F295E7A345A9D245
:1011240020212846013CFFF7A9FEA0E77807AAD5AD
:101134002B21A5E7A345B0D230212846013CFFF777
:101144009DFEA7E7D8F80010CDE900470A1DC8F8AE
:10115400002053460A220968A4E7D8F800301A1D73
:10116400C8F80020F907D3F8009012D54F46A7EB32
:10117400090B17F8011B41B9A345BFF447AF202160
:101184002846013CFFF77AFEF6E72846FFF776FE8D
:10119400EDE7B9F1000F17D0484601F0C2FB07464E
:1011A400BC4200D954B909F1FF3919F8011F0029CB
:1011B4003FF42CAF2846FFF761FEF6E720212846CE
:1011C400013CFFF75BFEEBE74F46E9E703B0BDE800
:1011D400F08FFFF7EDBDF8B546790146721E05465E
:1011E400002393422D6803D30024A64202D8F8BDFD
:1011F4000133F6E70F682846FFF711FE013439463C
:10120400F3E72DE9F843868ACD1C0746FFF7E7FD8F
:10121400043E35440446B5FBF6F5F0B14FF4807353
:10122400EDB28380C680013D076081464FF000081F
:10123400A84512D23846FFF7D2FD064648B1637975
:101244000133637108F10108C9F8000007608146A1
:10125400EEE72046FFF7BFFF34462046BDE8F8839B
:1012640001210430FFF788BD10B501210446043084
:10127400FFF78DFD10F0FF0F04D12046BDE81040AC
:10128400FFF7A9BF10BD2DE9F843C7880546181D0F
:101294008846B0FBF7F4164607FB14003CB9A7EBED
:1012A4000009B14528BFB14626B9BDE8F8832D68C9
:1012B400013CF3E70430A6EB09064A4608EB0401B7
:1012C400284401F0D2FAB7424C442D68B9464FF095
:1012D400000028BFB146E7E72DE9F843C7888846F0
:1012E400191D0546B1FBF7F4164607FB14113CB96A
:1012F400A7EB0109B14528BFB14626B9BDE8F8837B
:101304002D68013CF3E704312944A6EB09064A465B
:1013140008EB040001F0A9FAB7424C442D68B94621
:101324004FF0000128BFB146E7E700001FB503787E
:101334008DF8003003798DF8043043798DF8053049
:1013440083688DF80630C3688DF80730036902930B
:1013540043690393054A064B684653F8213052F813
:101364002110984705B05DF804FB00BF8C050020F0
:1013740094050020024B4FF4807043F0010318479A
:10138400302B00002DE9F04791460778324A42F8A5
:101394002790324A42F827304B7B80460C4663B391
:1013A4000868496882008B0002F1A04203F1A0435F
:1013B40040F20C65C2F800570126C3F800574FF0FD
:1013C400A04506FA00F006FA01F1C5F80805C5F8CB
:1013D400081540F20D61C2F80017C3F80017FFF7B3
:1013E400C9FF4FF0000AD5F81025636822FA03F309
:1013F400DB070FD5BAF1000F1FD1B9F1000F3B463F
:10140400174A214608F1040008BF0022BDE8F0474E
:1014140000F070B9236806FA03F3C5F80C35FFF73A
:10142400A9FF236806FA03F3C5F808350AF1010A8F
:10143400FFF7A0FFBAF1090FD5D1636801254FF07A
:10144400A04605FA03F3C6F80C35FFF793FF63686B
:101454009D40C6F80855D0E7940500208C0500206F
:10146400311300001FB503788DF8003043680193F1
:10147400037A8DF80830C3680393054A054B684620
:1014840053F8213052F82110984705B05DF804FB59
:101494009C050020A00500201FB503788DF80030BE
:1014A4004368019383688DF80830C3680393054A41
:1014B400054B684653F8213052F82110984705B07F
:1014C4005DF804FB9C050020A0050020F0B5194B35
:1014D400067891F81DE043F82620174B94460A69D4
:1014E40043F82620154B03F806E00C4607460FCCBC
:1014F40089B06D460FC594E80F0085E80F00049687
:10150400BEF1000F0AD0BCF1000F0D4A694608BFB6
:101514000022381D00F0C0FD09B0F0BDBCF1000F81
:10152400084A694608BF002207F10C0000F0B6FB28
:10153400F2E700BFA00500209C050020A4050020C0
:10154400691400009D140000014B1B68184700BF7C
:10155400A805002038B50A4B98420D460CD100204E
:10156400FFF7E6FB074B1C7914B901221D601A71C1
:101574000020FFF7DFFB0CB9002038BD1120FCE789
:1015840000200040A8050020034B984201BF034BF4
:1015940000221A601A71704700200040A80500203C
:1015A4000023435082B043580193019B02B070471B
:1015B400F0B54C4A4C4CD2F8243187B01546A3B14F
:1015C4004FF492711046FFF7EBFFD2F8043163B980
:1015D400A368C2F808330223A360A368C2F80433E3
:1015E40001231362536107B0F0BDD5F80431002B19
:1015F40049D03E4F3B484FF48271FFF7D1FF0FCFE4
:1016040001AE0FC63B68336094F82E307BB1237B68
:10161400012B0CBFD5F83C25D5F84C250292022BA2
:10162400304B0CBFD3F83C35D3F84C3503934FF40F
:10163400B0712C48FFF7B4FF4FF4AE712948FFF79F
:10164400AFFF94F8303013B194F82E303BB1254BF2
:101654000022C3F80022A260254AC3F80823214AC5
:10166400D2F8C434C2F8C4349A0736D501238DF8AD
:10167400003094F830300BB984F82F30D4E90031BD
:1016840068469847AFE74FF4A4711648FFF788FF00
:10169400237B83B9154F0FCF01AE0FC63B68336070
:1016A40094F83030002BDAD1C5F80032A360104B27
:1016B400C5F80833D3E74FF40073C5F8003240F29D
:1016C4000223A36003F1CE73C5F80833A368C5F8F9
:1016D40004330123AB602B6285E713F0040318BFC6
:1016E4000223C4E700300040B0050020BC05002000
:1016F40002029C012DE9F84F0579364C4FF034086D
:1017040008FB05F804EB08079B4697F82D30814643
:101714000E469246002B59D12F490068FFF71AFF55
:10172400002855D13168737B87F8323001F5E072B7
:101734004FF0A043B860C7F804B087F82F0087F8CB
:10174400300040F20C6744F808A043F82270726835
:1017540002F5E07C43F82C70D9F80030C3F8081582
:10176400C3F80C25B268C3F82425BAF1000F25D0BC
:101774001A0B53B2317B002BA8BF03F16046D2B2DF
:101784004FEA5313B8BF02F00F074FEA4111B4BF39
:10179400124E06F561464FEA8303C9B203F1604372
:1017A400B4BFF15586F8001303F5614302F01F023C
:1017B400012101FA02F2C3F880211A60342303FBE9
:1017C4000544012384F82D30BDE8F88F0820FBE799
:1017D4001120F9E7B0050020B515000014ED00E074
:1017E400026803790621C2F80015044A342101FB7A
:1017F4000323022283F82D20704700BFB005002088
:101804002DE9F843CB6803F06043B3F1005F0D4664
:10181400904603D010221046BDE8F8830779944E11
:101824000468944BC4F808334FF0340C0CFB076C79
:101834009CF82F302BB1DCF80830C4F804331122A3
:10184400E9E712F0140F0CBF012300238CF82F30AA
:101854008946B9E80F000CF10C0EAEE80F00D9F878
:101864000030CEF80030C8F300138CF830306B78B9
:10187400C4F888354FF482712046FFF791FE4FF487
:101884009271FFF78DFE18F0010318BF0123C4F80D
:10189400503518F0020318BF0123C4F840352B78E3
:1018A400032B00F2C380DFE803F083AB67022B69EC
:1018B40003F06043B3F1005FACD14FF48073EA6886
:1018C400C4F800326B68C4F844254FF4A871C4F816
:1018D4004835FFF765FE4FF4B071FFF761FE4FF432
:1018E400A471FFF75DFE01232362A360D4F8503195
:1018F400002BFBD04FF4A8712046FFF751FEAB68D4
:101904002A69C4F84425C4F848355B4A342303FBE8
:1019140007639A604FF482730821002218F0080FBD
:1019240004D1287803281CBF012060503421794356
:101934007018715800297ED10125234419680029A3
:1019440000F086803421D4F8C434C4F8C43401FBD4
:101954000766002186F82F10002B3FF45CAF13F0CC
:10196400020F48F2012208BF032213F0040F48F2C9
:10197400022318BF1A464EE76B68EA68C4F8442588
:10198400C4F848352B6903F06042B2F1005F7FF47C
:1019940041AFAA68C4F834354FF48453C4F83825E9
:1019A400C4F80032342303FB076340F20222B0E799
:1019B4006B68EA68C4F8442518F0200FC4F8483569
:1019C4004FF0340310D003FB07634FF48072C4F864
:1019D4000022294A9A604FF4A471FFF7E1FD4FF405
:1019E400A4730122226297E74FF4007203FB07639A
:1019F400C4F8002240F202229A604FF48273F0E7A6
:101A04006B68EA68C4F83425C4F838354FF4805359
:101A1400C4F80032342303FB076340F202229A60C5
:101A24000123236200214FF4827376E74FF482731B
:101A34000821072272E718F0040F1CBF4FF400734B
:101A44008360342303FB0766B368C4F80433E2E617
:101A5400D4F8241100293FF471AF4FF49271204659
:101A6400FFF79EFD25624FF48273656165E700BF51
:101A7400B005002002029C0100020400F0B587B00A
:101A840004460F4615460021142201A81E4600F004
:101A940015FF9DF830308DF80570002B14BF2022FF
:101AA400002201A9204602960495FFF7A9FE07B07B
:101AB400F0BDF0B587B004460F461546002112224A
:101AC4000DF106001E4600F0F9FE0123002201A9D3
:101AD40020468DF804308DF8057002960495FFF7C2
:101AE4008FFE07B0F0BD0023435082B043580193EA
:101AF400019B02B070470A4610B54FF48E71FFF790
:101B0400F2FF136A9168C95C136A01331362C0F867
:101B14001C1510BD8B690A4610B54FF4847123B9A6
:101B2400FFF7E1FFD0F8183510BDFFF7DCFF536A6B
:101B3400D168D0F81805C854536A01335362F3E7E7
:101B44001FB501238DF80030044BCDE90110D3E912
:101B540000126846904705B05DF804FBE4050020D8
:101B640030B54C4AD2F8043313F4007F85B01546DF
:101B74004FD0D2F82431002B4BD04FF49271104641
:101B8400FFF7B1FF4FF40173C2F80833424B93F8E7
:101B9400291009B9012151603E4902228DF8002023
:101BA400D1F88024C1F8802403929A690292DA68F9
:101BB40001920022C3E906226846D3E90012904745
:101BC4003448D0F81C315BB133490A6A4B699A42F4
:101BD4000A464BD291F82830002B47D1FFF78BFFF0
:101BE4002C4AD2F8443193B14FF4A2711046FFF756
:101BF4007AFF294B93F8291009B1012111609A69E0
:101C04002AB100229A61586AD968FFF799FF05B092
:101C140030BDD5F804335B07D2D5D5F80831002B95
:101C2400CED01D4C1B482146FFF774FF636AA2699E
:101C34009A422346C4D1E269E1684AB12369E36068
:101C44000023606AA261E3616362FFF779FFB7E78B
:101C540094F829200AB901226A600E4A4FF40170EF
:101C6400C2F8080300229A61586AEEE74FF48E71B5
:101C74000848FFF738FF51690029B1D000230291C9
:101C840091688DF80030019153616846D2E90013E0
:101C94009847A5E700200040E40500202DE9F8431B
:101CA4005A4B047991462C2202FB0432064692F8E0
:101CB4002A200D469846002A40F0A3805449006823
:101CC400FFF748FC0746002840F09D8029683368E8
:101CD400481C0BD04FF0A04001228A40C0F80825D0
:101CE40001F5E0724FF0030C40F822C06868421C12
:101CF4001FBF00F5E0724FF0A04C4FF0000E4CF8FF
:101D040022E0AA6995F814C0C3F824256A7DBCF1C1
:101D1400010F4CEA0202C3F86C25C3F81405C3F89A
:101D24000C151DD1AA68511C1FBF02F5E0714FF0BC
:101D3400A0404FF0000C40F821C0E968481C0BD0CB
:101D44004FF0A04C01208840CCF8080501F5E07064
:101D54004FF0030E4CF820E0C3F80815C3F8102523
:101D64002C23634308EB0302C2F804902A6948F861
:101D74000320B9F1000F31D04FF48E7130682D7FFC
:101D8400FFF7B1FE30684FF4A271FFF7ACFE326882
:101D9400204BC2F80433120B53B2002BA8BF03F13B
:101DA40060404FEA53134FEA4511BABF1A4802F094
:101DB4000F0500F561404FEA8303C9B203F16043A4
:101DC400B4BF415580F8001303F5614302F01F02CC
:101DD400012101FA02F2C3F880211A603368042257
:101DE400C3F800252C2303FB04830022C3E9062245
:101DF40083F829205A61012283F82A203846BDE855
:101E0400F8830827FAE71127F8E700BFE405002064
:101E1400651B00008000020014ED00E0F8B50479B1
:101E240000682D4D0023C0F800352C2303FB045318
:101E34005B6873B1294BC0F80833020B53B201211C
:101E44005B0902F01F0201FA02F22033244941F82F
:101E54002320D0F80C65D0F81415D0F80835D0F844
:101E640010254FF0FF37BE42C0F8147518BF06F5B1
:101E7400E076C0F80C75C0F80875C0F810751EBF80
:101E84004FF0A0474FF0020C47F826C04E1C1FBF6E
:101E94004FF0A04601F5E071022746F82170511C6D
:101EA4001FBF4FF0A04102F5E072022641F8226004
:101EB4005A1C1FBF03F5E0734FF0A042022142F801
:101EC4002310FFF761FB2C2303FB0454002384F845
:101ED4002A306360F8BD00BFE405002084020200DC
:101EE40000E100E02DE9F843224F06794FF02C0978
:101EF40009FB067480466569002D37D16261A160D3
:101F040025624FF48E71006884F82850FFF7EBFDCA
:101F1400D8F80000012383602146FFF7ECFD6368D5
:101F2400A1462BBBD8F80050226A63699A4212D3A7
:101F3400D8F80030D3F81C21002AFBD00122DA6043
:101F440000202C2303FB067600237361BDE8F8838D
:101F540094F8283043B9D5F81C31002BF8D0494601
:101F64002846FFF7C8FDDFE70F20EAE71120EDE779
:101F74002846EBE7E40500200023435082B0435891
:101F84000193019B02B070471FB501238DF8003007
:101F9400054B8DF8080001916846D3E9001290477B
:101FA40005B05DF804FB00BF100600207FB5384A79
:101FB400D2F82461002E49D010464FF49271FFF7F5
:101FC400DBFF02238DF80030D2F88034C2F880346D
:101FD4000393D2F83C358DF808302E4BDA68019221
:101FE4000022C3E906226846D3E900129047284A32
:101FF400D2F8443173B14FF4A2711046FFF7BCFF1D
:10200400244B996931B100219961D2F83C05D96812
:10201400FFF7BAFF1E4AD2F82031ABB14FF49071EA
:102024001046FFF7A9FF1B4B596969B1D2F84C154B
:102034008DF80810002299688DF8002001915A61EA
:102044006846D3E90012904704B070BDD2F810314D
:10205400002BCCD04FF488711046FFF78DFF0D4B49
:10206400D2F83C0599698842C1D1DC69D96864B168
:10207400D2F8005225F02005C2F800521A699C617A
:10208400DA60DE61FFF780FFB1E79C61FAE700BF29
:1020940000200040100600202DE9F8435E4B06792D
:1020A4009146242202FB0632044692F820200D4673
:1020B4009846002A40F0AB8058490068FFF74AFA76
:1020C4000746002840F0A58029682368481C0BD0E7
:1020D4004FF0A04001228A40C0F8082501F5E072C3
:1020E4004FF0030C40F822C06868421C1FBF00F583
:1020F400E0724FF0A04C4FF0000E4CF822E0AA69B9
:1021040095F814C0C3F824256A7DBCF1010F4CEA8C
:102114000202C3F86C25C3F80C15C3F814051DD1CD
:10212400AA68511C1FBF02F5E0714FF0A0404FF0A8
:10213400000C40F821C0E968481C0BD04FF0A04CBB
:1021440001208840CCF8080501F5E0704FF0030E3B
:102154004CF820E0C3F80815C3F810252423734372
:1021640008EB0302C2F804902A6948F80320B9F185
:10217400000F3BD04FF4887120682D7FFFF7FCFEE1
:102184004FF490712068FFF7F7FE4FF492712068C6
:10219400FFF7F2FE20684FF4A271FFF7EDFE22680C
:1021A4001F4BC2F80433120B53B2002BA8BF03F128
:1021B40060404FEA53134FEA4511BABF194802F081
:1021C4000F0500F561404FEA8303C9B203F1604390
:1021D400B4BF415580F8001303F5614302F01F02B8
:1021E400012101FA02F2C3F880211A60236808224F
:1021F400C3F80025242303FB06830022C3E9062237
:102204005A61012283F820203846BDE8F883082764
:10221400FAE71127F8E700BF10060020B11F0000FD
:102224001003020014ED00E0F8B5047900682D4DA8
:102234000023C0F80035242303FB04535B6873B107
:10224400294BC0F80833020B53B201215B0902F099
:102254001F0201FA02F22033244941F82320D0F866
:102264000C65D0F81415D0F80835D0F810254FF0C7
:10227400FF37BE42C0F80C7518BF06F5E076C0F80B
:102284001475C0F80875C0F810751EBF4FF0A0474C
:102294004FF0020C47F826C04E1C1FBF4FF0A0465B
:1022A40001F5E071022746F82170511C1FBF4FF061
:1022B400A04102F5E072022641F822605A1C1FBFB9
:1022C40003F5E0734FF0A042022142F82310FFF718
:1022D4005BF9242303FB0454002384F82030636057
:1022E400F8BD00BF100600201003020000E100E06A
:1022F40001F06043B3F1005F2DE9F041074632D1AC
:102304001C4B0679242505FB063598466C6964BB8D
:102314006A61A96000684FF49071FFF72DFE4FF4D5
:10232400AC713868FFF728FE3B686A69A968C3F88E
:102334004415C3F8482501229A606A68BAB9D3F8EB
:102344002011D3F8582149B9002AF8D00F202423AA
:1023540003FB068600237361BDE8F081002A14BFE5
:102364000F200020F3E71020F6E71120F4E72046C1
:10237400F2E700BF1006002008B503787BB90379A3
:10238400012B09D1064B07491888074B00041A781A
:1023940040F00300FEF722FB044B01221A7008BD33
:1023A40010000020862B0000340600203506002093
:1023B40030B585B004AC012324F8043D0023009318
:1023C4002246022348210F48FFF758FB08B1FEF7C5
:1023D40059FC0D4A15461378002BFCD000231370CA
:1023E4008DF80C3000932246012348210548FFF75D
:1023F40045FB08B1FEF746FC2B78002BFCD005B05A
:1024040030BD00BF5C2B0000350600201FB51B212A
:102414001A22CDE900124FF0CC720023029202225C
:10242400039369468DF80C200648074AFEF7AAFF75
:1024340008B1FEF727FC0548FFF7D2F905B05DF8AF
:1024440004FB00BF582B00007D2300005C2B000020
:10245400F8B54FF400410020FEF7F6F808B1FEF796
:1024640011FCFEF725F8184B18491888000440F0B1
:102474000300FEF7AFFAFEF74DF90028FBD1FFF792
:10248400C5FF134C134E144FFFF792FF44F00104A1
:102494004FF4FA754FF47A40A047013DFAD120BFBA
:1024A4003378002BFBD0002333703A4601234821B4
:1024B4000A48FFF7FEFA08B1FEF7E4FBFEF72AF933
:1024C4000028FBD1E4E700BF10000020682B0000C7
:1024D400502B000035060020340600205C2B000041
:1024E4000C4B1B78062B10D10B4B1B681A070CD115
:1024F4000A4B186800F0F003302B08D000F0E0001D
:10250400A0F1400358425841704700207047012011
:10251400704700BFE00F00F0E40F00F0E80F00F098
:10252400094B1B78062B0CD1084B1B681A0708D1E2
:10253400074B186800F0F000A0F1300358425841EE
:1025440070470020704700BFE00F00F0E40F00F078
:10255400E80F00F008B5FFF7C3FF28B17D4B7E4AB2
:102564001B68C3F304231360FFF7DAFF10B17B4B3E
:102574007B4A1A60FFF7B4FF28B17A4B7A4A1B688A
:10258400C3F342331360FFF7CBFF20B1774AD3681C
:1025940023F08073D360FFF7A3FF40B14FF0804373
:1025A4000022C3F80C21C3F81021C3F83825FFF723
:1025B400B7FF10B16E4B03221A60FFF7B1FF40B1B1
:1025C4006C4B05221A6001229A6700229A603F220E
:1025D4005A60694B1B78062B50D1684B1B6819074E
:1025E4004CD1674B1B6803F0F003502B46D14FF0DE
:1025F4008052644BD2F80414C3F82015D2F808149E
:10260400C3F82415D2F80C14C3F82815D2F8101402
:10261400C3F82C15D2F81414C3F83015D2F81814D2
:10262400C3F83415D2F81C14C3F84015D2F820149A
:10263400C3F84415D2F82414C3F84815D2F8281462
:10264400C3F84C15D2F82C14C3F85015D2F8301432
:10265400C3F85415D2F83414C3F86015D2F83814FA
:10266400C3F86415D2F83C14C3F86815D2F84014C2
:10267400C3F86C15D2F84424C3F87025FFF730FF73
:1026840028B1414B414A1B6803F04F031360FFF725
:1026940027FF48B14FF08043D3F80024D20744BF4A
:1026A4006FF00102C3F80024394B1B68062B08D1D4
:1026B400384B1B68062B01BF374A136843F4806309
:1026C4001360364AD2F8883043F47003C2F8883075
:1026D400BFF34F8FBFF36F8F4FF01023D3F8002257
:1026E400002A03DBD3F80432002B2FDA2C4B01220F
:1026F400C3F80425D3F80024002AFBD04FF010229D
:102704001521C2F80012D3F80024002AFBD04FF0A0
:1027140010231522C3F80422214B1A46D3F80014BF
:102724000029FBD00021C3F80415D2F80034002B93
:10273400FBD0BFF34F8F19491A4BCA6802F4E06209
:102744001343CB60BFF34F8F00BFFDE7164B174A0F
:102754001A6008BD240300104035014074C00740CE
:102764000DF0ADBA440200103C050040F0ED00E06D
:10277400A005004010560040E00F00F0E40F00F008
:10278400E80F00F000C0004058020010E40E0040C2
:1027940030010010340100103C17004000ED00E04F
:1027A40000E001400400FA05380000200090D00346
:1027B4007F2805D8034B185C034B5B5C18407047BB
:1027C40000207047A82B0000282C0000A0F1610312
:1027D400192B98BF20387047A0F14103192B98BFDB
:1027E400203070477F2805D8034B185C034B5B5C93
:1027F4001840704700207047A82B0000282C0000C8
:10280400A0F16103192B98BF20387047A0F1410350
:10281400192B98BF203070477F299ABF017001207F
:102824006FF02E0070475AB10A787F2A0AD800B197
:102834000260002119605960501A18BF01207047C6
:10284400002070476FF02E007047000008B5034B5E
:102854005B689B681B68984708BD00BF3C0000206C
:1028640008B50921FFF7F2FF08BD844640EA0103D9
:1028740013F0030F18D18446202A0BD32DE9F00757
:10288400B1E8F807A0E8F807A2F12002202AF7D25D
:10289400BDE8F007042A07D351F8043B40F8043B91
:1028A400A2F10402042AF7D2002A05D011F8013B50
:1028B40000F8013B013AF9D1604670478446002A8A
:1028C4002DD010F0030F04D000F8011B013A26D0DC
:1028D400F7E7C9B241EA012141EA0141202A12D3B2
:1028E400A2F120022DE9F0030B460C460D460E46DC
:1028F4000F4688468946A0E8FA03203AFBD2BDE891
:10290400F00320320BD0042A05D340F8041B043A08
:1029140005D0042AF9D200F8011B013AFBD1604624
:10292400704700F1010110F0030F11D010F8012BD2
:10293400002A23D010F0030F0AD010F8012B002A2C
:102944001CD010F0030F03D010F8012B002A15D06F
:102954002DE970004FF001324FF0803350F8044BF2
:10296400A4EB020525EA04051D4000D1F6E7A0F119
:10297400040070BC10F8012B002AFBD1A0EB01006D
:0229840070479A
:10298800362B0000000000003A2B00000000000079
:102998003F2B000000000000442B00000000000056
:1029A800252A000000000303292A00000000000374
:1029B800940000205C010020640100209C0000209D
:0829C8001400002018000000BB
:1029D00000000000000000000000000000000000F7
:0829E0000000000000000000EF
:1029E800FFFFFFFFFFFFFFFFFFFFFFFFFFFFFFFFEF
:1029F80000000000000000000000D60107010000F0
:102A08001D04000081040000CD0300004261636BD7
:102A1800656E647320666C757368656400617070B8
:102A28000062616C6C6F632E6C6F675F6D656D70B3
:102A38006F6F6C006F2A0000B82A0000772A000028
:102A4800C02A0000C82A0000D02A0000D82A0000A6
:102A5800E02A0000E82A00002025303278002020F3
:102A680020007C002563001B5B306D002573001B74
:102A78005B313B33316D0025734C6F677320647293
:102A88006F70706564202825642925730D0A003C41
:102A980025733E2025733A20000000000000000046
:102AA800092B0000F02A0000F82A0000FD2A000087
:102AB8001B5B313B33306D001B5B313B33326D00A8
:102AC8001B5B313B33336D001B5B313B33346D0093
:102AD8001B5B313B33356D001B5B313B33366D007F
:102AE8001B5B313B33376D007761726E696E67002F
:102AF800696E666F00646562756700466174616C33
:102B0800206572726F720053797374656D207265F7
:102B180073657400303132333435363738394142D1
:102B280043444546000000000338FDD87047505222
:102B380053005457494D0055415254005541525481
:102B480045000000000000000338FDD87047000071
:102B580000000000003000400000000001000000FC
:102B68000D0A5457492073656E736F72206578613A
:102B78006D706C6520737461727465642E005465A1
:102B88006D70657261747572653A202564204365BD
:102B98006C7369757320646567726565732E0000D0
:102BA80020202020202020202068282828282020B5
:102BB800202020202020202020202020202020200D
:102BC80048101010101010101010101010101010C5
:102BD8008484848484848484848410101010101065
:102BE80010818181818181010101010101010101BE
:102BF8000101010101010101010101101010101072
:102C0800108282828282820202020202020202028E
:102C18000202020202020202020202101010102036
:102C28000007032004170201085710408000000025
:102C3800DC2D0000A02C0000B42D000053756E00A0
:102C48004D6F6E00547565005765640054687500D3
:102C58004672690053617400000000004A616E000A
:102C6800466562004D617200417072004D617900E5
:102C78004A756E004A756C004175670053657000AF
:102C88004F6374004E6F76004465630000000000D7
:102C9800414D00504D000000D82D0000D42D0000FB
:102CA800D42D0000D42D0000D42D0000D42D000018
:102CB800D42D0000D42D0000D42D0000D42D000008
:102CC800FFFFFFFFFFFFFFFFFFFFFFFFFFFF00000A
:102CD800142D0000442C0000502D0000642C00002E
:102CE800982C0000F82C0000A82D0000042D0000EE
:102CF800256D2F25642F25790000000025612025EA
:102D080062202565202554202559000053756E64DE
:102D18006179004D6F6E6461790054756573646103
:102D280079005765646E65736461790054687572DB
:102D380073646179004672696461790053617475DE
:102D480072646179000000004A616E7561727900F1
:102D58004665627275617279004D617263680041FF
:102D68007072696C004D6179004A756E65004A752C
:102D78006C79004175677573740053657074656D7F
:102D8800626572004F63746F626572004E6F76659C
:102D98006D62657200446563656D6265720000006E
:102DA80025483A254D3A255300000000B527000074
:102DB800D1270000DD270000E927000005280000D2
:102DC800112800001D2800002B280000000000002A
:102DD8002E00000043000000504F534958000000E7
:102DE800000000000020004000000000002000401B
:102DF80000000000082A0000000000000000000099
:102E08000090D003382C0000382C0000382C00002B
:082E1800382C0000382C0000EA
:040000030000023DBA
:00000001FF
