:100000000000012079030000610300006303000089
:1000100065030000670300006903000000000000A2
:100020000000000000000000000000006B03000062
:100030006D030000000000006F030000710300006A
:100040007303000073030000DD140000511600006C
:1000500061160000730300007303000073030000C7
:1000600073030000730300007303000073030000B8
:1000700073030000730300007303000073030000A8
:100080007303000073030000730300007303000098
:100090007303000073030000730300007303000088
:1000A0007303000073030000730300007303000078
:1000B0007303000073030000000000000000000054
:1000C0007303000073030000730300007303000058
:1000D00073030000730300007303000000000000BE
:1000E0000000000000000000000000000000000010
:1000F0000000000000000000000000000000000000
:1001000000000000000000000000000000000000EF
:1001100000000000000000000000000000000000DF
:1001200000000000000000000000000000000000CF
:1001300000000000000000000000000000000000BF
:1001400000000000000000000000000000000000AF
:10015000000000000000000000000000000000009F
:10016000000000000000000000000000000000008F
:10017000000000000000000000000000000000007F
:10018000000000000000000000000000000000006F
:10019000000000000000000000000000000000005F
:1001A000000000000000000000000000000000004F
:1001B000000000000000000000000000000000003F
:1001C000000000000000000000000000000000002F
:1001D000000000000000000000000000000000001F
:1001E000000000000000000000000000000000000F
:1001F00000000000000000000000000000000000FF
:10020000364937480A1A02D0072291438D463549AC
:1002100035480A1A06D00722914381F30988022241
:1002200082F3148831483249324A00F045F83248A6
:100230003249334A00F040F832483349334A00F03B
:100240003BF833483349344A00F036F833483449F0
:10025000344A00F031F834483449354A00F02CF87B
:1002600034483549354A00F027F8354835490022E9
:1002700000F02DF834483549002200F028F83448C1
:100280003449091A082903DB0022026004300160A6
:10029000314A90471F482049884205D002680430FF
:1002A00003B4904703BCF7E700208646EC460020E5
:1002B00000212A4A9047FEE7884207D0521A05D00B
:1002C000037801300B700131013AF9D1704788424F
:1002D00002D002700130FAE77047000000000120F0
:1002E00000E000200000012000000120C0250000E7
:1002F0000000002020000020D8030000D8030000E8
:1003000066210000C0250000000000200000002041
:10031000A4210000A4210000A4210000A4210000C9
:10032000A4210000A4210000A4210000A4210000B9
:10033000C0250000E0250000200000202000002053
:1003400020000020FC080020FC080020FC08002001
:10035000FC080020FC280020A1030000711A000006
:10036000FEE7FEE7FEE7FEE7FEE7FEE7FEE7FEE765
:10037000FEE7FEE7704700BF1048804710484FF087
:100380000701884385460F4880470F48016841F4BC
:1003900070010160BFF34F8FBFF36F8FFFF730BF66
:1003A0000A480B490B4A884207D0521A05D00378F5
:1003B00001300B700131013AF9D17047750300002B
:1003C00000000120F51C000088ED00E0A4210000E1
:0803D0000000002000000020E5
:1003D8007047000007B5044B0093044A402300F01F
:1003E80032F803B05DF804FBF90300002100002097
:1003F8002DE9F84389461446B2B10F4B0F4E032539
:10040800002743F00108224609EB0701002001F00C
:10041800FDFB0744241A48B933782BB14FF47A40CE
:10042800C047013D02D13570BDE8F8830123337020
:10043800002CE8D1F8E700BFB02100002000002020
:10044800704701F017BCF0B595B01C461646084633
:100458000D4600F070FF1A9B0D93CDE90864002447
:100468002346082205A928460A948DF82C400C94A6
:1004780000F07FFF079B0293BDF81830ADF80C30F1
:10048800BDF81A30ADF80E309DF814308DF81140D3
:1004980003F00302012A1DD1BDF81440059EC3F3E1
:1004A800C203C4F383148DF81030A20008230EA9E8
:1004B800284600F05EFFC6F3952608AB0093224657
:1004C80002AB0EA9304600F04BFB284600F037FF80
:1004D80015B0F0BD022AF8D1BDF81640C3F3C20327
:1004E800A4098DF810300827082C264628BF0826AE
:1004F8003B4632460EA9284600F03BFFA41B08AB3A
:1005080002AA31460EA8374400F08EFB002CEBD12E
:10051800DBE7000008B5FFF794FF0421034800F06B
:100528008DFA034B01225A7108BD00BF80210000DB
:1005380000000020037813F0040216D003F0030330
:10054800012B03D0022B09D0012070470A680088CC
:100558000232C0F3831002440A60F5E70B68428850
:10056800023303EB92130B60EEE71046704700006E
:100578002DE9F04F484C87B00F460546861C0020F1
:10058800019200F0FFFB23683B60D4E90123134488
:10059800226801339B1A04F21C4704F5836A04F2AB
:1005A8001448B34219D3019A0023002A6CD00122BF
:1005B80062F3010343F0040365F389132168A26819
:1005C8000A4003320E44002044F82230266000F02E
:1005D800DBFB012007B0BDE8F08F0121384600F0B1
:1005E800F5FB504600F008FC404600F005FC0DF114
:1005F80018096068D4F808B049F8100D00EA0B0033
:10060800033004EB80004946FFF794FF029BB0B922
:100618000BEA030204EB8202D16803919A1C0133AE
:1006280003EA0B0B04EB8B0C01F00303012B029282
:10063800DCF80CB020D0022B04D083460BE00BEA88
:100648000300DDE7BDF80E309B0903334FEA1B4B6F
:1006580002EB93030293404600F0D1FB08B1029BE2
:1006680063605946384600F0B1FBD4E901231344CE
:10067800226801339B1A94E7BDF80C30C3F3831347
:100688004FEA1B4B1344E5E7022262F3010343F0F0
:10069800040365F39F5391E7340100200B4B0C488A
:1006A800FF2210B59A600022C3F81824C3E900227B
:1006B800C3F8142483F8202400F0F6FD044610B98A
:1006C800044800F061FE204610BD00BF3401002040
:1006D80090210000D421000030B50A4C71B10A4ABB
:1006E8000A49121BD20800239A4201D1002030BDCA
:1006F80031F82350854202D00133F5E7034654F818
:100708003300F4E768210000802100000000002089
:10071800094B013903EBC000032909D8DFE801F0D0
:100728000A02040604207047007970474079704730
:10073800002070470220704768210000034BD3E96E
:100748000030C31A58425841704700BF3401002096
:100758002DE9F04385B0FFF7F1FF0646002840F089
:10076800F9807D4DC5F81804BFF34F8F6868AC68F1
:1007780004AF47F8100D2040033005EB80003946E0
:10078800FFF7D8FE009B18B1D5F81824002A5FD0CF
:1007980004EA0302991C013305EB8202234005EBAE
:1007A8008303D268DB68029302F00303022B0192F1
:1007B800009162D1BDF8063068484FEA9318B8F145
:1007C800500FC14628BF4FF0500969F38F1309F144
:1007D8000801ADF8063000F07FFD0746002800F05C
:1007E800A48000F0A8FD01A900230822384600F0E3
:1007F800B5FD009924EA01060136B600B14535D9A0
:100808005FFA89F97EB3F6B2A9EB060921400331F4
:100818005FFA89F4B146524E05EB810108234A4636
:10082800384600F09BFD36B109F1080322463146EF
:10083800384600F093FD009B08F1030803EB98038A
:100848000093D5F81834002B4BD1D5F810445BE051
:100858002A689A4204D86A60304605B0BDE8F08339
:1008680004EA030088E73E493446D7E721400331CC
:1008780008234A4605EB8101DAE7012B55D1BDF87B
:1008880004303648C3F38311062928BF062161F3D3
:10089800891302318900ADF8043000F01DFD0746C8
:1008A800002842D000F047FD0023082201A938465D
:1008B80000F054FD0026BDF80420C2F38312B31CD7
:1008C80096424FEA8303BCD200994A1C2140033167
:1008D800009205EB81010422384600F03FFD013605
:1008E800E9E7384600F02BFDFFF728FF80F001000C
:1008F800C6B2B1E7E3685B7923B1236839461B6860
:1009080020469847E3681C68002CF3D1384600F06D
:1009180016FD204600F036FAD5F818340BB9009BBE
:100928006B60002000F030FADEE7D5F8104454B9C7
:100938000C4B0D480D49C01AC008000440F00200D5
:1009480000F06EF8D0E7236820469B689847E36874
:100958001C68ECE700267FE73401002090210000A6
:10096800400100206821000078210000E0210000FB
:100978002DE9F74F284C80460F46924601A90122DF
:1009880018469B46D4F80890FFF7F2FD88B3019DFE
:100998000026A91C5E4506EB010234D100211F4840
:1009A80000F0F4F980F310006A1C02EA090204EB73
:1009B8008202000405EA0903033340EA1840D060C4
:1009C80014F8232068F3C50204F8232034F8232000
:1009D80066F3891224F8232054F82320012167F3B1
:1009E8009F2244F8232061F301026FF3820204F886
:1009F800232094F820341BB1FFF7AAFE0028FBD16E
:100A080003B0BDE8F08F09EA020204EB82025AF84B
:100A18002630D3600136BDE73401002050050020A0
:100A280000231A46FFF7A4BF13B502AC012344F80C
:100A3800042D2246FFF79CFF02B010BD30B50F49C8
:100A4800D1F81024002314463CB9C468237152B964
:100A5800C1F810042260184630BDE46825799D422B
:100A680006D02468F0E7D268116821601060F2E7C8
:100A780001330A2BE7D14FF0FF33ECE734010020B4
:100A8800094A38B50123D2F8104482F820341D46AB
:100A980004B938BDE3685D71236820465B689847F0
:100AA800E3681C68F4E700BF34010020037A052BD3
:100AB80010B50C460FD0437A23B1084A084920469E
:100AC80000F0F7F90749204600F0F3F92046BDE8A1
:100AD800104000F0E3B9002AF8D0F3E72B22000019
:100AE8003022000050220000C38873B504460D462A
:100AF80033B1144A00921449144A284600F0D9F92F
:100B0800217A05291CD0637A4BB1A088FFF700FE33
:100B18000F4B104953F82020284600F0CAF9227AD2
:100B28000D4BA08853F822600021FFF7D5FD0B4933
:100B380003463246284602B0BDE8704000F0B9B915
:100B480002B070BD2B2200003B22000033220000BF
:100B5800F82100003022000060220000532200002B
:100B68002DE9F04385B01F460C9D002306460C4630
:100B7800904695F80C902B7329463846FFF7B4FF3A
:100B8800B8F1060F09D8DFE808F00412181F283357
:100B980040003146284600F08CF9002229463846A4
:100BA800FFF784FF85F80C9005B0BDE8F083226854
:100BB8003146284600F07DF9EFE7D4E900233146B5
:100BC800284600F076F9E8E7A36800933146D4E9AF
:100BD8000023284600F06DF9DFE7E3680193A36876
:100BE80000933146D4E90023284600F062F9D4E79F
:100BF80023690293E3680193A36800933146D4E91B
:100C08000023284600F055F9C7E763690393236971
:100C18000293E3680193A36800933146D4E9002363
:100C2800284600F046F9B8E708292DE9F84F80462C
:100C38000E4617461C4636D8002593F80C901D73AF
:100C480019461046FFF750FFDFF87CA0DFF87CB0AC
:100C5800AE422AD918F805205946204600F029F94D
:100C68000135082DF4D11649DFF864B0204600F0AC
:100C780020F90025AE421DD918F805A0504601F00C
:100C8800BBF9002814BF52462E225946204600F0D0
:100C980010F90135082DEDD1012221463846FFF71C
:100CA80005FF84F80C90BDE8F88F5146204600F007
:100CB80000F9D5E70349204600F0FBF8E9E700BF53
:100CC8002622000024220000222200001C2200000C
:100CD800282200001FB50021039001AA44F2010058
:100CE800CDE9011100F004F805B05DF804FB00003F
:100CF80010B572B6FFF7C4FEFFF72AFD0028FBD136
:100D0800104B114C1149E41AE408240444F0010082
:100D1800FFF786FE0E4B1B68DB0700D500BE0D49AA
:100D280044F00200FFF77CFEBFF34F8F0A490B4BDC
:100D3800CA6802F4E0621343CB60BFF34F8F00BF71
:100D4800FDE700BF6821000078210000BF220000F5
:100D5800F0ED00E0CB22000000ED00E00400FA0511
:100D680072B6024A1368013313607047F005002019
:100D7800034A1368013B136003B962B6704700BFAA
:100D8800F0050020FFF7ECBFFFF7F2BF50E8002F97
:100D98000B4640E8003C9CF0000FF7D11046704726
:100DA80050E8003F43EA010240E8002C9CF0000FA5
:100DB800F6D11046704750E8002F02EA010340E8D8
:100DC800003C9CF0000FF6D11046704750E8003FF9
:100DD80003EB010240E8002C9CF0000FF6D110460E
:100DE800704750E8003FA3EB010240E8002C9CF05C
:100DF800000FF6D1104670470121FFF7D1BF00213F
:100E0800FFF7D9BF10B590B1D0E9012301689B1A4B
:100E1800DBB20A60013BDBB2FF2B026802D1002083
:100E2800107110BD11684C1C14600B70F2E70E2095
:100E3800F7E738B504460020FFF7A4FF2268636887
:100E48001168994213D9481E106011F8015CE368D3
:100E5800218A01FB0535A36811791B1ADBB2994277
:100E680000D213710020FFF78FFF284638BD0025F8
:100E7800F8E738B5054600200C46FFF783FF2A68D7
:100E88001368591C1160E968641A298AB4FBF1F4E3
:100E98001C700020BDE83840FFF776BF826810B5A7
:100EA80004462AB143690168006998470023A36092
:100EB80010BD0EB403B5039929B102AA04AB42F8D8
:100EC800043D00F06BF802B05DF804EB03B0704726
:100ED800826830B40468551C8560A154D0E9013299
:100EE8009A4202D330BCFFF7D9BF30BC704700002C
:100EF8002DE9F84F9946DDE90A43174682468846A8
:100F08000A460126BA420FD24E4538BF4E4613F064
:100F1800010B01D164B900240125B9F1010F1AD9D7
:100F280009F1FF397D43F8E7B2FBF7F20136E9E74B
:100F38009B070ED5B9F1000F0CBF30252025A6421E
:100F4800EAD2013C29465046FFF7C2FF002CF6D1F1
:100F5800E1E72025F3E7B8FBF5F39F42E2D9DFF894
:100F68003890B8FBF5F3504619F8031005FB1388C1
:100F7800FFF7AEFFB5FBF7F5002DF2D1BBF1000F7F
:100F880002D00CB1A64201D3BDE8F88F202150460B
:100F9800013CFFF79DFFF4E7D82200002DE9F74F49
:100FA800054690460E46002900F03A8116F8011BC6
:100FB800002958D0252940F0D180002702E047F0C9
:100FC80001071646324612F8013B2D2BF7D0302B7D
:100FD80004D02B2B05D147F00407F2E747F00207AE
:100FE800EFE700242A2B06F101021BD1D8F80030C4
:100FF800191D1B68C8F800101C44164633782E2BA0
:101008001CD101364FF0000A314611F8012BA2F12C
:101018003000092814D80A2303FB0A23A3F1300A55
:101028000E46F1E712F8013CA3F130010929E5D891
:101038000A2101FB0434303C1646D3E74FF0000A7E
:10104800324612F8011B01F0FB0068281646F8D05A
:10105800692916D054D8582970D00ED825297DD0A2
:101068003378002BA2D12B7B002B00F0D9802846A7
:1010780003B0BDE8F04FFFF711BF632968D06429BA
:10108800EED1D8F80020D2F80090111D89EAE97253
:10109800C8F80010A2EBE9724FF0010B092A61DCD5
:1010A800D34538BFD3462CB1B9F1000F01DB79071E
:1010B80000D5013CBA0702D5BAF1000F04D0FB07EE
:1010C80002D4002C54D10024B9F1000F58DAC9F128
:1010D80000092D212846FFF7FBFE07F00302022A2C
:1010E80005D1BAF1000F02D1002C4DD10024CDE971
:1010F800004753460A2249462846FFF7F9FEAFE75C
:10110800732954D016D87029AAD1D8F800301A1DDE
:10111800C8F80020302128461C68FFF7D9FE78213E
:101128002846FFF7D5FE00220823CDE900322146E4
:101138001022E1E775292FD0782991D1D8F800102D
:101148000A1DC8F80020CDE90047534610222CE0BC
:10115800D8F800301A1D1978C8F800202846FFF77B
:10116800B7FE7DE70A230BF1010B92FBF3F295E73B
:10117800A345A9D220212846013CFFF7A9FEA0E7F4
:101188007807AAD52B21A5E7A345B0D23021284658
:10119800013CFFF79DFEA7E7D8F80010CDE900470E
:1011A8000A1DC8F8002053460A220968A4E7D8F89F
:1011B80000301A1DC8F80020F907D3F8009012D59E
:1011C8004F46A7EB090B17F8011B41B9A345BFF41C
:1011D80047AF20212846013CFFF77AFEF6E728466C
:1011E800FFF776FEEDE7B9F1000F17D0484600F09B
:1011F80086FF0746BC4200D954B909F1FF3919F8EE
:10120800011F00293FF42CAF2846FFF761FEF6E7DF
:1012180020212846013CFFF75BFEEBE74F46E9E754
:1012280003B0BDE8F08F2DE9F047B0F80690447997
:10123800D2F800A09DF8208009FB04F4043C06467F
:101248000AEB0300A0420F4688BFA4EB030A191D4E
:10125800C2F800A0B1FBF9F509FB15114DB9A9EBCE
:101268000104544528BF5446BAF1000F04D1BDE823
:10127800F0873668013DF1E704317B197018224682
:10128800B8F1000F0ED001461846AAEB040A00F088
:10129800B8FED145254436684C464FF0000128BFBA
:1012A8005446E1E71946F0E7FFF7ACBDF8B54679D3
:1012B8000146721E0546002393422D6803D300247D
:1012C800A64202D8F8BD0133F6E70F682846FFF7B3
:1012D800D0FD01343946F3E72DE9F843068ACD1CE1
:1012E8000746FFF7A6FD043E35440446B5FBF6F570
:1012F800F0B14FF48073EDB28380C680013D076082
:1013080081464FF00008A84512D23846FFF791FDF4
:10131800064648B163790133637108F10108C9F8D9
:10132800000007608146EEE72046FFF7BFFF34461E
:101338002046BDE8F88301210430FFF747BD10B50A
:10134800012104460430FFF74CFD10F0FF0F04D1D3
:101358002046BDE81040FFF7A9BF10BD1FB504AC7B
:1013680044F8042D002200922246FFF75CFF04B0E7
:1013780010BD1FB504AC44F8042D0122009222468A
:10138800FFF751FF04B010BD836800225A609A60CD
:10139800C3E90422DA601A60704700001FB50378B9
:1013A8008DF8003003798DF8043043798DF80530D5
:1013B80083688DF80630C3688DF807300369029397
:1013C80043690393054A064B684653F8213052F89F
:1013D8002110984705B05DF804FB00BFF405002014
:1013E800FC050020024B4FF4807043F001031847BE
:1013F800F02200002DE9F04791460778324A42F87A
:101408002790324A42F827304B7B80460C4663B31C
:101418000868496882008B0002F1A04203F1A043EA
:1014280040F20C65C2F800570126C3F800574FF088
:10143800A04506FA00F006FA01F1C5F80805C5F856
:10144800081540F20D61C2F80017C3F80017FFF73E
:10145800C9FF4FF0000AD5F81025636822FA03F394
:10146800DB070FD5BAF1000F1FD1B9F1000F3B46CA
:10147800174A214608F1040008BF0022BDE8F047DA
:1014880000F0F2B8236806FA03F3C5F80C35FFF745
:10149800A9FF236806FA03F3C5F808350AF1010A1B
:1014A800FFF7A0FFBAF1090FD5D1636801254FF006
:1014B800A04605FA03F3C6F80C35FFF793FF6368F7
:1014C8009D40C6F80855D0E7FC050020F40500202B
:1014D800A5130000014B1B68184700BF0406002035
:1014E80038B50A4B98420D460CD10020FFF74AFC4C
:1014F800074B1C7914B901221D601A710020FFF7EF
:1015080043FC0CB9002038BD1120FCE70020004046
:10151800040600200023435082B043580193019BE6
:1015280002B07047F0B5D0F8243187B004460D46B4
:101538009BB14FF49271FFF7EDFFD0F8043163B916
:10154800AB68C0F808330223AB60AB68C0F804335B
:1015580001230362436107B0F0BDD4F80431002BC6
:1015680034D04FF48271204605F10C07FFF7D2FF03
:101578000FCF01AE0FC63B68336095F82E3073B1BC
:101588002B7B012B0CBFD4F83C25D4F84C250292B8
:10159800022B0CBFD4F83C35D4F84C3503934FF4E8
:1015A800B0712046FFF7B6FF4FF4AE71FFF7B2FFF8
:1015B80095F8303013B195F82E30CBB10023C4F82C
:1015C8000032AB601F4BC4F8083311E04FF4A4712C
:1015D8002046FFF79FFF2B7BEBB905F10C070FCFD8
:1015E80001AE0FC63B68336095F83030002BE6D06B
:1015F800D4F8C434C4F8C4349A071ED501238DF82E
:10160800003095F830300BB985F82F30D5E9003126
:10161800684698479FE74FF40073C4F8003240F2D9
:101628000223AB6003F1CE73C4F80833AB68C4F887
:1016380004330123A36023628DE713F0040318BF6A
:101648000223DCE702029C0101490248FFF76ABF56
:101658000C0600200030004002494FF04020FFF700
:1016680061BF00BF400600202DE9F84F0479374DCF
:101678004FF0340808FB04F805EB08079B4697F879
:101688002D3081460E469246002B5BD1304B0068C8
:1016980053F82410FFF724FF002855D13168737BD5
:1016A80087F8323001F5E0724FF0A043B860C7F810
:1016B80004B087F82F0087F8300040F20C6745F82F
:1016C80008A043F82270726802F5E07C43F82C7099
:1016D800D9F80030C3F80815C3F80C25B268C3F868
:1016E8002425BAF1000F25D01A0B53B2317B002BF9
:1016F800A8BF03F16046D2B24FEA5313B8BF02F055
:101708000F074FEA4111B4BF124E06F561464FEA82
:101718008303C9B203F16043B4BFF15586F80013DF
:1017280003F5614302F01F02012101FA02F2C3F836
:1017380080211A60342303FB0454012384F82D30DC
:10174800BDE8F88F0820FBE71120F9E70C06002018
:10175800FC22000014ED00E0026803790621C2F8BB
:101768000015044A342101FB0323022283F82D20AB
:10177800704700BF0C0600202DE9F843CB6803F042
:101788006043B3F1005F0D46904603D01022104627
:10179800BDE8F8830779944E0468944BC4F808337D
:1017A8004FF0340C0CFB076C9CF82F302BB1DCF895
:1017B8000830C4F804331122E9E712F0140F0CBF03
:1017C800012300238CF82F308946B9E80F000CF16B
:1017D8000C0EAEE80F00D9F80030CEF80030C8F390
:1017E80000138CF830306B78C4F888354FF4827168
:1017F8002046FFF78FFE4FF49271FFF78BFE18F02B
:10180800010318BF0123C4F8503518F0020318BFAC
:101818000123C4F840352B78032B00F2C380DFE89E
:1018280003F083AB67022B6903F06043B3F1005FF9
:10183800ACD14FF48073EA68C4F800326B68C4F81E
:1018480044254FF4A871C4F84835FFF763FE4FF4F8
:10185800B071FFF75FFE4FF4A471FFF75BFE012341
:101868002362A360D4F85031002BFBD04FF4A87149
:101878002046FFF74FFEAB682A69C4F84425C4F830
:1018880048355B4A342303FB07639A604FF482733D
:101898000821002218F0080F04D1287803281CBF5B
:1018A80001206050342179437018715800297ED185
:1018B800012523441968002900F086803421D4F8D2
:1018C800C434C4F8C43401FB0766002186F82F101D
:1018D800002B3FF45CAF13F0020F48F2012208BF5F
:1018E800032213F0040F48F2022318BF1A464EE7EA
:1018F8006B68EA68C4F84425C4F848352B6903F0D6
:101908006042B2F1005F7FF441AFAA68C4F8343591
:101918004FF48453C4F83825C4F80032342303FB49
:10192800076340F20222B0E76B68EA68C4F844250E
:1019380018F0200FC4F848354FF0340310D003FBDB
:1019480007634FF48072C4F80022294A9A604FF462
:10195800A471FFF7DFFD4FF4A4730122226297E719
:101968004FF4007203FB0763C4F8002240F202221E
:101978009A604FF48273F0E76B68EA68C4F834251C
:10198800C4F838354FF48053C4F80032342303FBCD
:10199800076340F202229A600123236200214FF478
:1019A800827376E74FF482730821072272E718F0F2
:1019B800040F1CBF4FF400738360342303FB0766D6
:1019C800B368C4F80433E2E6D4F8241100293FF4DC
:1019D80071AF4FF492712046FFF79CFD25624FF4DA
:1019E8008273656165E700BF0C06002002029C0156
:1019F80000020400F0B587B004460F4615460021E2
:101A080012220DF106001E4600F024FB01230022DD
:101A180001A920468DF804308DF8057002960495CA
:101A2800FFF7AAFE07B0F0BD1FB51C211E22CDE9A5
:101A380000124FF0CC7200230292022203936946EF
:101A48008DF80C2006481A46FFF7D4FC08B1FFF7BA
:101A580041F90448FFF780FE05B05DF804FB00BFBC
:101A68000C230000102300002DE9F3410021084653
:101A7800FEF714FE08B1FFF72DF9FEF74BFD1B4CDE
:101A88001B4B1C49E41AE408240444F003042046D0
:101A9800FEF7C6FFFEF75CFE06460028FAD1FFF700
:101AA800C3FF154FDFF858800125802DE9B209D111
:101AB8003EB912492046FEF7B3FFFEF749FE00285B
:101AC800FBD1FEE701230DF107023846FFF792FF2D
:101AD80028B92A4641462046FEF7A6FF0126FEF70A
:101AE80037FE0028FBD10135DFE700BF7821000071
:101AF800682100001C23000010230000562300006A
:101B0800312300000369C1688B429DBF8268D218E7
:101B180002F1FF3203F1FF3394BF501A581A70478D
:101B28002DE9F041D0E902670446F61B4068964269
:101B380088461546384405D900F063FA3D44E56007
:101B4800BDE8F0813246AD1B00F05BFA2A4608EB8F
:101B58000601606800F055FAF1E72DE9F843C56819
:101B68000646894617464FF000083469B36870681E
:101B7800A54228BFE418013C621B5C1BBC4228BF7D
:101B88003C46944228BF144649462844224600F061
:101B980038FAB3682544AB4208BF00253F1BA04470
:101BA800A144F560E1D14046BDE8F88310B5114C79
:101BB800114AA2610223C4E90433104BE361A26411
:101BC8004FF400730E4A2362E264002310220D4989
:101BD800A362E01D6362E362A3656365E365226552
:101BE80000F06BFA0849204600F067FA2023A37139
:101BF80010BD00BF740600206B230000FC06002007
:101C0800EC0600207423000078230000F8B5184C77
:101C1800182300FB033503FB00402544C46A012C4C
:101C28000F46164611D003D3022C1BD000240AE01D
:101C38002846FFF767FF864205D8324639462846C8
:101C4800FFF76EFF34462046F8BD2846FFF75AFFD7
:101C58008642344628BF0446224639462846FFF7BE
:101C68005FFFF0E72846BDE8F840FFF776BF00BF02
:101C780074060020FFF79ABF0C4B1B78062B10D177
:101C88000B4B1B681A070CD10A4B186800F0F003BD
:101C9800302B08D000F0E000A0F140035842584132
:101CA8007047002070470120704700BFE00F00F028
:101CB800E40F00F0E80F00F0094B1B78062B0CD15D
:101CC800084B1B681A0708D1074B186800F0F0008A
:101CD800A0F130035842584170470020704700BFB8
:101CE800E00F00F0E40F00F0E80F00F008B5FFF790
:101CF800C3FF28B17D4B7E4A1B68C3F304231360DE
:101D0800FFF7DAFF10B17B4B7B4A1A60FFF7B4FF8D
:101D180028B17A4B7A4A1B68C3F342331360FFF742
:101D2800CBFF20B1774AD36823F08073D360FFF7E5
:101D3800A3FF40B14FF080430022C3F80C21C3F841
:101D48001021C3F83825FFF7B7FF10B16E4B0322F7
:101D58001A60FFF7B1FF40B16C4B05221A600122EF
:101D68009A6700229A603F225A60694B1B78062BBB
:101D780050D1684B1B6819074CD1674B1B6803F09F
:101D8800F003502B46D14FF08052644BD2F8041424
:101D9800C3F82015D2F80814C3F82415D2F80C1487
:101DA800C3F82815D2F81014C3F82C15D2F8141457
:101DB800C3F83015D2F81814C3F83415D2F81C1427
:101DC800C3F84015D2F82014C3F84415D2F82414E7
:101DD800C3F84815D2F82814C3F84C15D2F82C14B7
:101DE800C3F85015D2F83014C3F85415D2F8341487
:101DF800C3F86015D2F83814C3F86415D2F83C1447
:101E0800C3F86815D2F84014C3F86C15D2F8442406
:101E1800C3F87025FFF730FF28B1414B414A1B68D2
:101E280003F04F031360FFF727FF48B14FF08043DB
:101E3800D3F80024D20744BF6FF00102C3F800248E
:101E4800394B1B68062B08D1384B1B68062B01BF82
:101E5800374A136843F480631360364AD2F88830EF
:101E680043F47003C2F88830BFF34F8FBFF36F8F0E
:101E78004FF01023D3F80022002A03DBD3F80432F2
:101E8800002B2FDA2C4B0122C3F80425D3F80024A9
:101E9800002AFBD04FF010221521C2F80012D3F807
:101EA8000024002AFBD04FF010231522C3F8042287
:101EB800214B1A46D3F800140029FBD00021C3F89F
:101EC8000415D2F80034002BFBD0BFF34F8F19490B
:101ED8001A4BCA6802F4E0621343CB60BFF34F8F1A
:101EE80000BFFDE7164B174A1A6008BD240300100F
:101EF8004035014074C007400DF0ADBA44020010EF
:101F08003C050040F0ED00E0A00500401056004000
:101F1800E00F00F0E40F00F0E80F00F000C0004010
:101F280058020010E40E0040300100103401001087
:101F38003C17004000ED00E000E001400400FA0515
:101F4800080000200090D0037F2805D8034B185CB8
:101F5800034B5B5C184070470020704780230000EB
:101F680000240000A0F16103192B98BF20387047A6
:101F7800A0F14103192B98BF203070477F2805D85E
:101F8800034B185C034B5B5C18407047002070479C
:101F98008023000000240000A0F16103192B98BFE2
:101FA80020387047A0F14103192B98BF20307047A3
:101FB8007F299ABF017001206FF02E0070475AB137
:101FC8000A787F2A0AD800B1026000211960596096
:101FD800501A18BF01207047002070476FF02E007C
:101FE8007047000008B5034B5B689B681B689847FF
:101FF80008BD00BF0C00002008B50921FFF7F2FF5B
:1020080008BD844640EA010313F0030F18D1844643
:10201800202A0BD32DE9F007B1E8F807A0E8F80764
:10202800A2F12002202AF7D2BDE8F007042A07D33C
:1020380051F8043B40F8043BA2F10402042AF7D209
:10204800002A05D011F8013B00F8013B013AF9D10B
:10205800604670478446002A2DD010F0030F04D044
:1020680000F8011B013A26D0F7E7C9B241EA01217D
:1020780041EA0141202A12D3A2F120022DE9F003FE
:102088000B460C460D460E460F4688468946A0E884
:10209800FA03203AFBD2BDE8F00320320BD0042A21
:1020A80005D340F8041B043A05D0042AF9D200F8F5
:1020B800011B013AFBD160467047024610F0030F3E
:1020C80016D111F0030F13D12DE9F0004FF00137AD
:1020D8004FF0803351F8044BA4EB070525EA0405BB
:1020E8001D4002D142F8044BF4E7A1F10401F0BC11
:1020F80011F8013B02F8013B002BF9D1704700F1C0
:10210800010110F0030F11D010F8012B002A23D081
:1021180010F0030F0AD010F8012B002A1CD010F081
:10212800030F03D010F8012B002A15D02DE97000F9
:102138004FF001324FF0803350F8044BA4EB020506
:1021480025EA04051D4000D1F6E7A0F1040070BCA3
:0E21580010F8012B002AFBD1A0EB010070470C
:10216800F622000000000000042300000000000028
:08217800F12100000000030347
:10218000B821000000000000C42100000000002071
:10219000640000202C010020340100206C0000208D
:0421A0001800000023
:1021A4000000000000000000000000000338FDD81B
:1021B40070470000DD03000049040000D90300005B
:1021C4007274745F6C6F675F6261636B656E6400E9
:1021D400580500207F000000D80500204261636B91
:1021E400656E647320666C757368656400617070F5
:1021F400000000002B2200007422000033220000A3
:102204007C220000842200008C2200009422000022
:102214009C220000A42200002025303278002020D7
:1022240020007C002563001B5B306D002573001BC0
:102234005B313B33316D0025734C6F6773206472DF
:102244006F70706564202825642925730D0A003C8D
:1022540025733E2025733A20000000000000000092
:10226400C5220000AC220000B4220000B922000004
:102274001B5B313B33306D001B5B313B33326D00F4
:102284001B5B313B33336D001B5B313B33346D00DF
:102294001B5B313B33356D001B5B313B33366D00CB
:1022A4001B5B313B33376D007761726E696E67007B
:1022B400696E666F00646562756700466174616C7F
:1022C400206572726F720053797374656D20726544
:1022D400736574003031323334353637383941421E
:1022E4004344454600000000000000000338FDD8C8
:1022F4007047505253000000511600006116000050
:102304005457494D00000000000000000030004018
:102314000000000001000000545749207363616EFF
:102324006E657220737461727465642E005457492B
:1023340020646576696365206465746563746564A7
:102344002061742061646472657373203078257829
:102354002E004E6F20646576696365207761732073
:10236400666F756E642E005465726D696E616C00E3
:102374005254540053454747455200002020202022
:1023840020202020206828282828202020202020E1
:102394002020202020202020202020204810101041
:1023A4001010101010101010101010108484848459
:1023B400848484848484101010101010108181810E
:1023C4008181810101010101010101010101010179
:1023D400010101010101011010101010108282820C
:1023E4008282820202020202020202020202020249
:1023F4000202020202020210101010200007032041
:10240400041702010857104080000000B4250000A2
:10241400782400008C25000053756E004D6F6E000B
:102424005475650057656400546875004672690008
:1024340053617400000000004A616E00466562004A
:102444004D617200417072004D6179004A756E00F1
:102454004A756C0041756700536570004F637400E2
:102464004E6F76004465630000000000414D00504B
:102474004D000000B0250000AC250000AC25000094
:10248400AC250000AC250000AC250000AC25000004
:10249400AC250000AC250000AC250000FFFFFFFFC9
:1024A400FFFFFFFFFFFFFFFFFFFF0000EC24000022
:1024B4001C240000282500003C2400007024000097
:1024C400D024000080250000DC240000256D2F2589
:1024D400642F2579000000002561202562202565F0
:1024E400202554202559000053756E646179004DF0
:1024F4006F6E646179005475657364617900576522
:10250400646E65736461790054687572736461798B
:10251400004672696461790053617475726461790B
:10252400000000004A616E7561727900466562724E
:1025340075617279004D6172636800417072696CF3
:10254400004D6179004A756E65004A756C790041E9
:1025540075677573740053657074656D6265720098
:102564004F63746F626572004E6F76656D6265725B
:1025740000446563656D62657200000025483A2574
:102584004D3A255300000000511F00006D1F00004C
:10259400791F0000851F0000A11F0000AD1F00006F
:1025A400B91F0000C71F0000000000002E0000003B
:0C25B40043000000504F53495800000045
:1025C00000000000FF0000000090D0031024000075
:1025D000102400001024000010240000102400002B
:04000003000003797D
:00000001FF
