:020000022000DC
:106000000000012079630200616302006363020003
:10601000656302006763020069630200000000001C
:106020000000000000000000000000006B630200A0
:106030006D630200000000006F63020071630200E4
:10604000C98F020073630200D98F020035900200ED
:106050007363020073630200598E020073630200CF
:1060600073630200736302007363020073630200D0
:1060700073630200736302007363020073630200C0
:1060800073630200736302007363020073630200B0
:10609000736302007363020085EA02007363020007
:1060A0007363020073630200736302007363020090
:1060B0007363020073630200000000000000000030
:1060C0007363020073630200736302007363020070
:1060D000199702007363020073630200000000005E
:1060E00000000000000000000000000000000000B0
:1060F00000000000000000000000000000000000A0
:10610000000000000000000000000000000000008F
:10611000000000000000000000000000000000007F
:10612000000000000000000000000000000000006F
:10613000000000000000000000000000000000005F
:10614000000000000000000000000000000000004F
:10615000000000000000000000000000000000003F
:10616000000000000000000000000000000000002F
:10617000000000000000000000000000000000001F
:10618000000000000000000000000000000000000F
:1061900000000000000000000000000000000000FF
:1061A00000000000000000000000000000000000EF
:1061B00000000000000000000000000000000000DF
:1061C00000000000000000000000000000000000CF
:1061D00000000000000000000000000000000000BF
:1061E00000000000000000000000000000000000AF
:1061F000000000000000000000000000000000009F
:10620000364937480A1A02D0072291438D4635494C
:1062100035480A1A06D00722914381F309880222E1
:1062200082F3148831483249324A00F045F8324846
:106230003249334A00F040F832483349334A00F0DB
:106240003BF833483349344A00F036F83348344990
:10625000344A00F031F834483449354A00F02CF81B
:1062600034483549354A00F027F835483549002289
:1062700000F02DF834483549002200F028F8344861
:106280003449091A082903DB002202600430016046
:10629000314A90471F482049884205D0026804309F
:1062A00003B4904703BCF7E700208646EC46002085
:1062B00000212A4A9047FEE7884207D0521A05D0AB
:1062C000037801300B700131013AF9D170478842EF
:1062D00002D002700130FAE7704700000000012090
:1062E00000E000200000012000000120982F0300A2
:1062F0004422002070220020D8630200D8630200EC
:10630000A8020300982F030044220020442200200A
:106310000004030000040300000403000004030061
:106320000004030000040300000403000004030051
:10633000982F0300C42F0300702200207022002039
:10634000702200201C3400201C3400202034002047
:106350002034002020540020A16302002199020073
:10636000FEE7FEE7FEE7FEE7FEE7FEE7FEE7FEE705
:10637000FEE7FEE7704700BF1048804710484FF027
:106380000701884385460F4880470F48016841F45C
:1063900070010160BFF34F8FBFF36F8FFFF730BF06
:1063A0000A480B490B4A884207D0521A05D0037895
:1063B00001300B700131013AF9D170477563020069
:1063C000000001200D8B020088ED00E0EC030300CB
:0863D0003022002044220020CD
:1063D80000487047143400207047000007B5044B8C
:1063E8000093044A402300F031FC03B05DF804FB3D
:1063F80001640200712200202DE9F8438946144601
:10640800B2B10F4B0F4E0325002743F00108224677
:1064180009EB0701002004F0B1FD0744241A48B92C
:1064280033782BB14FF47A40C047013D02D1357023
:10643800BDE8F88301233370002CE8D1F8E700BFEA
:106448000004030070220020704704F0CBBD000058
:1064580008B5FFF7FAFF0421034800F0ABFA034B35
:1064680001225A7108BD00BFDC030300442200204A
:10647800037813F0040216D003F00303012B03D0B2
:10648800022B09D0012070470A6800880232C0F345
:10649800831002440A60F5E70B684288023303EB75
:1064A80092130B60EEE71046704700002DE9F04F9D
:1064B80089B00546861C08A8484C019200230F465F
:1064C80000F8113D00F06EFC23683B60D4E901231D
:1064D8001344226801339B1A04F21C4704F5836AAB
:1064E80004F21448B3421AD3019A0023002A6DD04B
:1064F800012262F3010343F0040365F38913216861
:10650800A2689DF80F000A4003320E4444F8223076
:10651800266000F06BFC012009B0BDE8F08F012176
:10652800384601F087FC504601F09DFC404601F0DA
:106538009AFC0DF120096068D4F808B049F8100DEC
:1065480000EA0B00033004EB80004946FFF790FF98
:10655800049BB0B90BEA030204EB8202D1680591EF
:106568009A1C013303EA0B0B04EB8B0C01F00303B9
:10657800012B0492DCF80CB020D0022B04D0834607
:106588000BE00BEA0300DDE7BDF816309B09033387
:106598004FEA1B4B02EB93030493404601F066FC61
:1065A80008B1049B63605946384601F043FCD4E9BE
:1065B80001231344226801339B1A93E7BDF8143072
:1065C800C3F383134FEA1B4B1344E5E7022262F33C
:1065D800010343F0040365F39F5390E784230020ED
:1065E8000B4B0C48FF2210B59A600022C3F8182400
:1065F800C3E90022C3F8142483F8202402F051F9D7
:10660800044610B9044802F0FBF9204610BD00BF4B
:1066180084230020200303002404030030B50A4C1F
:1066280071B10A4A0A49121BD20800239A4201D1C1
:10663800002030BD31F82350854202D00133F5E700
:10664800034654F83300F4E734030300DC03030083
:1066580044220020094B013903EBC000032909D863
:10666800DFE801F00A020406042070470079704749
:1066780040797047002070470220704734030300B8
:10668800034BD3E90030C31A58425841704700BF42
:10669800842300202DE9F04387B0FFF7F1FF064679
:1066A800002840F0FC807F4DC5F81804BFF34F8FD9
:1066B8006868AC6806AF47F8100D2040033005EB5A
:1066C80080003946FFF7D4FE029B18B1D5F818248C
:1066D800002A5FD004EA0302991C013305EB820209
:1066E800234005EB8303D268DB68049302F00303BD
:1066F800022B0392029162D1BDF80E306A484FEA2C
:106708009318B8F1500FC14628BF4FF0500969F3EC
:106718008F1309F10801ADF80E3002F0DAF80746D8
:10672800002800F0A78002F003F903A9002308223B
:10673800384602F010F9029924EA01060136B6003B
:10674800B14535D95FFA89F97EB3F6B2A9EB0609E6
:10675800214003315FFA89F4B146544E05EB8101BB
:1067680008234A46384602F0F6F836B109F108031C
:1067780022463146384602F0EEF8029B08F103083B
:1067880003EB98030293D5F81834002B4BD1D5F8B6
:1067980010445BE02A689A4204D86A60304607B021
:1067A800BDE8F08304EA030088E740493446D7E7A8
:1067B8002140033108234A4605EB8101DAE7012B22
:1067C80058D1BDF80C303848C3F38311062928BFC7
:1067D800062161F3891302318900ADF80C3002F00B
:1067E80078F80746002845D002F0A2F800230822CE
:1067F80003A9384602F0AFF80026BDF80C20C2F312
:106808008312B31C96424FEA8303BCD202994A1CF6
:1068180021400331029205EB81010422384602F03F
:106828009AF80136E9E7384602F086F8FFF728FFBC
:1068380080F00100C6B2B1E7E3685B7923B1236851
:1068480039461B6820469847E3681C68002CF3D13A
:10685800384602F071F806A800F8114D00F0A2FAC7
:10686800D5F818340BB9029B6B609DF8070000F04F
:10687800BDFADBE7D5F8104454B90D4B0D480E4965
:10688800C01AC008000440F0020000F06FF8CDE71D
:10689800236820469B689847E3681C68ECE7002655
:1068A8007CE700BF842300202003030090230020FE
:1068B800340303005C030300300403002DE9F74FA1
:1068C800284C80460F46924601A9012218469B464D
:1068D800D4F80890FFF7EAFD88B3019D0026A91CAB
:1068E8005E4506EB010234D100211F4801F061FA30
:1068F80080F310006A1C02EA090204EB8202000419
:1069080005EA0903033340EA1840D06014F823204D
:1069180068F3C50204F8232034F8232066F38912AB
:1069280024F8232054F82320012167F39F2244F8F8
:10693800232061F301026FF3820204F8232094F804
:1069480020341BB1FFF7A6FE0028FBD103B0BDE839
:10695800F08F09EA020204EB82025AF82630D3606B
:106968000136BDE784230020A027002000231A4613
:10697800FFF7A4BF13B502AC012344F8042D224647
:10698800FFF79CFF02B010BD07B5CDE90023022335
:106998006A46FFF793FF03B05DF804FB1FB5CDE926
:1069A8000123069B039301AA0323FFF787FF05B082
:1069B8005DF804FB30B50F49D1F8102400231446C4
:1069C8003CB9C468237152B9C1F810042260184652
:1069D80030BDE46825799D4206D02468F0E7D26886
:1069E800116821601060F2E701330A2BE7D14FF0FC
:1069F800FF33ECE784230020094A38B50123D2F895
:106A0800104482F820341D4604B938BDE3685D712E
:106A1800236820465B689847E3681C68F4E700BF72
:106A280084230020037A052B10B50C460FD0437A37
:106A380023B1084A0849204601F079FA0749204657
:106A480001F075FA2046BDE8104001F065BA002A49
:106A5800F8D0F3E77B04030080040300BC100300B4
:106A6800C38873B504460D4633B1144A00921449DD
:106A7800144A284601F05BFA217A05291CD0637A6A
:106A88004BB1A088FFF7E6FD0F4B104953F82020C3
:106A9800284601F04CFA227A0D4BA08853F8226060
:106AA8000021FFF7BBFD0B4903463246284602B0DA
:106AB800BDE8704001F03BBA02B070BD7B04030032
:106AC8008B040300830403004804030080040300CC
:106AD800B0040300A30403002DE9F04385B01F466A
:106AE8000C9D002306460C46904695F80C902B7397
:106AF80029463846FFF7B4FFB8F1060F09D8DFE892
:106B080008F00412181F283340003146284601F0C7
:106B18000EFA002229463846FFF784FF85F80C90C4
:106B280005B0BDE8F08322683146284601F0FFF938
:106B3800EFE7D4E900233146284601F0F8F9E8E701
:106B4800A36800933146D4E90023284601F0EFF901
:106B5800DFE7E3680193A36800933146D4E9002393
:106B6800284601F0E4F9D4E723690293E368019326
:106B7800A36800933146D4E90023284601F0D7F9E9
:106B8800C7E76369039323690293E3680193A368E2
:106B980000933146D4E90023284601F0C8F9B8E744
:106BA80008292DE9F84F80460E4617461C4636D868
:106BB800002593F80C901D7319461046FFF750FFF7
:106BC800DFF87CA0DFF87CB0AE422AD918F805209F
:106BD8005946204601F0ABF90135082DF4D1164984
:106BE800DFF864B0204601F0A2F90025AE421DD9B5
:106BF80018F805A0504608F0B3F9002814BF52460B
:106C08002E225946204601F092F90135082DEDD182
:106C1800012221463846FFF705FF84F80C90BDE8AD
:106C2800F88F5146204601F082F9D5E703492046FE
:106C380001F07DF9E9E700BF76040300740403005E
:106C4800720403006C04030078040300F0B595B0E7
:106C58001C46164608460D4601F06AFE1A9B0D931F
:106C6800CDE9086400242346082205A928460A9489
:106C78008DF82C400C9401F079FE079B0293BDF827
:106C88001830ADF80C30BDF81A30ADF80E309DF85C
:106C980014308DF8114003F00302012A1DD1BDF80C
:106CA8001440059EC3F3C203C4F383148DF8103057
:106CB800A20008230EA9284601F058FEC6F395261F
:106CC80008AB0093224602AB0EA93046FFF704FF3B
:106CD800284601F031FE15B0F0BD022AF8D1BDF802
:106CE8001640C3F3C203A4098DF810300827082CF6
:106CF800264628BF08263B4632460EA9284601F0FC
:106D080035FEA41B08AB02AA31460EA83744FFF78C
:106D180047FF002CEBD1DBE71FB50021039001AA48
:106D280044F20100CDE9011100F004F805B05DF866
:106D380004FB000010B572B6FFF75EFEFFF7AAFC71
:106D48000028FBD1104B114C1149E41AE408240423
:106D580044F00100FFF70AFE0E4B1B68DB0700D565
:106D680000BE0D4944F00200FFF700FEBFF34F8F4D
:106D78000A490B4BCA6802F4E0621343CB60BFF3C5
:106D88004F8F00BFFDE700BF340303005C0303001F
:106D98000F050300F0ED00E01B05030000ED00E027
:106DA8000400FA0570B5EFF3108672B60C4A9468C1
:106DB80001239CB993600B4B0B4DD3F880102940ED
:106DC8001160C3F88050D3F8841051604FF0FF323F
:106DD800C3F88420047006B962B670BD0370FAE780
:106DE8004028002000E100E0FC06FFBD084B9A683F
:106DF80010B55AB150B9EFF3108172B6054A1C6844
:106E080014605C685460986001B962B610BD00BF38
:106E18004028002000E100E070B5064E0546002439
:106E280056F824300BB1284698470134042CF7D182
:106E380070BD00BF58280020033080B240F2FD33F7
:106E4800984230B51FD8124B1A783AB91C895D8917
:106E58002C440444A4B2B4F5806F0AD31A7DA2B9B5
:106E68009A8BDC8B2244024492B2B2F5806F0CD22A
:106E780001220A801446142202FB04335A89104462
:106E88005881002030BD0920FCE70720FAE700BF41
:106E98008C2800200B4A0C4B5188142000FB013130
:106EA800CB6833B90420496810700122074801F003
:106EB800C3BA05230649137002238B8001220023DD
:106EC8000968F3E7702800208C2800203022002071
:106ED8005429002007B5002305490093054A09688D
:106EE8000548082301F012FA03B05DF804FB00BF5F
:106EF80054290020340503003022002007B5002360
:106F0800009301460823034A034801F0FFF903B040
:106F18005DF804FB2C0503003022002013B5002384
:106F28000C46009301460423074A084801F0EEF98D
:106F380038B9074B142202FB04340123237402B02E
:106F480010BD0E20FBE700BF2805030030220020FB
:106F58008C28002037B50A480A4B42689C88196873
:106F680053880325033305709BB2002000909B00D3
:106F780001EB8401044801F0C9F903B030BD00BF3A
:106F880070280020542900203022002010B5014626
:106F9800044800F042FE1C220446002108F074F860
:106FA800204610BD402900204388033300EB8303AB
:106FB800994209D382884FF6FF739A4206D0008817
:106FC800B0FA80F0400970470220704701207047EE
:106FD8002DE9F8430223DFF860800B800D46174641
:106FE80000F5805600F108044FF00109B4420FD2B1
:106FF800236801330CD031462046FFF7D5FF48B14E
:107008000FB187F8009002280BD14FF480632B80D2
:10701800BDE8F883A368D8F80020934201D9C8F8DE
:1070280000302B886288033313442B806388033332
:1070380004EB8304DAE700BF84280020144A1423F1
:1070480003FB002070B50B6844680D4604F58056B4
:107058009BB15C88033403EB8404B4420BD22368ED
:10706800013308D031462046FFF79EFF012809D09A
:1070780005D30228F1D1002003E00834EDE72C60A5
:10708800012070BD6388033304EB8304E5E700BF88
:107098008C280020436873B505460C466BB3254A17
:1070A800D1688B4229D31269934226D813F0030280
:1070B80023D121490089098988421ED12868996805
:1070C80088421AD11D494868834203D900F5805087
:1070D80083420ED38A6993420DD902F580529342B6
:1070E80009D2012323800020B0FA80F0400902B0C1
:1070F80070BD1346F6E70A20F6E7002323801E46F4
:107108002388012B01D90020F1E7019601A92088E5
:10711800FFF794FF18B9238801332380F0E7019B18
:107128002A6899689142F1D16B60034B1B892B81C6
:10713800DDE700BF30220020702800208C280020C6
:107148002DE9F8431C461E4B1B7806460F4615468C
:10715800002B30D0002A30D07CB3DFF86C804FF0A1
:107168001409A388012B01D90A201AE009FB03F3AB
:1071780018F80330BBB1A3880133A380F1E7236873
:107188001EB19988328891420DD11FB119883A8869
:10719800914208D19A68C5E900230A4B1B892B81C3
:1071A8000020BDE8F8832146A088FFF747FF0028A4
:1071B800E5D12060DFE70220F3E70520F1E700BF13
:1071C80068280020702800208C28002008B5074B6C
:1071D800191D5888FFF732FF18B1BDE80840FFF7BE
:1071E800B9BEBDE80840FFF755BE00BF70280020B3
:1071F8002DE9F04FA04FDFF8A49289B00646B846B3
:107208003B6823B949469D4800F041FD3860D8F8ED
:10721800005029784B1E052B00F21281DFE813F08D
:10722800060076007600060106015D0126B1944B42
:1072380000225A60012424E02B79032B1DD8DFE8B3
:1072480003F01502424D8F490B78022B084631D0C6
:107258000B7D022B4FF001032ED114225343C21889
:107268000020C8545068FFF749FE03E001232B7142
:10727800FFF730FE002800F0D380814B00225A60CF
:107288000E241422002103A807F0FEFE41F61D5328
:107298009C4208BF0024D8F8003004941A78023AB7
:1072A800042A00F2D381DFE812F0B401C001E3013F
:1072B800EB01F2010023D0E7714A137000235360F9
:1072C80041F61D54DDE770497048002302222B71F6
:1072D8008A800122096801F0AFF8CBE76A4C0026E2
:1072E8002E712068674DFFF709FE694BD4F800C07E
:1072F8005A8814235343EA18EE5451682160A18830
:10730800C2F804C011810222A280B3E7B5F814A024
:10731800AA7DDFF870B1AEB1022AEB8806D9142134
:1073280001FB0AB1DA1C088902440A81142202FB13
:107338000ABAC3F57F43BAF80A20FD331344AAF802
:107348000A3077E7142303FB0AB318895C6804EB57
:107358008004062A05D8DFE802F0264C34421C587F
:1073680066000F24AA7DEB88022A06D9142101FBA6
:107378000AB1DA1C088902440A81142202FB0ABAFB
:10738800C3F57F43BAF80A20FD331344AAF80A303C
:1073980077E74048404900234360AB690360FFF743
:1073A80079FE00285AD00223AB75002300930423EA
:1073B800EA182146354800F0A9FF002830D00E24ED
:1073C800D0E72B69002B0CBF01230323AB750023E7
:1073D800009305F10C02042304F10801EAE70123F4
:1073E800AB750022EB8800929B002A6904F10C011E
:1073F800E0E7032914BF06230523AB750023009398
:10740800042305F10802E118D4E70623AB75224BE3
:107418001988204B5868FFF781FD04460028A1D140
:1074280009B0BDE8F08F41F61D549BE7002E7FF4AC
:1074380001AF2B79012B33D004D3022B3FF440AF9B
:107448000F241EE702232B710DF10A01EB68039349
:1074580003A8CDE90466FFF71DFE08B90A2410E762
:107468000498BDF80A108388EB8003882B81FFF706
:1074780055FD044627E000BF882800204029002049
:10748800682800208C280020542900203022002061
:10749800702800204C280020602900208028002027
:1074A800DFF808A203AA53463146A81DFFF748FE95
:1074B800044660B9BAF804100498FFF72FFD044693
:1074C8000A2C3FF4FDAE002C7FF4DBAEA8E70822BF
:1074D8003146504607F0D8FDF2E7002E7FF4AAAEF9
:1074E8006D4B1A7BB2B11E731A78013A062AA7D8D7
:1074F80001A151F822F000BFA7750200CD75020066
:10750800EB750200F175020049740200F77502007C
:107518000D7602001A78072AE6D801A151F822F060
:1075280049750200F1740200F17402006F750200DF
:1075380083750200A3750200A37502006B75020033
:107548001A89564901321A8100225A801A730A7818
:10755800B2FA82F252099A720A7DB2FA82F252099A
:10756800DA72012207E04E4958688A884088033257
:1075780002448A8002221A70B6E7484C5A88484961
:10758800142505FB024208685468506088881081F9
:1075980002228A800C600622EDE70722EBE79A7A3E
:1075A80032B9DA7A8AB900221A705A805A6087E6A4
:1075B8003A4900229A72CA68002AF2D1097C002945
:1075C800EFD05A80FFF702FE53E70022DA72334AFF
:1075D800116A0029E7D192F82420002AE3D0012279
:1075E800EFE7FFF7B7FC44E7FFF754FC41E7062253
:1075F8001A702A4A5B88142101FB03235868FFF795
:107608007DFC36E707221A7000225A60FFF762FCF9
:107618002FE701228DF80C201A89ADF818209A88D6
:10762800DB68ADF81A20059310E002228DF80C20D3
:107638001A89ADF818209A88ADF81A20DA689B7D67
:1076480005929A1F534253418DF81C3003A8FFF747
:10765800E3FB002649461348C8F8006000F042FBE7
:107668000121114800F0F1FB00287FF4C9ADD7E6ED
:1076780003228DF80C20DA88ADF818201A89CFE794
:107688000422DB888DF80C20ADF81830DEE70523DE
:107698008DF80C30DAE700BF702800208C28002015
:1076A8005429002040290020502900206429002066
:1076B8004068FFF79DBD000008B50121044800F0AF
:1076C800AEFB18B9BDE80840FFF792BD08BD00BF82
:1076D800502900202DE9F3419846354B1B78064682
:1076E8000D46002B5BD000295BD009884FF6FF734D
:1076F800994258D06B88002B55D06B689B0754D1A2
:107708004AB92F890DF102013846FFF795FB30B1D0
:1077180002B0BDE8F08113885788ADF8023001A89F
:10772800FFF734FC044658B9BDF80230214A142149
:1077380001FB032358890338C01B58810820E7E759
:1077480000238375BDF8023083826B68036180F87B
:1077580000800121184800F06DFB2B882381B8F1C7
:10776800030F6B88A38004BF0423A3754FF00005A3
:1077780008BF3368E06008BFA361E780658101A99D
:107788000E4800F074FA36B1E36833600C4B75604C
:107798001B89B5723381FFF78FFF0020B8E70220FD
:1077A800B6E70520B4E70420B2E70320B0E700BF3E
:1077B800682800208C2800208428002040290020E8
:1077C8007028002008B5084B1A68042A09D01968DF
:1077D800064A42F821000121184600F02BFB002040
:1077E80008BD0C20FCE700BF5C29002058280020B9
:1077F8002DE9F04F89B01422002103A807F044FCBA
:107808007B4A137803F0FF01009190463BB103A82F
:10781800FFF702FB0026304609B0BDE8F08F101DC7
:1078280000F01EFB05460028F4D14FF010234FF05E
:1078380080525B6911695269DFF8DCA1581C08BFE6
:1078480002FB01F3CAF810300022A3F5405369493E
:10785800CAF80C30504600F025FD06460028DAD15B
:107868001C238C226449654800F0A2F93746B346C8
:107878004FF003093446CDF804A0019BD9680BEBFF
:10788800010002465BF80110002835D05C4B994294
:1078980032D141685B4B994215D0013399422BD1C3
:1078A800009BDFF86CA1002B59D100225649CAF879
:1078B8000000FFF78DFBBAF80420022A14BF082243
:1078C800042217433AE051494FF0140C0CFB04FC16
:1078D80001EB0C024FF0000E01F80CE050600CF1C7
:1078E80010020CF1080C0A446144FFF771FB47F0E1
:1078F80002070134A4B221E000F5805C116801316F
:1079080067D104329445F9D1414A116829B9022155
:1079180001231060918000930EE0142262433B4BD8
:107928004FF0020E991803F802E03A4A4860548072
:107938000134A1F808E0A4B247F001070BF5805B19
:10794800BBF5405F99D1B9F1010F88BF3D46EDB253
:10795800022D02D0062D12D0DDB90B265BE72B4B8A
:107968001422624399184FF0020C03F802C0013444
:10797800DAF800204A60A1F808C0A4B295E701230C
:1079880088F8003003A80023C8F80430FFF744FA49
:1079980041E702A8FFF7FAFAC8B10123013D0370D5
:1079A8000A2D09D8DFE805F00608060807080708C1
:1079B8000F110F000023037102A9104800F057F9B6
:1079C800FFF77AFE27E70323F5E70223F3E7082604
:1079D80021E70E491422624301EB020C09F1FF3939
:1079E800CCF8040003201FFA89F9885481E700BF06
:1079F8006828002028070300B42800204029002018
:107A0800DEC0ADDEFE011EF1582900208C280020C2
:107A180054290020702800203022002073B50D461C
:107A28000446C8B1C1B10DF10601FFF733FBA8B197
:107A38000B4BBDF806006668142202FB00300121DA
:107A48000C3000F0F7F963682E600C336B6001238B
:107A5800A372002002B070BD0520FBE70A20F9E7F9
:107A68008C28002013B50446A8B10DF10601FFF7D4
:107A780011FB90B10B4ABDF80630142101FB03231A
:107A8800DA6862B1A27A52B1DA680020013ADA60A3
:107A9800A07202B010BD0520FBE70A20F9E7062016
:107AA800F7E700BF8C28002002230022FFF712BE50
:107AB80018B103230022FFF70DBE05207047000010
:107AC800104B1B7813B50446ABB14FF6FF739842C1
:107AD80013D001A8FFF75AFA88B1052303700123D0
:107AE8000371C48001A9084800F0C1F8FFF7E4FD5C
:107AF800002002B010BD0220FBE70420F9E70820AF
:107B0800F7E700BF68280020402900200E4B1B78AB
:107B180007B5A3B101A8FFF739FA90B1062303709E
:107B280001A90A4800F0A3F8094B1A780AB1012202
:107B38001A73FFF7C1FD002003B05DF804FB0220B3
:107B4800FAE70820F8E700BF68280020402900204D
:107B58007028002007B5ADF8060002A820F8041D1B
:107B680001460DF10600FFF7EBFA03B05DF804FBE0
:107B780013B502AC134624F8020D0A46002021462C
:107B8800FFF7DEFA02B010BD13B502AC134624F8B5
:107B9800020D0A4620460021FFF7D2FA02B010BDB6
:107BA80020B119B103680B600020704705207047A9
:107BB80010B561B1B2FBF3F403FB1424A4B244B9C9
:107BC800C0E9001484608281C381204610BD0E2064
:107BD800FCE70920FAE782B050E8022FC188B2EB2F
:107BE800324F4FF0000317BF92B241EA014142EA17
:107BF800014104E04268B2EB324F08BF012340E87C
:107C08000212002AE8D18DF807309DF80730002BC2
:107C18000CBF1120002002B0704737B550E8013F73
:107C28009DB2C48925448489A54228BF2D1B048997
:107C3800A54202BFBFF32F8F002207E0C5EA030564
:107C480040E80154002CE9D14FF001028DF80320DF
:107C58000193019B9DF803200B6002F0FF0322B102
:107C68000B880068184403B030BD1846FBE70A8843
:107C78004B889A4209D150E8012FC2EA024240E8F3
:107C88000123002BF7D1012070470020704737B53A
:107C980050E8023F1FFAA3F5C488A54202BFBFF30C
:107CA8002F8F00220DE0C48925448489A54228BF6E
:107CB8002D1BC3EA054540E80254002CE8D14FF0DB
:107CC80001028DF803200193019B9DF803200B60AE
:107CD80002F0FF0322B14B880068184403B030BD9E
:107CE8001846FBE70A884B889A4209D150E8022FC8
:107CF800C2EA224240E80223002BF7D10120704754
:107D08000020704701F01F024B090121914000EB50
:107D1800830000F063B84B0910B501F01F0401217E
:107D2800A14000EB830000F04EF8E04000F00100B5
:107D380010BD01F01F0301229A404B0900EB83009C
:107D4800D14300F061B84B0901F01F0150F823003E
:107D5800C84000F0010070472DE9F0474E1E760933
:107D680080460F460136002558F8254008EB850A5D
:107D7800E44394FAA4F4B4FA84F44FEA4519202CA5
:107D880006D10135AE42EFD83C462046BDE8F08723
:107D98004C44A742F5D921464046FFF7BCFF0028CE
:107DA800F3D0DAF80040E44394FAA4F4B4FA84F483
:107DB800E5E750E8002F0B4640E8003C9CF0000F38
:107DC800F7D11046704750E8002F42EA010340E817
:107DD800003C9CF0000FF6D11046704750E8003F79
:107DE80043EA010240E8002C9CF0000FF6D110464F
:107DF800704750E8002F02EA010340E8003C9CF07D
:107E0800000FF6D11046704750E8003F03EA010220
:107E180040E8002C9CF0000FF6D11046704750E85F
:107E2800002F02EB010340E8003C9CF0000FF6D164
:107E38001046704750E8003F03EB010240E8002C71
:107E48009CF0000FF6D11046704750E8003FA3EBB6
:107E5800010240E8002C9CF0000FF6D11046704754
:107E68000121FFF7B0BF0121FFF7B8BF0021FFF7DD
:107E7800C0BF10B590B1D0E9012301689B1ADBB2ED
:107E88000A60013BDBB2FF2B026802D100201071AF
:107E980010BD11684C1C14600B70F2E70E20F7E758
:107EA80037B5054602A8002400F8014DFEF77AFF11
:107EB8002A686B68116899420ED9481E106011F83B
:107EC800014CEB68298A01FB0434AB6811791B1A51
:107ED800DBB2994238BF13719DF80700FEF786FFA1
:107EE800204603B030BD37B5054602A8002300F888
:107EF800013D0C46FEF756FF2A681368591C1160AD
:107F0800E968641A298AB4FBF1F41C709DF807002B
:107F1800FEF76CFF03B030BD826810B504462AB185
:107F280043690168006998470023A36010BD0EB437
:107F380003B5039929B102AA04AB42F8043D00F045
:107F48006BF802B05DF804EB03B07047826830B498
:107F58000468551C8560A154D0E901329A4202D3C5
:107F680030BCFFF7D9BF30BC704700002DE9F84F8F
:107F78009946DDE90A431746824688460A4601269D
:107F8800BA420FD24E4538BF4E4613F0010B01D10D
:107F980064B900240125B9F1010F1AD909F1FF3993
:107FA8007D43F8E7B2FBF7F20136E9E79B070ED508
:107FB800B9F1000F0CBF30252025A642EAD2013CBA
:107FC80029465046FFF7C2FF002CF6D1E1E72025ED
:107FD800F3E7B8FBF5F39F42E2D9DFF83890B8FB36
:107FE800F5F3504619F8031005FB1388FFF7AEFFA9
:107FF800B5FBF7F5002DF2D1BBF1000F02D00CB1A3
:10800800A64201D3BDE8F88F20215046013CFFF776
:108018009DFFF4E73C0503002DE9F74F0546904620
:108028000E46002900F03A8116F8011B002958D0A5
:10803800252940F0D180002702E047F001071646C5
:10804800324612F8013B2D2BF7D0302B04D02B2BC6
:1080580005D147F00407F2E747F00207EFE70024ED
:108068002A2B06F101021BD1D8F80030191D1B6814
:10807800C8F800101C44164633782E2B1CD1013644
:108088004FF0000A314611F8012BA2F130000928FF
:1080980014D80A2303FB0A23A3F1300A0E46F1E79A
:1080A80012F8013CA3F130010929E5D80A2101FBA6
:1080B8000434303C1646D3E74FF0000A324612F833
:1080C800011B01F0FB0068281646F8D0692916D074
:1080D80054D8582970D00ED825297DD03378002B54
:1080E800A2D12B7B002B00F0D980284603B0BDE835
:1080F800F04FFFF711BF632968D06429EED1D8F893
:108108000020D2F80090111D89EAE972C8F8001021
:10811800A2EBE9724FF0010B092A61DCD34538BFA5
:10812800D3462CB1B9F1000F01DB790700D5013C2A
:10813800BA0702D5BAF1000F04D0FB0702D4002C0D
:1081480054D10024B9F1000F58DAC9F100092D21E2
:108158002846FFF7FBFE07F00302022A05D1BAF111
:10816800000F02D1002C4DD10024CDE90047534621
:108178000A2249462846FFF7F9FEAFE7732954D08B
:1081880016D87029AAD1D8F800301A1DC8F80020CE
:10819800302128461C68FFF7D9FE78212846FFF7CA
:1081A800D5FE00220823CDE9003221461022E1E75E
:1081B80075292FD0782991D1D8F800100A1DC8F850
:1081C8000020CDE90047534610222CE0D8F80030B3
:1081D8001A1D1978C8F800202846FFF7B7FE7DE772
:1081E8000A230BF1010B92FBF3F295E7A345A9D201
:1081F80020212846013CFFF7A9FEA0E77807AAD569
:108208002B21A5E7A345B0D230212846013CFFF732
:108218009DFEA7E7D8F80010CDE900470A1DC8F869
:10822800002053460A220968A4E7D8F800301A1D2E
:10823800C8F80020F907D3F8009012D54F46A7EBED
:10824800090B17F8011B41B9A345BFF447AF20211B
:108258002846013CFFF77AFEF6E72846FFF776FE48
:10826800EDE7B9F1000F17D0484606F062FF074660
:10827800BC4200D954B909F1FF3919F8011F002986
:108288003FF42CAF2846FFF761FEF6E72021284689
:10829800013CFFF75BFEEBE74F46E9E703B0BDE8BB
:1082A800F08F000007B50B4688B9124B1248134AE5
:1082B800C01A0E23C0080093114B0004114940F066
:1082C8000100FEF76BFB0E2003B05DF804FB4BB911
:1082D800084B09480C4AC01AC0080E230093000432
:1082E800074BEBE703601B68114603B05DF804EB2E
:1082F800184700BF340303006C030300F9050300AB
:108308004C050300FE050300750603002DE9F34143
:1083180088B93D4B3D483E4AC01AC0080E243D4B23
:10832800009400043C4940F00100FEF737FB20466A
:1083380002B0BDE8F0814AB9334B3448374AC01A15
:10834800C0080E2400040094324BEBE7D0F800C0BC
:10835800BCF1000F09D12C4B2C48314AC01AC00877
:108368000824000400942B4BDCE74BB9264B274824
:108378002C4AC01AC008092400040094254BD1E7F0
:108388004768D7F80480B3FBF8F708FB17374FB1F5
:108398001D4B1E48244AC01AC00809240004009432
:1083A8001C4BBFE78F0709D0174B18481F4AC01A44
:1083B800C008102400040094164BB3E712F0030F12
:1083C80009D0114B11481A4AC01AC00810240004D9
:1083D8000094104BA6E7C768B9420BD34C1E056939
:1083E8001C44AC4206D8DCF80C40A44602B0BDE8F8
:1083F800F0416047044B05480E4AC01AC0081024D3
:1084080000040094034B8DE7340303006C0303005E
:10841800F90503005E050300FE0503007B06030063
:108428006F0603002E06030081060300AB06030057
:10843800C3060300E6060300F7B580B92A4B2B48AC
:108448002B4AC01AC0080E242A4B009400042A495B
:1084580040F00100FEF7A2FA204603B0F0BDD0F8C4
:1084680000C0BCF1000F09D11F4B2048234AC01A95
:10847800C0080824000400941E4BE8E74AB91A4BC8
:108488001A481F4AC01AC008092400040094194B4E
:10849800DDE74768D7F800E00EF1FF370F4209D053
:1084A800114B1248174AC01AC0081024000400943F
:1084B800104BCCE7C768B9420CD34C1E05690EFBBC
:1084C8000244AC4206D8DCF81040A44603B0BDE82C
:1084D800F0406047044B05480B4AC01AC0081024F6
:1084E80000040094034BB2E7340303006C03030059
:1084F800F905030071050300FE0503006F0603007C
:108508002E06030084050300AA05030029DF70472F
:1085180028DF704770B503689D6886B004460E462C
:108528006DB114220021684606F0AEFDA3680593DC
:10853800237901962BB1012B0DD06846A84706B0C8
:1085480070BD01238DF8003023690293E36803931B
:1085580063690493F1E702238DF80030E3681B0395
:108568000293F5E70846704700207047024B187AD7
:10857800003018BF01207047082A0020034B187AE2
:108588000122B0FA80F05A7440097047082A002086
:1085980008B510461A4606F04EFD002008BD00003A
:1085A80008B514220021044806F06EFD0348FFF7C1
:1085B80012FB002008BD00BF082A0020F82900206F
:1085C80010B5094C094B43602046FFF749FC40B9F8
:1085D80006F03AFA1C2320748C2205490548FFF757
:1085E800E7FA002010BD00BF082A00201C0703007E
:1085F8006C290020F829002070B5244D244E2B7AD0
:108608002C463BB923492448FFF741FB306008B9A1
:10861800686070BD0223237233681A7972B1012A27
:1086280024D018460321FFF775FF002323726360E7
:1086380018491948BDE87040FFF754BBD3E9052035
:10864800121AB2F5805F28BF4FF48052D3E90315A0
:108658009208012A014438BF01222844FFF756FF37
:1086680050B11128DDD101232372D2E7D3E90302E7
:108678001044FFF74DFFF3E7237C002BC9D10146D7
:10868800BDE87040022000F009B800BF082A0020A9
:10869800202A00201C2A0020F829002038B5831E33
:1086A800012B45D8234C237A002B41D0022B09D12A
:1086B800032830D0204B1B680022E2601A793AB1B7
:1086C800012A22D0637C7BBBBDE83840FFF794BF0A
:1086D800D3E905128D1AB5F5805F94BF521902F5DA
:1086E80080529A619142EDD102284FF0000308BFF1
:1086F80019462372104B18BF0D211868FFF70AFF9F
:108708000E490F48FFF7EEFADCE71A6901321A61E1
:108718005B699A42E7E7E3680133082B01D8E36015
:10872800D0E70023E360DFE7BDE8384006F07CB916
:1087380038BD00BF082A0020202A00201C2A00205B
:10874800F829002000F0FD03012B08D1044B00227A
:108758005A74421E504250411874FFF74DBF70477B
:10876800082A002010B5064C201DFFF779FB28B910
:10877800637C1BB9BDE81040FFF73EBF10BD00BFCA
:10878800082A00202DE9F34180460D460F4801A92B
:1087980016461F46FFF741FA0446A8B11C220021DD
:1087A80006F072FC2D0B0123237101A9C4F8008087
:1087B800A760E56066610548FFF759FAFFF7D2FF41
:1087C800002002B0BDE8F0810420FAE7F829002073
:1087D8002DE9F74381468846104801A917461E46E9
:1087E800FFF71BFA0446B0B11C22002106F04CFC2E
:1087F80000250A9BA36001A92571C4F80090C4E96B
:10880800037866610548FFF732FAFFF7ABFF2846A1
:1088180003B0BDE8F0830420FAE700BFF829002080
:108828002DE9F047B0F806904479D2F800A09DF8F9
:10883800208009FB04F4043C06460AEB0300A0422E
:108848000F4688BFA4EB030A191DC2F800A0B1FBAC
:10885800F9F509FB15114DB9A9EB0104544528BFD9
:108868005446BAF1000F04D1BDE8F0873668013DDF
:10887800F1E704317B1970182246B8F1000F0ED0C9
:1088880001461846AAEB040A06F0D5FBD145254453
:1088980036684C464FF0000128BF5446E1E71946B8
:1088A800F0E7FFF7E6BAF8B546790146721E0546C5
:1088B800002393422D6803D30024A64202D8F8BDB2
:1088C8000133F6E70F682846FFF70DFB01343946F8
:1088D800F3E72DE9F843068ACD1C0746FFF7E0FACF
:1088E800043E35440446B5FBF6F5F0B14FF4807309
:1088F800EDB28380C680013D076081464FF00008D5
:10890800A84512D23846FFF7CBFA064648B1637934
:108918000133637108F10108C9F800000760814656
:10892800EEE72046FFF7BFFF34462046BDE8F88350
:1089380001210430FFF77EBA10B501210446043046
:10894800FFF783FA10F0FF0F04D12046BDE810406E
:10895800FFF7A9BF10BD1FB504AC44F8042D0022D1
:1089680000922246FFF75CFF04B010BD1FB504ACAF
:1089780044F8042D012200922246FFF751FF04B06B
:1089880010BD41DF70470000064B10B500241C7075
:10899800054B1C60BFF35F8F0449054800F039F8A8
:1089A800204610BD2C2A0020302A0020480703004A
:1089B800242A002007B502A8002300F8013DFEF78D
:1089C800F1F9F1EE103A23F09F03E1EE103ABFF30C
:1089D8005F8F0A4B4022C3F884219DF80700FEF7F9
:1089E80005FA06F031F820B1FFF7CBFF03B05DF8C8
:1089F80004FB20BF40BF20BFF8E700BF00E100E054
:108A0800836800225A609A60C3E90422DA601A6017
:108A180070470B684A684360934208BF00230160AF
:108A280008BF43607047436843B102689168526861
:108A38000B449342436004BF002343607047000027
:108A48000D4930B5A1F594720225914201D8002054
:108A58000EE08B1ADB1093FBF5F302EBC30452F81C
:108A68003330834205D802D204F10802EDE760688A
:108A780030BD2146E9E700BF9808030008B5FFF7B5
:108A8800DFFF024B002808BF184608BD5D0703003A
:108A98000C4B1B78062B10D10B4B1B681A070CD1FB
:108AA8000A4B186800F0F003302B08D000F0E00003
:108AB800A0F14003584258417047002070470120F8
:108AC800704700BFE00F00F0E40F00F0E80F00F07F
:108AD800094B1B78062B0CD1084B1B681A0708D1C9
:108AE800074B186800F0F000A0F1300358425841D5
:108AF80070470020704700BFE00F00F0E40F00F05F
:108B0800E80F00F008B5FFF7C3FF28B17D4B7E4A98
:108B18001B68C3F304231360FFF7DAFF10B17B4B24
:108B28007B4A1A60FFF7B4FF28B17A4B7A4A1B6870
:108B3800C3F342331360FFF7CBFF20B1774AD36802
:108B480023F08073D360FFF7A3FF40B14FF0804359
:108B58000022C3F80C21C3F81021C3F83825FFF709
:108B6800B7FF10B16E4B03221A60FFF7B1FF40B197
:108B78006C4B05221A6001229A6700229A603F22F4
:108B88005A60694B1B78062B50D1684B1B68190734
:108B98004CD1674B1B6803F0F003502B46D14FF0C4
:108BA8008052644BD2F80414C3F82015D2F8081484
:108BB800C3F82415D2F80C14C3F82815D2F81014E9
:108BC800C3F82C15D2F81414C3F83015D2F81814B9
:108BD800C3F83415D2F81C14C3F84015D2F8201481
:108BE800C3F84415D2F82414C3F84815D2F8281449
:108BF800C3F84C15D2F82C14C3F85015D2F8301419
:108C0800C3F85415D2F83414C3F86015D2F83814E0
:108C1800C3F86415D2F83C14C3F86815D2F84014A8
:108C2800C3F86C15D2F84424C3F87025FFF730FF59
:108C380028B1414B414A1B6803F04F031360FFF70B
:108C480027FF48B14FF08043D3F80024D20744BF30
:108C58006FF00102C3F80024394B1B68062B08D1BA
:108C6800384B1B68062B01BF374A136843F48063EF
:108C78001360364AD2F8883043F47003C2F888305B
:108C8800BFF34F8FBFF36F8F4FF01023D3F800223D
:108C9800002A03DBD3F80432002B2FDA2C4B0122F5
:108CA800C3F80425D3F80024002AFBD04FF0102283
:108CB8001521C2F80012D3F80024002AFBD04FF087
:108CC80010231522C3F80422214B1A46D3F80014A6
:108CD8000029FBD00021C3F80415D2F80034002B7A
:108CE800FBD0BFF34F8F19491A4BCA6802F4E062F0
:108CF8001343CB60BFF34F8F00BFFDE7164B174AF6
:108D08001A6008BD240300104035014074C00740B4
:108D18000DF0ADBA440200103C050040F0ED00E053
:108D2800A005004010560040E00F00F0E40F00F0EE
:108D3800E80F00F000C0004058020010E40E0040A8
:108D480030010010340100103C17004000ED00E035
:108D580000E001400400FA054C2200200090D003F6
:108D680000F18040002382B0036003680193019BF7
:108D780002B0704738B54FF48270FFF7F1FF4FF03B
:108D880080430222C3F804230A4AD06840F0807363
:108D9800D360094B1C6844F0010119605D6859688B
:108DA800491BB1F50A5FFAD31C60044BD06001225D
:108DB8001A6038BDF0ED00E0001000E00800004047
:108DC800124B1B6810B573B14FF48070FFF7C8FFE2
:108DD8004FF080430122C3F808230D4B587910B98E
:108DE8005A711B6898470B4B1B6873B14FF482701C
:108DF800FFF7B6FF4FF080430222C3F80823044B65
:108E080001201B68BDE81040184710BD0001004054
:108E1800342A00200401004000F1804000F5C040E1
:108E2800002382B0036003680193019B02B070477E
:108E3800800000F1A040D0F8003723F44033C0F898
:108E48000037D0F8003743EA0141C0F800177047EF
:108E58002DE9F04385B00024544A554E554D0194F0
:108E680001211368A2F5C040012B80B206D1D6F8C3
:108E780004330B4202D0FFF7CFFF0C430432AA425F
:108E88004FEA4101EDD14C4B1B68012B0AD14FF43D
:108E9800BE70FFF7C1FF4FF0A04344F00044D3F881
:108EA8001035019314F0FF0F1AD0444F0025012606
:108EB800344210D0AB0003F1804303F5C043D3F82C
:108EC8001005D3F8101557F82530C0F30420C1F366
:108ED800014103B198470135082D4FEA4606E7D10D
:108EE800002C2EDA00224FF0FF33CDE90223DFF801
:108EF800CC80012702AE98F94430DAB2013322F06F
:108F0800C0041ED004A8E10800EB010C02F007031E
:108F18001CF8040C07FA03F3184212D008EB0400FB
:108F2800920990F9240058F820509DB9032A08D1D5
:108F380012E04FF0010911462046A847B9F1000F89
:108F480023D105B0BDE8F0830229FAD1032A27D13D
:108F5800114615E0032A02D1705C184370544FF093
:108F6800A04004F5E07150F821101CF80C0C1842D0
:108F7800C1F30141E8D10329E3D1032A10D1022129
:108F88002046FFF755FF002DD3D14FF0A043019A9B
:108F9800D3F810359342D4D00193029B0393AAE7E8
:108FA800002DCED04FF00009C5E700BF006100409A
:108FB80000600040206100407C6100403C2A0020A5
:108FC80008B500F0F5FBBDE80840FFF7F9BE000062
:108FD800014B1B68184700BF882A00200D4B984298
:108FE80037B50D4610D102A8002300F8013DFDF762
:108FF800D9FE094B1C7914B901221D601A719DF81C
:109008000700FDF7F3FE14B9002003B030BD1120AE
:10901800FBE700BF00200040882A002000234350BF
:1090280082B043580193019B02B07047F0B54C4A97
:109038004C4CD2F8243187B01546A3B14FF4927145
:109048001046FFF7EBFFD2F8043163B9A368C2F802
:1090580008330223A360A368C2F804330123136210
:10906800536107B0F0BDD5F80431002B49D03E4F0D
:109078003B484FF48271FFF7D1FF0FCF01AE0FC607
:109088003B68336094F82E307BB1237B012B0CBFF7
:10909800D5F83C25D5F84C250292022B304B0CBF55
:1090A800D3F83C35D3F84C3503934FF4B0712C48C2
:1090B800FFF7B4FF4FF4AE712948FFF7AFFF94F8FC
:1090C800303013B194F82E303BB1254B0022C3F851
:1090D8000022A260254AC3F80823214AD2F8C434E2
:1090E800C2F8C4349A0736D501238DF8003094F8B5
:1090F80030300BB984F82F30D4E9003168469847EE
:10910800AFE74FF4A4711648FFF788FF237B83B9B4
:10911800154F0FCF01AE0FC63B68336094F830305F
:10912800002BDAD1C5F80032A360104BC5F808331C
:10913800D3E74FF40073C5F8003240F20223A3606E
:1091480003F1CE73C5F80833A368C5F804330123C7
:10915800AB602B6285E713F0040318BF0223C4E752
:1091680000300040902A00209C2A002002029C0126
:109178002DE9F84F0579364C4FF0340808FB05F80F
:1091880004EB08079B4697F82D3081460E46924619
:10919800002B59D12F490068FFF720FF002855D12F
:1091A8003168737B87F8323001F5E0724FF0A043E5
:1091B800B860C7F804B087F82F0087F8300040F28D
:1091C8000C6744F808A043F82270726802F5E07C46
:1091D80043F82C70D9F80030C3F80815C3F80C25EB
:1091E800B268C3F82425BAF1000F25D01A0B53B280
:1091F800317B002BA8BF03F16046D2B24FEA53136C
:10920800B8BF02F00F074FEA4111B4BF124E06F57E
:1092180061464FEA8303C9B203F16043B4BFF15515
:1092280086F8001303F5614302F01F02012101FAD9
:1092380002F2C3F880211A60342303FB054401239A
:1092480084F82D30BDE8F88F0820FBE71120F9E7F6
:10925800902A00203590020014ED00E0026803799E
:109268000621C2F80015044A342101FB0323022217
:1092780083F82D20704700BF902A002003790B49FE
:109288000268342000FB0313002009499860C2F8E3
:109298000813D2F8001221F4BC51C2F80012C2F827
:1092A8000005012283F82D20704700BF902A002076
:1092B80002029C012DE9F843CB6803F06043B3F147
:1092C800005F0D46904603D010221046BDE8F88393
:1092D8000779944E0468944BC4F808334FF0340C63
:1092E8000CFB076C9CF82F302BB1DCF80830C4F865
:1092F80004331122E9E712F0140F0CBF01230023F5
:109308008CF82F308946B9E80F000CF10C0EAEE846
:109318000F00D9F80030CEF80030C8F300138CF8ED
:1093280030306B78C4F888354FF482712046FFF7E7
:1093380075FE4FF49271FFF771FE18F0010318BF24
:109348000123C4F8503518F0020318BF0123C4F8EC
:1093580040352B78032B00F2C380DFE803F083ABA2
:1093680067022B6903F06043B3F1005FACD14FF49F
:109378008073EA68C4F800326B68C4F844254FF477
:10938800A871C4F84835FFF749FE4FF4B071FFF7EC
:1093980045FE4FF4A471FFF741FE01232362A36049
:1093A800D4F85031002BFBD04FF4A8712046FFF7BA
:1093B80035FEAB682A69C4F84425C4F848355B4AC9
:1093C800342303FB07639A604FF482730821002259
:1093D80018F0080F04D1287803281CBF012060501A
:1093E800342179437018715800297ED1012523440E
:1093F8001968002900F086803421D4F8C434C4F8F0
:10940800C43401FB0766002186F82F10002B3FF4B7
:109418005CAF13F0020F48F2012208BF032213F0D9
:10942800040F48F2022318BF1A464EE76B68EA6831
:10943800C4F84425C4F848352B6903F06042B2F1FA
:10944800005F7FF441AFAA68C4F834354FF4845301
:10945800C4F83825C4F80032342303FB076340F20C
:109468000222B0E76B68EA68C4F8442518F0200FB8
:10947800C4F848354FF0340310D003FB07634FF4AA
:109488008072C4F80022294A9A604FF4A471FFF749
:10949800C5FD4FF4A4730122226297E74FF40072CE
:1094A80003FB0763C4F8002240F202229A604FF4DB
:1094B8008273F0E76B68EA68C4F83425C4F8383575
:1094C8004FF48053C4F80032342303FB076340F29F
:1094D80002229A600123236200214FF4827376E707
:1094E8004FF482730821072272E718F0040F1CBF9B
:1094F8004FF400738360342303FB0766B368C4F832
:109508000433E2E6D4F8241100293FF471AF4FF494
:1095180092712046FFF782FD25624FF482736561E0
:1095280065E700BF902A002002029C0100020400A7
:10953800F0B587B004460F4615460021142201A84D
:109548001E4605F0A1FD9DF830308DF80570002B02
:1095580014BF2022002201A9204602960495FFF795
:10956800A9FE07B0F0BDF0B587B004460F46154612
:10957800002112220DF106001E4605F085FD01238B
:10958800002201A920468DF804308DF80570029656
:109598000495FFF78FFE07B0F0BD0023435082B05B
:1095A80043580193019B02B070470000F0B546791B
:1095B8001F4B204F43F826207500AB19FB5CA3BB5B
:1095C80090F904308C78002BDAB2A8BF03F1604C14
:1095D8004FEA5313B8BF02F00F0E4FEA4414B4BF5A
:1095E800DFF854C00CF5614C4FEA8303E4B203F191
:1095F8006043B4BF0CF80E408CF8004303F5614398
:10960800012402F01F0204FA02F2C3F880211A6052
:1096180003680A88C3F8082535447B190A795A7003
:109628007C55CA789A700020F0BD0820FCE700BF7E
:10963800C82A0020C42A002014ED00E00368012293
:109648001A604379024A03EB43030221D15470475D
:10965800C42A00200368044901225A60437903EBB5
:109668004303CA54704700BFC42A00202DE9F041C3
:1096780006464FF4803400681C4D8C40C0F84843BF
:10968800C0F8084396F805E04FEA4E0C0CEB0E07BD
:109698002F4422F07F4297F8018001F5A87740F81F
:1096A8002720B8F1000F11D0D0F80485F4446544A0
:1096B800A8EB0207904538BF07F1FF17AA7838BF13
:1096C80007F57F47BA4201DD0D200CE03BB1503170
:1096D800890089B2FFF761FF3368C3F80443336830
:1096E8000020C3F84443BDE8F08100BFC42A00202D
:1096F800024610B500680C464FF48071FFF74DFF25
:1097080013680122C3F844230CB1C3F8042310BD25
:109718002DE9F041234EDFF89480234F00254FF4C4
:109728008034D6F8043305F150018900234289B208
:109738000ED005EB08039B001B684BB1C6F84843E5
:109748003046C6F80843FFF728FF3B68E8B2984759
:109758000135042D4FEA4404E3D1124CD4F8043304
:10976800DA070BD5D4F8003143B120464FF48071A5
:10977800FFF713FF0C4B28461B689847D4F80433AF
:109788009B070DD5D4F8043153B106484FF48271C4
:10979800FFF703FF044B05201B68BDE8F04118479D
:1097A800BDE8F08100400240C82A00205090001017
:1097B8004FF0804310B5D3F80443610709D5D3F8B7
:1097C800082103F5847322B100221A600D4B1B682F
:1097D8009847A20607D50C4B1A6822B100201860DA
:1097E8000A4B1B68984763060AD5094B1A683AB1B1
:1097F80000221A60054B01201B68BDE8104018477D
:1098080010BD00BFCC2A002014010040D02A00203F
:1098180018010040032812D8012A0BD1012908D1C8
:1098280000F10E02D2B200EB40000C4B1A5400209B
:10983800704700220129F6D009D3022901D0072058
:109848007047064B00EB400018444270EFE7034BAB
:1098580000EB400018448270E9E700BFD42A0020DA
:1098680008B5012202210020FFF7D4FF08B107281C
:1098780010D1072202210120FFF7CCFF08B10728E9
:1098880008D100210A220846FFF7C4FF10B10728B3
:1098980008BF002008BD00000388102B10B502D0B7
:1098A800112B1ED010BD1A4C2168B1B901220846EF
:1098B800FFF7B0FF08B1072824D1072202210120B1
:1098C800FFF7A8FF08B107281CD1042202210020B5
:1098D800FFF7A0FF08B1072814D1236801332360DC
:1098E800E0E70B4A1368013B1360002BDAD1FFF75E
:1098F800B7FF0028D6D0074B1B68002BD2D0BDE895
:1099080010401847034B1B68002BE6D09847E4E744
:10991800E42A0020E02A002008B501F03DFA01F011
:109928007DFA01F0EDF801F011FA00F053F801F0BA
:10993800FDF800F011FF00F0A1FD00F083FE00F03B
:109948009FFE00F07DFF00F0D1FE00F02FFF01F038
:1099580020FA002000F096F9094B0A480A49C01A73
:10996800C008000440F00300FDF700F801F05AF8C1
:1099780000F0A2FF00F0E2F801F002FAFCE700BFF5
:10998800340303005C0303006C0C030038B50C4B74
:109998000C4C0D49E41AE4080546240444F004007C
:1099A800FCF7E4FF2B7853B92B79012B04D1074935
:1099B80044F00300FCF7DAFF054B01221A7038BDAA
:1099C800340303005C030300CD0C0300E70C030021
:1099D800E82A00201FB50E4B0E480F49C01AC008D0
:1099E800000440F00300FCF7C1FF0C4B0FCB6C46A2
:1099F80084E80F0000230A4A0A482146FFF7B8FB0B
:109A080008B1FDF789F90748FFF728FC04B010BD35
:109A1800340303005C030300C40C0300880C030038
:109A280095990200BC0C03002DE9F341144B154C29
:109A380006461548C01AC008000490460F4600257F
:109A48001249257040F00300FCF790FF009543464B
:109A58003A4631460E48FFF76BFD08B1FDF75CF951
:109A68002378002BFCD00B4D0A2445F001054FF458
:109A78007A40A847013CFAD102B0BDE8F08100BFA6
:109A880034030300E82A00205C030300AF0C030042
:109A9800BC0C0300A00C03002DE9F04305461F464B
:109AA8002048214B214C85B00DF11008C01AC00880
:109AB80008F8011D00044FF000091D4984F80090C2
:109AC80040F003001646FCF751FF4246CDF80090DF
:109AD800012329461748FFF72BFD804608B1FDF7FB
:109AE8001BF92378002BFCD0B8F1000F07D13B46B7
:109AF800324629460F48FFF736FD804610B14046EA
:109B0800FDF70AF92378002BFCD00B4D0A2445F009
:109B180001054FF47A40A847013CFAD105B0BDE8E9
:109B2800F08300BF5C03030034030300E82A00202D
:109B3800A60C0300BC0C0300A00C03000148FFF7AF
:109B48009DBB00BFBC0C03000148FFF787BB00BFEB
:109B5800BC0C030007B50C4B0C480D49C01AC008D3
:109B6800000440F00300FCF701FF022301AA0021D2
:109B78004820FFF791FF9DF804009DF8053043EA5F
:109B8800002003B05DF804FB340303005C0303000A
:109B9800990D030010B51F4B1F4C2049E41A2DEDF9
:109BA800028BE408240444F0030482B02046FCF746
:109BB800DDFEFFF7CFFF07EE900A9FED197A9FEDC4
:109BC800196A194A1949F8EE677A204667EE877AC2
:109BD8009FED177A87EE878AFDEEC86AB5EEC08AD0
:109BE800B8EEE67AF1EE10FACCBF78EE477A77EE67
:109BF800487A16EE903A67EE867AFDEEE77ACDED72
:109C0800007AFCF7CBFEB0EE480A02B0BDEC028B3E
:109C180010BD00BF340303005C030300660D03009E
:109C28000024F4450000C842BE100300790D03006B
:109C38000024744910B50446FFF7ACFF10EE100A73
:109C480005F068F802460B4620460249BDE8104078
:109C580005F0CCB9AD0D030073B506466846FFF7AD
:109C6800E9FF0024684605F064FAE5B2A84204F169
:109C7800010401D802B070BD02AB2B4413F8083CB4
:109C88007355EFE77FB504A948F20403002605469B
:109C980021F8083D032248208DF80A60204CFFF780
:109CA800C3FE204B2049E41AE408240444F00304CA
:109CB8002046FCF75BFE012D0CBF3346042301252B
:109CC800032203A948208DF80D308DF80E608DF819
:109CD8000C50FFF7A9FE15492046FCF747FE04A9DA
:109CE800062301F8103D2A463046FFF79DFE10492D
:109CF800104E2046FCF73AFE2946022301AA4820C6
:109D0800FFF7CAFE642546F001064FF47A40B047D3
:109D1800013DFAD108492046FCF728FE04B070BD81
:109D28005C03030034030300FA0C0300070D03006F
:109D3800230D0300600D03003F0D0300A8DF7047EB
:109D4800AADF7047ACDF7047ADDF7047AEDF704702
:109D580062DF70472DE9F041324B05463248C01AA0
:109D6800C00890B000040E4601AF304940F003002F
:109D7800FCF7FCFD03220021384605F085F9112384
:109D88008DF80430F37B8DF805309DF806304FF0E0
:109D9800010868F342031C22002109A88DF8063047
:109DA80005F072F99DF82430002443F01A038DF869
:109DB8002430CDE90E7495F820308DF80E3002AFBE
:109DC80044F2AA63214603223846ADF80C300A94BF
:109DD800CDE90C4405F058F9337C8DF80830737CD4
:109DE8008DF809309DF80A3068F3420303F0E70361
:109DF80064F300032146142204A88DF80A3005F004
:109E080043F903ABCDE9043705230693ADF81C30BD
:109E180004AAAB1D09A9A888FFF792FF10B0BDE8F6
:109E2800F08100BF340303005C030300BF1003008C
:109E380070B52A4B05462A48C01AC00800048EB0DF
:109E48000E4640F003002749FCF790FD1C220DEB5D
:109E58000200002105F018F99DF81C3003F0F10309
:109E680043F0060300248DF81C3095F820308DF857
:109E78000630214644F2AB6303226846ADF804304D
:109E88000894CDE90A44CDE90C4405F0FDF8337C8B
:109E98008DF80030737C8DF801309DF80230012672
:109EA80066F3420303F0E70364F300032146142238
:109EB80002A88DF8023005F0E7F801AB029302AA78
:109EC80005F10E0307A9A888CDF80CD00496ADF8C3
:109ED8001460FFF735FF0EB070BD00BF34030300F8
:109EE8005C030300D60F030070B52A4B05462A48C9
:109EF800C01AC00800048EB00E4640F0030027497F
:109F0800FCF734FD1C220DEB0200002105F0BCF823
:109F18009DF81C3043F002036FF3C30300248DF84F
:109F28001C3095F820308DF80630214644F2AC6399
:109F380003226846ADF804300894CDE90A44CDE917
:109F48000C4405F0A1F8337C8DF80030737C8DF853
:109F580001309DF80230012262F3420303F0E70367
:109F680064F300032146142202A88DF8023005F09C
:109F78008BF801AB029305230493ADF8143002AAC1
:109F880005F1160307A9A888CDF80CD0FFF7D8FE6D
:109F98000EB070BD340303005C030300920F03008E
:109FA800F0B52D4B2D4DED1AED082D0445F00305A8
:109FB800064687B00F4628462949FCF7D7FC002EED
:109FC80047D0002F45D04FF6FF73F3833B683360CB
:109FD800244B02AA03F1100E9446186859681446D7
:109FE80003C4083373452246F7D106F120016046C1
:109FF800FFF7AEFE044648BB96F820308DF80630D1
:10A0080006A948F6D44321F8143D321D0120FFF774
:10A0180095FE044620B114492846FCF7A7FC15E034
:10A0280039463046FFF796FE044608B10F49F3E774
:10A0380039463046FFF7FCFE04460028F6D139467B
:10A048003046FFF751FF04460028EFD1204607B0FD
:10A05800F0BD0E24FAE700BF340303005C030300DD
:10A068002A0F0300B20D03003F0F03005F0F030028
:10A0780070B5264B264CE41AE408240444F0030483
:10A08800064686B00D4620462249FCF76FFC002E96
:10A0980039D008220021684604F0F6FF05236A46F5
:10A0A800F188F08BCDE90035FFF74CFE054608BB7B
:10A0B800F28B4FF6FF739A421FD01022014602A876
:10A0C80004F0E2FFF388ADF8083001238DF80A3078
:10A0D800BDF80230ADF80C3002A9019BF08BCDF829
:10A0E80010D00593FFF732FE0B490546024620467D
:10A0F800FCF740FC284606B070BD08492046FCF72E
:10A1080035FC0825F6E70E25F4E700BF3403030005
:10A118005C030300431003006A1003008A10030065
:10A1280073B5124B124CE41AE408240444F00304F7
:10A1380005460E4620460F49FCF718FCA5B1082233
:10A148000021684604F0A0FF01236A46E989E88BEC
:10A15800CDE90036FFF7F8FD20B9204632780649E8
:10A16800FCF708FC02B070BD0E20FBE734030300C7
:10A178005C030300021003002810030037B50F4BDF
:10A1880004460F48C01AC00800040D4640F00300FA
:10A198000C49FCF7EBFB74B108220021684604F077
:10A1A80073FF05236A46E18AE08BCDE90035FFF7A6
:10A1B800C9FD03B030BD0E20FBE700BF3403030028
:10A1C8005C030300B70F0300F7B53B4B3B4C028819
:10A1D800E41AE408240444F003040D46064638490A
:10A1E8002046FCF7C7FB2DB13388112B1FD003D8AD
:10A1F800102B0AD003B0F0BD502B26D0552BF9D127
:10A2080030492046FCF7B2FBF4E72F492046FCF71B
:10A21800ADFB2E492046FCF7A9FBB388EB8302A9C6
:10A22800032301F8043D2B6828469847E2E72849AC
:10A238002046FCF79BFB27492046FCF797FB4FF687
:10A24800FF73EB8302A90223EBE723492046FCF7BF
:10A258008DFB22492046FCF789FBF288EB899A425C
:10A268000BD102AF042307F8043D1D492046FCF733
:10A278007DFB2B68394628469847F2886B899A42B5
:10A28800B8D1338A022BB5D12B68002BB2D006F196
:10A29800120001F00BFD48B112492046FCF766FB9D
:10A2A80000238DF8043001A92B68BDE70E4920462C
:10A2B800FCF75CFB0123F4E7340303005C030300B1
:10A2C800C20D0300F70E0300E80D0300020E0300A1
:10A2D8001A0E0300370E0300520E03006E0E030021
:10A2E800840E0300AC0E0300D10E030076DF704726
:10A2F8007ADF70477CDF70478FDF7047FCF70CBD53
:10A3080038B50E4B0E4C0F49E41AE40824040546F0
:10A3180044F004042046FCF729FB2B786BB90A4962
:10A328002046FCF723FB094B3B211888FFF7DEFF8B
:10A3380018B1BDE83840FCF7EFBC38BD3403030062
:10A348005C030300C6120300E6120300502200203B
:10A3580038B50F4C0F4B1049E41AE408240405469D
:10A3680044F00400FCF702FB45B1032D0FD144F083
:10A3780003000A49BDE83840FCF7F8BA44F0030086
:10A388000749FCF7F3FABDE8384000F057BD38BD7F
:10A398005C03030034030300891203009E120300C8
:10A3A800B01203000388212B13B5044631D005D819
:10A3B800102B19D0112B0CD002B010BD3B2B3AD06A
:10A3C800562BF9D12348244B2449C01AC00800044D
:10A3D80037E0214B1F482249C01AC008000440F04A
:10A3E8000300FCF7C3FAE7E71B4B1A481D49C01ADC
:10A3F800C008000440F00300FCF7B8FA1A4BA18823
:10A408001A48198002F06CFC0028D5D0FCF784FCAF
:10A41800D2E7114B0F481649C01AC008000440F093
:10A428000400FCF7A3FA02A9002321F8043DA08840
:10A43800FFF762FFE8E70748074B0E49C01AC00854
:10A44800000440F00400FCF791FA1321A088FFF7FC
:10A458004DFFD9E75C0303003403030065110300D3
:10A46800031103001911030050220020902D002031
:10A478002C11030048110300FCF74EBC30B51D4BEE
:10A488001D4C1E49E41AE40885B0240444F0040075
:10A4980004ADFCF76BFA112305F80C3D184804F0DD
:10A4A80048FE174982B22846FFF724FF08B1FCF797
:10A4B80033FC082200210DEB020004F0E5FD114AEF
:10A4C8004FF0487302A8CDE90223FFF711FF44F0CB
:10A4D8000304054640B1FCF71FFC2A460A492046FA
:10A4E800FCF748FA05B030BD08492046FCF73EFAAB
:10A4F800F8E700BF340303005C030300BB1103004B
:10A50800D61103007C0C7C0CE4110300011203003B
:10A5180037B5154B154C1649E41AE40824040546CA
:10A5280044F00400FCF722FA08220021684604F0EF
:10A53800ABFD104A4FF0487328466946CDE9002321
:10A5480001F078FA44F00304054640B1FCF7E4FB57
:10A558002A4609492046FCF70DFA03B030BD0749E1
:10A568002046FCF703FAF8E7340303005C03030012
:10A57800BB1103007C0C7C0CE41103005512030092
:10A5880070B5264B264CE41AE40824040E4644F021
:10A598000404054623492046FCF7E8F93378042BE0
:10A5A8003BD8DFE803F0030F2119290020461E4994
:10A5B800FCF7DCF91D4B1888FFF7AAFFBDE87040CF
:10A5C80000F058BB20461A49FCF7D0F900F02CFBE4
:10A5D800BDE8704000F032BC20461649FCF7C6F9C9
:10A5E800BDE8704000F078BB20461349FCF7BEF97F
:10A5F800BDE8704000F018BB2046104C1049FCF72D
:10A60800B5F904F109012846FFF78AFD00F00CFBB3
:10A61800607ABDE8704000F0B5BA70BD340303003D
:10A628005C030300061303002413030050220020D8
:10A638004E13030079130300A0130300EC2A002033
:10A64800CA13030008B50A480A4B0B49C01AC008C8
:10A65800000440F00400FCF789F90021074802F0E3
:10A66800A7F918B1BDE80840FCF756BB08BD00BF04
:10A678005C03030034030300781203007C2D0020E0
:10A6880007B5124B12481349C01AC008000440F01D
:10A698000400FCF76BF902A90F4B41F8043D0F4881
:10A6A80002F00CFB08B1FCF737FB0D490D4B0B60B2
:10A6B8001123CB730B744B740B48FFF771FC08B173
:10A6C800FCF72AFB03B05DF804FB00BF340303006A
:10A6D8005C0303003F16030005A30200902D002031
:10A6E800EC2A002089A50200582D002000B5154B42
:10A6F80015481649C01AC008000489B040F0040083
:10A70800FCF734F91C22002101A804F0BDFC002349
:10A718000522CDE90132ADF812301E228DF8143031
:10A728000B4B0392069301220A4B8DF8102001A8C7
:10A73800079301F04FF908B1FCF7EEFA09B05DF89C
:10A7480004FB00BF340303005C03030099110300FA
:10A7580009A3020081A4020013B5114B1148124944
:10A76800C01AC008000440F00400FCF7FFF804F029
:10A77800EFF808B1FCF7D0FA02AC002344F8043D26
:10A788000120214604F0AAF908B1FCF7C5FA2046D1
:10A7980004F056FA08B1FCF7BFFA02B010BD00BFCA
:10A7A800340303005C0303008211030007B5204B48
:10A7B80020482149C01AC008000440F00400FCF7F2
:10A7C800D5F803F05DF808B1FCF7A6FA05220021D8
:10A7D800684604F059FC9DF8003043F00103032259
:10A7E80003F0F10362F306136FF3C7138DF800301B
:10A7F80007238DF8013010238DF802309DF80330BF
:10A8080013438DF803309DF80430684613438DF8E0
:10A81800043003F0CFF808B1FCF77EFA074803F0DC
:10A82800B1F808B1FCF778FA03B05DF804FB00BF93
:10A83800340303005C030300F6130300DDA80200E1
:10A8480000B5184B18481949C01AC0080004ADB023
:10A8580040F00400FCF78AF8AC22002101A804F0BB
:10A8680013FC022306228DF8043001238DF80630EC
:10A878008DF807208DF880304FF4A07248F6A04379
:10A88800CDE9232301A90A4B0A482A9300F032FE96
:10A8980008B1FCF741FA0121064800F028FE2DB066
:10A8A8005DF804FB340303005C030300EB100300B2
:10A8B80059A30200002B002008B50321044800F02A
:10A8C80098FE18B1BDE80840FCF726BA08BD00BFDD
:10A8D800002B002037B5344B344C3549E41AE408D2
:10A8E8002404054644F003042046FCF73FF82B787F
:10A8F800112B40D8DFE803F00949101D1F3F2147FD
:10A908004B384D412F3F4F5153552A49204603B0EC
:10A91800BDE83040FCF72AB8688801F051F92A7A76
:10A92800009225496B8802462046FCF737F82349F0
:10A93800ECE72349EAE72349E8E723492046FCF7FF
:10A9480015F8FDF7E3F830F0080314D003B0BDE8BC
:10A958003040FCF7E1B91D492046FCF707F803B081
:10A96800BDE83040FFF7A8BF20461949FBF7FEFFB6
:10A9780028690028EAD103B030BD16492046FBF704
:10A98800F5FFA868F5E71449F8E71449BEE7144944
:10A99800BCE71449BAE71449B8E71449B6E71449BB
:10A9A800B4E71449B2E700BF340303005C030300B3
:10A9B8000F1403002D14030056140300961403000B
:10A9C800B0140300C7140300E2140300F6140300D4
:10A9D80014150300331503004D1503006415030017
:10A9E8007A1503009C150300B9150300D715030059
:10A9F800FA1503001A16030010B50146044605228D
:10AA0800064804F018FB21460548FFF731FB18B14A
:10AA1800BDE81040FCF780B910BD00BFF02A002047
:10AA2800582D002007B5084B186800901B79074877
:10AA38008DF804306946FFF7A1FB08B1FCF76CF903
:10AA480003B05DF804FB00BFE5100300582D00209B
:10AA5800022873B52AD1164B164C174D17490126F3
:10AA68004FF480221E60C3F8FC22154BE41AE40858
:10AA7800240444F00400FBF779FF2A78114944F0D4
:10AA88000300FBF777FF2B7833442B70FFF75CF854
:10AA98003046FFF7F7F86846FFF7DEF86846FFF735
:10AAA800ABFF0020FFF7EEF8FFF748F802B070BDE3
:10AAB800084002405C030300522200209316030062
:10AAC80034030300A816030008B54FF08043D3F8F9
:10AAD8001834DB030DD4FEF74DF9064B0648074939
:10AAE800C01AC008000440F00300BDE80840FBF7A6
:10AAF8003DBF08BD340303005C0303006616030072
:10AB080008B50748074B0849C01AC008000440F0B8
:10AB18000400FBF72BFFBDE80840FFF7D5BF00BFD7
:10AB28005C030300340303005A16030007B50F4BF8
:10AB38000F481049C01AC008000440F00400FBF791
:10AB480015FF0D4B0D4A18689B880090ADF804302E
:10AB5800694640F6FF730A48ADF80030FEF726FD57
:10AB680008B1FCF7D9F803B05DF804FB340303001F
:10AB78005C030300881603005416030059AA020058
:10AB88008016030030B5224B224C2349E41AE4080E
:10AB9800240444F0030491B005462046FBF7E6FE82
:10ABA8002A461E492046FBF7E5FE202200210DEB30
:10ABB800020004F069FA0A221E23CDE900233C2191
:10ABC8004FF49673CDE902134FF416704FF4E16316
:10ABD800CDE904034FF4616C44F25063CDE906C338
:10ABE80010AB03EB85050E4955F8405C20462A4614
:10ABF800FBF7C0FE0123EA0002210A48FEF736FDF2
:10AC080020B111B0BDE83040FCF786B811B030BDB6
:10AC1800340303005C030300D3160300E3160300A8
:10AC28000E1703008016030010B50C4C23789BB157
:10AC38000B48FEF70FFD002323700A4B0A480B4907
:10AC480001221A700A4BC01AC008000440F0030021
:10AC5800BDE81040FBF78ABE10BD00BF9C2D002048
:10AC6800801603009D2D00205C0303004C17030091
:10AC78003403030038B5114B114C124D1249E41A34
:10AC8800E408240444F003042046FBF76FFE2B7805
:10AC98009BB90E48FEF7D2FC0D4B0C484FF48022AE
:10ACA800C3F804230121FEF723FD01232B7020465E
:10ACB8000849BDE83840FBF759BE38BD34030300E6
:10ACC8005C0303009C2D0020361703008016030048
:10ACD8000040024040170300F8B5134B134C144FC3
:10ACE8001449E41AE408240444F003042046FBF75A
:10ACF8003DFE3E78BEB9104D2B78A3B10F48FEF744
:10AD08009DFC0F4B0D484FF48022C3F8042301210A
:10AD1800FEF7EEFC01233B702E7020460949BDE882
:10AD2800F840FBF723BEF8BD340303005C030300BF
:10AD38009C2D0020B91603009D2D002080160300CD
:10AD480000400240C51603003FDF704708B50948B8
:10AD5800094B0A49C01AC008000440F00400FBF778
:10AD680005FEFDF711FE18B1BDE80840FBF7D4BF9A
:10AD780008BD00BF5C030300340303005917030038
:10AD880008B5FBF787FC18B9BDE80840FDF712BE07
:10AD980008BD0120FFF7D8BF08B50B480B4B0C497D
:10ADA800C01AC008000440F00400FBF7DFFD4FF4B0
:10ADB80000410020FBF714FC08B1FBF7ADFFBDE82C
:10ADC8000840FBF745BB00BF5C03030034030300E6
:10ADD800911703004FF0A0434FF0005270B50C4696
:10ADE800C3F80825054638B10B4E46F001064FF466
:10ADF8007A40B047013DFAD14FF0A0434FF00052DE
:10AE0800C3F80C253CB1044D45F001054FF47A40D8
:10AE1800A847013CFAD170BD801703004FF0A0434A
:10AE280003220821C3F80C27C3F808154FF4FA7158
:10AE3800C3F874270846FFF7CDBF000008B50A48D5
:10AE48000A4B0B49C01AC008000440F00300FBF786
:10AE58008DFD00214FF4FA60FFF7BCFF4FF0A043CF
:10AE68000822C3F80C2508BD5C0303003403030063
:10AE7800861703000369C1688B429DBF8268D21898
:10AE880002F1FF3203F1FF3394BF501A581A70478A
:10AE98002DE9F041D0E902670446F61B4068964266
:10AEA80088461546384405D904F0C5F83D44E560A0
:10AEB800BDE8F0813246AD1B04F0BDF82A4608EB28
:10AEC8000601606804F0B7F8F1E72DE9F843C568B2
:10AED8000646894617464FF000083469B36870681B
:10AEE800A54228BFE418013C621B5C1BBC4228BF7A
:10AEF8003C46944228BF144649462844224604F05A
:10AF08009AF8B3682544AB4208BF00253F1BA0440C
:10AF1800A144F560E1D14046BDE8F88310B5114C75
:10AF2800114AA2610223C4E90433104BE361A2640D
:10AF38004FF400730E4A2362E264002310220D4985
:10AF4800A362E01D6362E362A3656365E36522654E
:10AF580004F0CDF80849204604F0C9F82023A3716D
:10AF680010BD00BFA02D0020A5170300282E00202B
:10AF7800182E0020AE170300B2170300F8B5184CBE
:10AF8800182300FB033503FB00402544C46A012C49
:10AF98000F46164611D003D3022C1BD000240AE01A
:10AFA8002846FFF767FF864205D8324639462846C5
:10AFB800FFF76EFF34462046F8BD2846FFF75AFFD4
:10AFC8008642344628BF0446224639462846FFF7BB
:10AFD8005FFFF0E72846BDE8F840FFF776BF00BFFF
:10AFE800A02D0020FFF79ABF6DDF704779DF70470B
:10AFF8007DDF704764DF70472DE9F74F0C9CBDF883
:10B0080034B02788002580468A4691462E46B8F8EF
:10B018000020B2420BDC35B12288013AD21B92B231
:10B02800FF2A39D8DA55002003B0BDE8F08FD8F8E8
:10B03800042052F82600019000220DF1030101A816
:10B04800FFF7D8FF0028EFD19DF803204A4521D10A
:10B058002288002D14BF0020022002EB09010144C0
:10B06800594519DC3DB9013292B2228003F802A099
:10B0780022880132228022880DF103011A4401A896
:10B08800FFF7B8FF0028CFD121889DF803200A4494
:10B09800228001250136BAE70C20C5E72DE9F341E6
:10B0A800089CBDF824501746CDE900450222064603
:10B0B800FFF7A2FF48B9102239463046CDE90845C6
:10B0C80002B0BDE8F041FFF797BF02B0BDE8F081DC
:10B0D8002DE9F04F00231688138090F82D3085B0A5
:10B0E80007460D46144653B3082E01D80C2026E116
:10B0F80002A8FFF779FF002840F021811388082271
:10B10800CA54238801339BB21B222380CA54208847
:10B11800013080B2208006220DF10901284403F095
:10B128008AFF23889DF8082006339BB212F0FE029E
:10B1380018BF01222380EA54238801332380BB7877
:10B14800FBB123880433B342D0D802A8FFF74EFFDF
:10B15800002840F0F48023880322EA54238801332E
:10B168009BB219222380EA542388BDF808200133B2
:10B178009BB2E9182380EA54120A4A7023880233E2
:10B188002380FA789AB12388D91CB142AED802211B
:10B19800E954238801339BB201212380E954238891
:10B1A8000B449BB22380EA5423880B4423807A689B
:10B1B800AAB12388D91CB14298D8022192F900205B
:10B1C800E954238801339BB20A212380E954238858
:10B1D80001339BB22380EA542388013323803B89BF
:10B1E800002B40F0A0803B8A5BB1CDE900462B469E
:10B1F8000722032107F11000FFF750FF002840F055
:10B208009E803B8B5BB1CDE900462B46152214216D
:10B2180007F11800FFF742FF002840F090803A6AD3
:10B22800002A40F08F80D7F82480B8F1000F30D082
:10B23800B8F804302188981C8A1C0244B2423FF6B0
:10B2480055AFFE283FF652AF03336B5423880133C2
:10B258009BB2FF222380EA54238801339BB22380C8
:10B26800B8F80020EA54E918120A4A702088023017
:10B2780080B22080B8F804205AB1D8F80810002904
:10B288006AD0284403F0D7FE2388B8F80420134472
:10B29800238097F82C30002B40F0998038780028CC
:10B2A8004DD03B88012B57D021888A1CB2423FF6EB
:10B2B8001DAF012805D17B7802330B449E42FFF471
:10B2C80015AF023E761A04A9B6B221F8086DA8187F
:10B2D800FFF78EFE98BB3978BDF80820022900F0E8
:10B2E800BB807B78934202D3B24240F2B3800129FB
:10B2F80040F0B4809BB29E42C0F0B080ADF80830F8
:10B308000821BDF80830FE2B3FF6F0AE2288013345
:10B31800AB542288013292B22280A9542288134465
:10B32800238000200BE0CDE900462B4606220221AF
:10B3380007F10800FFF7B2FE00283FF454AF05B04C
:10B34800BDE8F08FB4F800C00CF10603B3423FF635
:10B35800CDAE1188052901D80720F0E76FF4486EB3
:10B3680001EB0E039BB24FF27D3E7345F4D953882F
:10B37800052BF1D96FF44860181880B27045EBD9E5
:10B388004FF6FF70814203D0834201D09942E3D83F
:10B39800052305F80C30238801339BB21221238042
:10B3A800E954238801339BB223801188E954E818B3
:10B3B800090A4170238802339BB223805288EA54D9
:10B3C800E918120A4A702388023323802BE7BB6AE4
:10B3D800002BC1D04FF000094FF00C0A4FF0160BAC
:10B3E80097F82C305FFA89F293427FF657AFB96A23
:10B3F8000AFB02F201EB0208B8F80430981CFE2898
:10B408003FF674AE208803332B54238801339BB254
:10B41800238005F803B0238801339BB223808A5A1E
:10B42800EA54E918120A4A702088023080B2208053
:10B43800B8F804205AB1D8F8081000298CD028444C
:10B4480003F0F9FD2388B8F804201344238009F198
:10B458000109C5E7092154E7B242FBD9ADF80860F4
:10B468004EE770B5C0B14AB116880024B44203D380
:10B4780005196D789D4208D0A14201D800200BE043
:10B48800055D01352C44A4B2F0E7A142F6D9A31C0E
:10B498001380005D013880B270BD37B502AC00235F
:10B4A80024F8023D134622460546FFF7DAFF10B19D
:10B4B800BDF80600284403B030BD72DF704773DF63
:10B4C800704738B5012204460D46B0F83812D0F856
:10B4D8003402FFF7E2FF00B1057004F13C0204F505
:10B4E8000D7104F15400BDE83840FFF7E6BF80F85D
:10B4F80030107047F8B504460F46002975D000286B
:10B5080073D091F87A301BB191F89830002B6ED136
:10B51800D7F8A030042B6AD0D7F89C30042B66D01B
:10B5280007F178060FCE4FF0000C251D84F802C0F5
:10B538000FC50FCE0FC596E8070085E8070084F809
:10B5480030C0D7F8A4306363D7F8A830A3634FF6A8
:10B55800FF7504F50D73C4F84432A4F84852072265
:10B56800614604F24A2003F08FFD23780BB984F872
:10B57800545094F8243004F15501C4F8341283B3BC
:10B58800EE23A4F8383204F50E723846FFF7A0FD12
:10B5980030BB94F8243004F2431107F13C00C4F89E
:10B5A8003C1203B3EE23A4F8403204F51072FFF7FF
:10B5B8008FFDA8B9A269A4F8482001236269206414
:10B5C80084F850006264014684F8513084F83C30B5
:10B5D80004F13C0204F15400FFF76FFF00B9237037
:10B5E800F8BD1F23CDE71F23DDE70E20F8E707206E
:10B5F800F6E7F8B5077804460D46002F00F00581F8
:10B6080000F24A26A17007220021304603F03CFDD3
:10B61800E38813B1A378012B04D0E3794BB1A37865
:10B62800022B06D1636BA3B1012284F851220820B2
:10B638009847334604F5147113F8012F12B999424B
:10B64800FAD117466B1E032B53D8DFE803F0050B1E
:10B658000F1284F85132ECE7A3791BB194F8243027
:10B6680003B95FB9E3790BB1002F44D1237A002BDA
:10B6780043D1637A002B0CBF00250425636BA570AA
:10B68800002B3CD0033D012D39D86279002A36D0F1
:10B6980094F85222002A32D184F85422012284F8E4
:10B6A80053220720984704F13C0518220021284618
:10B6B80003F0EAFCE36A94F824200121581E88422A
:10B6C80088BF0B4684F83C1084F8513032B1884268
:10B6D80096BFA36A84F8521084F85230A1780023E8
:10B6E80084F8503004291BD8DFE801F0770D2235A3
:10B6F80059000025C2E70225C0E70325BEE700235D
:10B7080084F85332CFE7C4F84432C4E91063022303
:10B71800012284F83C30802384F83120A4F8483092
:10B72800A378002B5CD1636B002B6AD1002067E003
:10B73800022384F8313062B1072384F83C3023694E
:10B74800A4F848300023C4F84432E36826646364EC
:10B75800E6E70323F1E763696364A369A4F8483063
:10B7680012B1062384F83C306379B3B194F85232AD
:10B778009BB994F8543283B1022384F850300421E1
:10B788002046FFF79EFE0028CAD1052384F83130F1
:10B7980004F50D73C4F84432C2E70323F6E7E369FE
:10B7A8006364236AA4F8483012B1062384F83C3055
:10B7B800637983B194F852326BB994F8543253B127
:10B7C800022384F8503004212046FFF77AFE00282F
:10B7D800A6D10623DAE70423D8E784F831309FE7B7
:10B7E8002A46D4F8441204F15400FFF766FE38B92B
:10B7F80094F8301094F85400FFF761FE002892D0B6
:10B80800F8BD94F83100984790E70820F8E70388D6
:10B81800112B10B50C460AD0262B1FD0102B05D1A2
:10B82800C37B012B02D18388A1F8483210BD0022C6
:10B83800838881F85222B1F848229A42F6D10B79CE
:10B84800002BF3D101212046FFF7D3FE0028EDD0CD
:10B85800A36B002BEAD0BDE810401847037A013BE0
:10B86800012BE3D889780523013191FBF3F303EB2E
:10B878008303C91AC9B2E6E7704775DF70477ADFF4
:10B8880070477BDF70470000034B1A8882420CBF69
:10B8980018460020704700BF4430002000230B7278
:10B8A800064B5B6907B533B10122ADF806008DF888
:10B8B800042001A8984703B05DF804FB2830002055
:10B8C8008388B3F5FA7F28BF6FF4F97230B528BFC3
:10B8D8009C1805884A8838BF002495420CD84088AF
:10B8E800904209D38A88A24206D303F2F310904209
:10B8F80034BF0020012030BD0020FCE70388112B55
:10B90800E0B501464BD002D8102B22D0E0BD122B57
:10B918004ED0502BFAD12D4BC288DB899A42F5D1F3
:10B92800038A022BF2D186883046FFF7ADFF054621
:10B938000028EBD001F1120000F0B8F90028E5D09A
:10B948006B7A002BE2D029463046BDE8E040FFF78D
:10B95800A5BFC37B012BD9D14FF6FF70FFF794FF2A
:10B968001A4F054630B9BB69002BCFD00420BDE87B
:10B97800E0401847164A8E88068000230372136831
:10B98800C5F80A300A30536843601031FFF798FF52
:10B99800FB896872002BB9D10028D4D1B6E780881A
:10B9A800FFF772FF0028B1D04FF6FF730380ADE7B1
:10B9B80086883046FFF768FF05460028A6D008317C
:10B9C8000A30FFF77DFF6872E6E700BF28300020E5
:10B9D80058300020F8B5064610B305460FCD114F74
:10B9E8003C460FC495E8070084E8070030680E4B12
:10B9F8003B6078B1FFF743FF58B931680A681A60AD
:10BA08004A685A60094B4FF6FF721A80084A5A6012
:10BA18000020F8BD1846FFF734FF0028F9D1F1E7F8
:10BA28000E20F6E72830002058300020443000204F
:10BA38006030002038B50C460546FFF725FF0B4B54
:10BA4800002908BF1C46034668B121462846FFF76F
:10BA580014FF38B901221A812268C3F80A206268E3
:10BA6800C3F80E2038BD43F20200FBE7583000202F
:10BA7800F7B5174601900E4691B1019C6CB10025AF
:10BA88002C46294601A8FCF75EF918B13946A8B238
:10BA9800B04701340135142DF3D1204603B0F0BD71
:10BAA8000C46FAE773B50191019C06466CB1002576
:10BAB8002C46294601A8FCF746F918B106EB4403C1
:10BAC80001349D800135142DF3D13046346002B025
