:020000022000DC
:106000000000012079630200616302006363020003
:10601000656302006763020069630200000000001C
:106020000000000000000000000000006B630200A0
:106030006D630200000000006F63020071630200E4
:106040002596020073630200859802008DA102006C
:106050007363020073630200099702007363020016
:1060600073630200736302007363020073630200D0
:1060700073630200736302007363020073630200C0
:1060800073630200896F020073630200736302008E
:106090002570020073630200F9F3020073630200CB
:1060A0007363020073630200736302007363020090
:1060B0007363020073630200000000000000000030
:1060C0007363020073630200736302007363020070
:1060D0007363020073630200736302000000000038
:1060E00000000000000000000000000000000000B0
:1060F00000000000000000000000000000000000A0
:10610000000000000000000000000000000000008F
:10611000000000000000000000000000000000007F
:10612000000000000000000000000000000000006F
:10613000000000000000000000000000000000005F
:10614000000000000000000000000000000000004F
:10615000000000000000000000000000000000003F
:10616000000000000000000000000000000000002F
:10617000000000000000000000000000000000001F
:10618000000000000000000000000000000000000F
:1061900000000000000000000000000000000000FF
:1061A00000000000000000000000000000000000EF
:1061B00000000000000000000000000000000000DF
:1061C00000000000000000000000000000000000CF
:1061D00000000000000000000000000000000000BF
:1061E00000000000000000000000000000000000AF
:1061F000000000000000000000000000000000009F
:10620000364937480A1A02D0072291438D4635494C
:1062100035480A1A06D00722914381F309880222E1
:1062200082F3148831483249324A00F045F8324846
:106230003249334A00F040F832483349334A00F0DB
:106240003BF833483349344A00F036F83348344990
:10625000344A00F031F834483449354A00F02CF81B
:1062600034483549354A00F027F835483549002289
:1062700000F02DF834483549002200F028F8344861
:106280003449091A082903DB002202600430016046
:10629000314A90471F482049884205D0026804309F
:1062A00003B4904703BCF7E700208646EC46002085
:1062B00000212A4A9047FEE7884207D0521A05D0AB
:1062C000037801300B700131013AF9D170478842EF
:1062D00002D002700130FAE7704700000000012090
:1062E00000E00020000001200000012078370300BA
:1062F0004422002090220020D8630200D8630200CC
:106300001C0C0300783703004422002044220020A4
:10631000A40D0300A40D0300A40D0300A40D0300AD
:10632000A40D0300A40D0300A40D0300A40D03009D
:1063300078370300C4370300902200209022002009
:106340009022002018360020183600201C3600202D
:106350001C3600201C560020A163020001AD020083
:10636000FEE7FEE7FEE7FEE7FEE7FEE7FEE7FEE705
:10637000FEE7FEE7704700BF1048804710484FF027
:106380000701884385460F4880470F48016841F45C
:1063900070010160BFF34F8FBFF36F8FFFF730BF06
:1063A0000A480B490B4A884207D0521A05D0037895
:1063B00001300B700131013AF9D170477563020069
:1063C000000001205D91020088ED00E0900D0300C7
:0863D0003022002044220020CD
:1063D80000487047103600207047000007B5044B8E
:1063E8000093044A402300F032F803B05DF804FB40
:1063F80001640200912200202DE9F84389461446E1
:10640800B2B10F4B0F4E0325002743F00108224677
:1064180009EB0701002005F029FA0744241A48B9B6
:1064280033782BB14FF47A40C047013D02D1357023
:10643800BDE8F88301233370002CE8D1F8E700BFEA
:10644800B00D030090220020704705F043BAF0B564
:1064580095B01C46164608460D4602F091FD1A9B5B
:106468000D93CDE9086400242346082205A928468F
:106478000A948DF82C400C9402F0A0FD079B02931F
:10648800BDF81830ADF80C30BDF81A30ADF80E3044
:106498009DF814308DF8114003F00302012A1DD134
:1064A800BDF81440059EC3F3C203C4F383148DF8EA
:1064B8001030A20008230EA9284602F07FFDC6F37B
:1064C800952608AB0093224602AB0EA9304600F091
:1064D800EFFB284602F058FD15B0F0BD022AF8D1AE
:1064E800BDF81640C3F3C203A4098DF8103008277D
:1064F800082C264628BF08263B4632460EA92846C1
:1065080002F05CFDA41B08AB02AA31460EA8374472
:1065180000F032FC002CEBD1DBE70000014B01223C
:106528001A707047122300207047000070B50E4D96
:1065380006460FCD88B06C460FC495E80F0084E876
:106548000F0008A9002E4FF00603084A41F8203D25
:1065580008BF0022064802F0EBFF08B100F062FC19
:10656800044B1E7008B070BDC40D03002565020001
:1065780044220020D122002007B5044B0093044A8E
:106588004023FFF764FF03B05DF804FB9D6502003C
:10659800D222002038B50D4B0D4D002018700D4843
:1065A80004782D5DD2B21C4665B1043003F09EFD1F
:1065B80008B100F037FC084B1A7812B12378002B89
:1065C800FBD038BD0C3003F08BFBF1E71223002021
:1065D800D42B002044220020D122002008B50848EE
:1065E800084A0378D35C3BB1043003F01BFD00205C
:1065F800BDE80840FFF79ABF0C3003F00DFBF6E743
:1066080044220020D42B00200120FFF78FBF000078
:1066180038B50A4DFFF719FF0421284600F0B6FAED
:10662800074B01245C71FFF7EFFF042105F110000F
:1066380000F0ACFA034B5C7138BD00BF700D03006D
:106648005822002060220020037813F0040216D09C
:1066580003F00303012B03D0022B09D0012070475C
:106668000A6800880232C0F3831002440A60F5E722
:106678000B684288023303EB92130B60EEE7104677
:10668800704700002DE9F04F89B00546861C08A820
:10669800484C019200230F4600F8113D00F0AAFE75
:1066A80023683B60D4E901231344226801339B1A11
:1066B80004F21C4704F5836A04F21448B3421AD35F
:1066C800019A0023002A6DD0012262F3010343F0EE
:1066D800040365F389132168A2689DF80F000A4036
:1066E80003320E4444F82230266000F0A7FE012051
:1066F80009B0BDE8F08F0121384601F0C3FE5046CD
:1067080001F0D9FE404601F0D6FE0DF1200960687F
:10671800D4F808B049F8100D00EA0B00033004EB78
:1067280080004946FFF790FF049BB0B90BEA0302CB
:1067380004EB8202D16805919A1C013303EA0B0B22
:1067480004EB8B0C01F00303012B0492DCF80CB072
:1067580020D0022B04D083460BE00BEA0300DDE7D0
:10676800BDF816309B0903334FEA1B4B02EB93032A
:106778000493404601F0A2FE08B1049B63605946A9
:10678800384601F07FFED4E901231344226801331F
:106798009B1A93E7BDF81430C3F383134FEA1B4BDE
:1067A8001344E5E7022262F3010343F0040365F3AF
:1067B8009F5390E7E42300200B4B0C48FF2210B5B1
:1067C8009A600022C3F81824C3E90022C3F81424ED
:1067D80083F8202402F08DFB044610B9044802F027
:1067E80037FC204610BD00BFE4230020A40C0300A2
:1067F800140E030030B50A4C71B10A4A0A49121B3B
:10680800D20800239A4201D1002030BD31F823502C
:10681800854202D00133F5E7034654F83300F4E724
:10682800B80C0300700D030044220020094B013905
:1068380003EBC000032909D8DFE801F00A020406C7
:1068480004207047007970474079704700207047EE
:1068580002207047B80C0300034BD3E90030C31A79
:1068680058425841704700BFE42300202DE9F04307
:1068780087B0FFF7F1FF0646002840F0FC807F4D07
:10688800C5F81804BFF34F8F6868AC6806AF47F8BF
:10689800100D2040033005EB80003946FFF7D4FE89
:1068A800029B18B1D5F81824002A5FD004EA030225
:1068B800991C013305EB8202234005EB8303D26860
:1068C800DB68049302F00303022B0392029162D166
:1068D800BDF80E306A484FEA9318B8F1500FC14618
:1068E80028BF4FF0500969F38F1309F10801ADF87B
:1068F8000E3002F016FB0746002800F0A78002F0D1
:106908003FFB03A900230822384602F04CFB0299FA
:1069180024EA01060136B600B14535D95FFA89F98E
:106928007EB3F6B2A9EB0609214003315FFA89F478
:10693800B146544E05EB810108234A46384602F019
:1069480032FB36B109F1080322463146384602F0D7
:106958002AFB029B08F1030803EB98030293D5F87E
:106968001834002B4BD1D5F810445BE02A689A42C2
:1069780004D86A60304607B0BDE8F08304EA030033
:1069880088E740493446D7E72140033108234A467F
:1069980005EB8101DAE7012B58D1BDF80C303848F6
:1069A800C3F38311062928BF062161F38913023135
:1069B8008900ADF80C3002F0B4FA0746002845D03B
:1069C80002F0DEFA0023082203A9384602F0EBFAA7
:1069D8000026BDF80C20C2F38312B31C96424FEA7E
:1069E8008303BCD202994A1C21400331029205EB71
:1069F80081010422384602F0D6FA0136E9E7384622
:106A080002F0C2FAFFF728FF80F00100C6B2B1E732
:106A1800E3685B7923B1236839461B6820469847A9
:106A2800E3681C68002CF3D1384602F0ADFA06A8DA
:106A380000F8114D00F0DEFCD5F818340BB9029BB4
:106A48006B609DF8070000F0F9FCDBE7D5F810440F
:106A580054B90D4B0D480E49C01AC008000440F047
:106A6800020000F06FF8CDE7236820469B6898473E
:106A7800E3681C68ECE700267CE700BFE4230020FD
:106A8800A40C0300F0230020B80C0300E80C03005A
:106A9800200E03002DE9F74F284C80460F469246FA
:106AA80001A9012218469B46D4F80890FFF7EAFD91
:106AB80088B3019D0026A91C5E4506EB010234D16E
:106AC80000211F4801F09DFC80F310006A1C02EAB7
:106AD800090204EB8202000405EA0903033340EAD1
:106AE8001840D06014F8232068F3C50204F8232066
:106AF80034F8232066F3891224F8232054F823203D
:106B0800012167F39F2244F8232061F301026FF308
:106B1800820204F8232094F820341BB1FFF7A6FE64
:106B28000028FBD103B0BDE8F08F09EA020204EBAC
:106B380082025AF82630D3600136BDE7E4230020EC
:106B48000028002000231A46FFF7A4BF13B502ACA3
:106B5800012344F8042D2246FFF79CFF02B010BD24
:106B680007B5CDE9002302236A46FFF793FF03B078
:106B78005DF804FB1FB5CDE90123069B039301AA29
:106B88000323FFF787FF05B05DF804FB30B50F4915
:106B9800D1F81024002314463CB9C468237152B9B3
:106BA800C1F810042260184630BDE46825799D427A
:106BB80006D02468F0E7D268116821601060F2E717
:106BC80001330A2BE7D14FF0FF33ECE7E423002031
:106BD800094A38B50123D2F8104482F820341D46FA
:106BE80004B938BDE3685D71236820465B6898473F
:106BF800E3681C68F4E700BFE4230020037A052B50
:106C080010B50C460FD0437A23B1084A08492046EC
:106C180001F0B5FC0749204601F0B1FC2046BDE86B
:106C2800104001F0A1BC002AF8D0F3E76B0E030076
:106C3800700E0300891F0300C38873B504460D4610
:106C480033B1144A00921449144A284601F097FCBB
:106C5800217A05291CD0637A4BB1A088FFF7E6FD9D
:106C68000F4B104953F82020284601F088FC227A5F
:106C78000D4BA08853F822600021FFF7BBFD0B499C
:106C880003463246284602B0BDE8704001F077BCA2
:106C980002B070BD6B0E03007B0E0300730E030081
:106CA800380E0300700E0300A00E0300930E0300BD
:106CB8002DE9F04385B01F460C9D002306460C467F
:106CC800904695F80C902B7329463846FFF7B4FF89
:106CD800B8F1060F09D8DFE808F00412181F2833A6
:106CE80040003146284601F04AFC00222946384631
:106CF800FFF784FF85F80C9005B0BDE8F0832268A3
:106D08003146284601F03BFCEFE7D4E90023314641
:106D1800284601F034FCE8E7A36800933146D4E93B
:106D28000023284601F02BFCDFE7E3680193A36802
:106D380000933146D4E90023284601F020FCD4E72B
:106D480023690293E3680193A36800933146D4E969
:106D58000023284601F013FCC7E7636903932369FE
:106D68000293E3680193A36800933146D4E90023B2
:106D7800284601F004FCB8E708292DE9F84F8046B9
:106D88000E4617461C4636D8002593F80C901D73FE
:106D980019461046FFF750FFDFF87CA0DFF87CB0FB
:106DA800AE422AD918F805205946204601F0E7FBDB
:106DB8000135082DF4D11649DFF864B0204601F0FA
:106DC800DEFB0025AE421DD918F805A0504608F094
:106DD80081FD002814BF52462E225946204601F054
:106DE800CEFB0135082DEDD1012221463846FFF7AB
:106DF80005FF84F80C90BDE8F88F5146204601F055
:106E0800BEFBD5E70349204601F0B9FBE9E700BF1F
:106E1800660E0300640E0300620E03005C0E03009E
:106E2800680E03001FB50021039001AA44F2010077
:106E3800CDE9011100F004F805B05DF804FB00008D
:106E480010B572B6FFF7C4FEFFF710FD0028FBD19E
:106E5800104B114C1149E41AE408240444F00100D1
:106E6800FFF770FE0E4B1B68DB0700D500BE0D490F
:106E780044F00200FFF766FEBFF34F8F0A490B4B41
:106E8800CA6802F4E0621343CB60BFF34F8F00BFC0
:106E9800FDE700BFB80C0300E80C0300FF0E030079
:106EA800F0ED00E00B0F030000ED00E00400FA0530
:106EB800094A537891780133DBB2994208BF00231D
:106EC800117899421FBF03705078182303FB0020E4
:106ED80014BF043000207047A028002073B5054671
:106EE80002A8002400F8014D0E4600F083FA0DF1C7
:106EF8000600FFF7DDFF90B106700A4B9DF80620EB
:106F080045605A709DF8070000F098FA24B9064BBE
:106F18004FF48012C3F80021204602B070BD04244B
:106F2800F0E700BFA028002000E100E0024B4FF48A
:106F38003C6043F001031847200F030038B50C4BA1
:106F48000C4C4FF40032C3F8802001254FF48033F5
:106F5800C4F84833C4F808336560FFF7E7FF064B09
:106F6800A56000241C60FFF7E1FF044B1C7038BDCE
:106F780000E100E000100140BC290020AD290020FC
:106F8800F8B51F4B1F491B680025C1F84051C1F8CF
:106F98004451C1F84851C1F84C51C1F80051C1F8E9
:106FA80004514BB3D1F8044517490968641A24F011
:106FB8007F442F461A68A24209D8A41A15441A7C9D
:106FC800DE691AB11F74D3E905209047AEB90F4B9B
:106FD8000F4A197813788B4205D10133DBB2022BA3
:106FE80008BF0023137012780A4B43F822500A4B4B
:106FF8004FF48012C3F80021F8BD3346DAE700BF2A
:10700800C029002000100140BC290020B829002018
:10701800B9290020B029002000E100E02DE9F74F50
:107028009E4A9F49137809789E4D99423CD0013376
:10703800DBB2022B08BF002313709B4912789B4BCD
:107048000F6853F822003B1823F07F4300220B609F
:107058002B6816461446944613B942B12B6006E0D5
:10706800196881420ED902B12B60091A19604FF0D4
:1070780001082B68DFF83CA200930027BEB9DFF8AF
:107088003CB260E0401A0C44D968C3F800C0D3F899
:107098001CE031B13A1922F07F42C3E90121DE61D7
:1070A8001E4601227346D7E70026B046E1E734467C
:1070B800F6697D4A63681268DFF804C2A068991A05
:1070C80021F07F41614500F2A58001442160012241
:1070D80022742A680023C4E90133E361002A40F0DE
:1070E800A2802C60CAE75A1C9BF80210D2B29142C7
:1070F8008BF8002004BF00228BF80020182202FB26
:1071080003B32A6819799C68022974D003297ED0B0
:10711800012918D1217CB1B9DA6862601A69A260C4
:107128005A699B69A361624BE2601B78002BC0D04F
:107138006160BEE79C4200F093809946DB69002BB2
:10714800F8D1002323749BF800309BF801209A4261
:10715800C9D12B682FB9009A934202D1B8F1000F18
:1071680043D0002B79D0D3F800A0524D4E4BD5F820
:1071780004751C68DFF84C813E1B98F8003026F037
:107188007F4603369BB94FF48033C5F84433C5F8BE
:107198000433494B4FF400324FF00109C3F8802102
:1071A8001A60C5F80090FFF7C1FE88F80090B24554
:1071B8002CBF5444A41924F07F44C5F84045D5F8A1
:1071C8000435DB1B23F07F43E41B033324F07F44A7
:1071D800A3420AD9D5F80435C5F84035FFF7A6FE0D
:1071E800354B4FF40032C3F80021314B00221A709E
:1071F80003B0BDE8F08F13469146A0E71174D26939
:107208000123002AFAD1002B9DD02A609BE7002396
:107218001946F6E7D31A23F07F43834234BFC31AD3
:107228000023236053E721681368994213D8591A39
:107238001160E26155E7091AD8691A4638B1034660
:1072480018688842F7D3401A186018461346216018
:10725800E061DC6112E71346F2E7FFF76FFEC4E76F
:107268004C450DD1D3692B6053B90F4801920121C8
:10727800CAF8081003600E4B1970FFF757FE019A01
:10728800E1692368C9F81C1011B1086803440B6050
:107298002B689A4218BF012753E700BFB82900207E
:1072A800B9290020C0290020BC290020B0290020CD
:1072B800AC2900200010014000E100E0A0280020D7
:1072C800FEFF7F00AD29002008B5FFF737FE104B01
:1072D80000200B2218809A700E4B18600E4B187005
:1072E8000E4B18700E4B4FF48012C021C3F880214A
:1072F80083F814131A6002F18042A2F56F22C2F8D3
:10730800080583F81113074BD2F804251A6008BD45
:10731800A0280020C0290020B8290020B929002071
:1073280000E100E0BC290020074B9B784BB132B14B
:1073380028B10368187C20B959745A61704707202E
:1073480070470820704700BFA02800202DE9F743A8
:107358001D4FBB7805460E4690469BB390B3042953
:107368002ED9436973B3437C02A80024012B00F88B
:10737800014D0CBF8946A14600F03CF80DF106000E
:10738800FFF796FDD0B101230370104B4560D3F889
:107398000435C0E90498C0E902369DF806307B70D0
:1073A8009DF8070000F04AF824B9094B4FF4801201
:1073B800C3F80021204603B0BDE8F0830424EFE7BA
:1073C8000724F7E70824F5E7A0280020001001406B
:1073D80000E100E0064A92783AB130B1426922B140
:1073E800002202740221FFF779BD0820704700BF10
:1073F800A028002070B5EFF3108672B60C4A946886
:1074080001239CB993600B4B0B4DD3F88010294096
:107418001160C3F88050D3F8841051604FF0FF32E8
:10742800C3F88420047006B962B670BD0370FAE729
:10743800C429002000E100E0FC06FFBD084B9A6863
:1074480010B55AB150B9EFF3108172B6054A1C68ED
:1074580014605C685460986001B962B610BD00BFE2
:10746800C429002000E100E070B5064E054600245E
:1074780056F824300BB1284698470134042CF7D12C
:1074880070BD00BFDC290020033080B240F2FD331C
:10749800984230B51FD8124B1A783AB91C895D89C1
:1074A8002C440444A4B2B4F5806F0AD31A7DA2B95F
:1074B8009A8BDC8B2244024492B2B2F5806F0CD2D4
:1074C80001220A801446142202FB04335A8910440C
:1074D8005881002030BD0920FCE70720FAE700BFEB
:1074E800102A00200B4A0C4B5188142000FB013154
:1074F800CB6833B90420496810700122074801F0AD
:10750800C3BA05230649137002238B800122002386
:107518000968F3E7F4290020102A0020302200200F
:10752800D82A002007B5002305490093054A0968B1
:107538000548082301F012FA03B05DF804FB00BF08
:10754800D82A0020340F03003022002007B500237A
:10755800009301460823034A034801F0FFF903B0EA
:107568005DF804FB2C0F03003022002013B5002324
:107578000C46009301460423074A084801F0EEF937
:1075880038B9074B142202FB04340123237402B0D8
:1075980010BD0E20FBE700BF280F0300302200209B
:1075A800102A002037B50A480A4B42689C88196897
:1075B80053880325033305709BB2002000909B007D
:1075C80001EB8401044801F0C9F903B030BD00BFE4
:1075D800F4290020D82A00203022002010B50146C6
:1075E800044800F042FE1C220446002108F006FA76
:1075F800204610BDC42A00204388033300EB8303D0
:10760800994209D382884FF6FF739A4206D00088C0
:10761800B0FA80F040097047022070470120704797
:107628002DE9F8430223DFF860800B800D461746EA
:1076380000F5805600F108044FF00109B4420FD25A
:10764800236801330CD031462046FFF7D5FF48B1F7
:107658000FB187F8009002280BD14FF480632B807C
:10766800BDE8F883A368D8F80020934201D9C8F888
:1076780000302B886288033313442B8063880333DC
:1076880004EB8304DAE700BF082A0020144A142315
:1076980003FB002070B50B6844680D4604F580565E
:1076A8009BB15C88033403EB8404B4420BD2236897
:1076B800013308D031462046FFF79EFF012809D044
:1076C80005D30228F1D1002003E00834EDE72C604F
:1076D800012070BD6388033304EB8304E5E700BF32
:1076E800102A0020436873B505460C466BB3254A3B
:1076F800D1688B4229D31269934226D813F003022A
:1077080023D121490089098988421ED128689968AE
:1077180088421AD11D494868834203D900F5805030
:1077280083420ED38A6993420DD902F5805293425F
:1077380009D2012323800020B0FA80F0400902B06A
:1077480070BD1346F6E70A20F6E7002323801E469D
:107758002388012B01D90020F1E7019601A920888F
:10776800FFF794FF18B9238801332380F0E7019BC2
:107778002A6899689142F1D16B60034B1B892B8170
:10778800DDE700BF30220020F4290020102A002065
:107798002DE9F8431C461E4B1B7806460F46154636
:1077A800002B30D0002A30D07CB3DFF86C804FF04B
:1077B8001409A388012B01D90A201AE009FB03F355
:1077C80018F80330BBB1A3880133A380F1E723681D
:1077D8001EB19988328891420DD11FB119883A8813
:1077E800914208D19A68C5E900230A4B1B892B816D
:1077F8000020BDE8F8832146A088FFF747FF00284E
:10780800E5D12060DFE70220F3E70520F1E700BFBC
:10781800EC290020F4290020102A002008B5074B85
:10782800191D5888FFF732FF18B1BDE80840FFF767
:10783800B9BEBDE80840FFF755BE00BFF4290020D7
:107848002DE9F04FA04FDFF8A49289B00646B8465C
:107858003B6823B949469D4800F041FD3860D8F897
:10786800005029784B1E052B00F21281DFE813F037
:10787800060076007600060106015D0126B1944BEC
:1078880000225A60012424E02B79032B1DD8DFE85D
:1078980003F01502424D8F490B78022B084631D070
:1078A8000B7D022B4FF001032ED114225343C21833
:1078B8000020C8545068FFF749FE03E001232B71EC
:1078C800FFF730FE002800F0D380814B00225A6079
:1078D8000E241422002103A808F090F841F61D5345
:1078E8009C4208BF0024D8F8003004941A78023A61
:1078F800042A00F2D381DFE812F0B401C001E301E9
:10790800EB01F2010023D0E7714A137000235360A2
:1079180041F61D54DDE770497048002302222B719F
:107928008A800122096801F0AFF8CBE76A4C00268B
:107938002E712068674DFFF709FE694BD4F800C027
:107948005A8814235343EA18EE5451682160A188D9
:10795800C2F804C011810222A280B3E7B5F814A0CE
:10796800AA7DDFF870B1AEB1022AEB8806D91421DE
:1079780001FB0AB1DA1C088902440A81142202FBBD
:107988000ABAC3F57F43BAF80A20FD331344AAF8AC
:107998000A3077E7142303FB0AB318895C6804EB01
:1079A8008004062A05D8DFE802F0264C34421C5829
:1079B80066000F24AA7DEB88022A06D9142101FB50
:1079C8000AB1DA1C088902440A81142202FB0ABAA5
:1079D800C3F57F43BAF80A20FD331344AAF80A30E6
:1079E80077E74048404900234360AB690360FFF7ED
:1079F80079FE00285AD00223AB7500230093042394
:107A0800EA182146354800F0A9FF002830D00E2496
:107A1800D0E72B69002B0CBF01230323AB75002390
:107A2800009305F10C02042304F10801EAE701239D
:107A3800AB750022EB8800929B002A6904F10C01C7
:107A4800E0E7032914BF06230523AB750023009341
:107A5800042305F10802E118D4E70623AB75224B8D
:107A68001988204B5868FFF781FD04460028A1D1EA
:107A780009B0BDE8F08F41F61D549BE7002E7FF456
:107A880001AF2B79012B33D004D3022B3FF440AF45
:107A98000F241EE702232B710DF10A01EB680393F3
:107AA80003A8CDE90466FFF71DFE08B90A2410E70C
:107AB8000498BDF80A108388EB8003882B81FFF7B0
:107AC80055FD044627E000BF0C2A0020C42A0020E8
:107AD800EC290020102A0020D82A0020302200207B
:107AE800F4290020D0290020E42A0020042A0020BC
:107AF800DFF808A203AA53463146A81DFFF748FE3F
:107B0800044660B9BAF804100498FFF72FFD04463C
:107B18000A2C3FF4FDAE002C7FF4DBAEA8E7082268
:107B28003146504607F06AFFF2E7002E7FF4AAAE0E
:107B38006D4B1A7BB2B11E731A78013A062AA7D880
:107B480001A151F822F000BFF77B02001D7C020062
:107B58003B7C0200417C0200997A0200477C0200CB
:107B68005D7C02001A78072AE6D801A151F822F0B4
:107B7800997B0200417B0200417B0200BF7B02002F
:107B8800D37B0200F37B0200F37B0200BB7B020085
:107B98001A89564901321A8100225A801A730A78C2
:107BA800B2FA82F252099A720A7DB2FA82F2520944
:107BB800DA72012207E04E4958688A884088033201
:107BC80002448A8002221A70B6E7484C5A8848490B
:107BD800142505FB024208685468506088881081A3
:107BE80002228A800C600622EDE70722EBE79A7AE8
:107BF80032B9DA7A8AB900221A705A805A6087E64E
:107C08003A4900229A72CA68002AF2D1097C0029EE
:107C1800EFD05A80FFF702FE53E70022DA72334AA8
:107C2800116A0029E7D192F82420002AE3D0012222
:107C3800EFE7FFF7B7FC44E7FFF754FC41E70622FC
:107C48001A702A4A5B88142101FB03235868FFF73E
:107C58007DFC36E707221A7000225A60FFF762FCA3
:107C68002FE701228DF80C201A89ADF818209A8880
:107C7800DB68ADF81A20059310E002228DF80C207D
:107C88001A89ADF818209A88ADF81A20DA689B7D11
:107C980005929A1F534253418DF81C3003A8FFF7F1
:107CA800E3FB002649461348C8F8006000F042FB91
:107CB8000121114800F0F1FB00287FF4C9ADD7E697
:107CC80003228DF80C20DA88ADF818201A89CFE73E
:107CD8000422DB888DF80C20ADF81830DEE7052388
:107CE8008DF80C30DAE700BFF4290020102A0020B4
:107CF800D82A0020C42A0020D42A0020E82A0020FC
:107D08004068FFF79DBD000008B50121044800F058
:107D1800AEFB18B9BDE80840FFF792BD08BD00BF2B
:107D2800D42A00202DE9F3419846354B1B780646A6
:107D38000D46002B5BD000295BD009884FF6FF73F6
:107D4800994258D06B88002B55D06B689B0754D14B
:107D58004AB92F890DF102013846FFF795FB30B17A
:107D680002B0BDE8F08113885788ADF8023001A849
:107D7800FFF734FC044658B9BDF80230214A1421F3
:107D880001FB032358890338C01B58810820E7E703
:107D980000238375BDF8023083826B68036180F825
:107DA80000800121184800F06DFB2B882381B8F171
:107DB800030F6B88A38004BF0423A3754FF000054D
:107DC80008BF3368E06008BFA361E780658101A947
:107DD8000E4800F074FA36B1E36833600C4B7560F6
:107DE8001B89B5723381FFF78FFF0020B8E70220A7
:107DF800B6E70520B4E70420B2E70320B0E700BFE8
:107E0800EC290020102A0020082A0020C42A00207B
:107E1800F429002008B5084B1A68042A09D0196803
:107E2800064A42F821000121184600F02BFB0020E9
:107E380008BD0C20FCE700BFE02A0020DC29002058
:107E48002DE9F04F89B01422002103A807F0D6FDD0
:107E58007B4A137803F0FF01009190463BB103A8D9
:107E6800FFF702FB0026304609B0BDE8F08F101D71
:107E780000F01EFB05460028F4D14FF010234FF008
:107E880080525B6911695269DFF8DCA1581C08BF90
:107E980002FB01F3CAF810300022A3F540536949E8
:107EA800CAF80C30504600F025FD06460028DAD105
:107EB8001C238C226449654800F0A2F93746B34672
:107EC8004FF003093446CDF804A0019BD9680BEBA9
:107ED800010002465BF80110002835D05C4B99423E
:107EE80032D141685B4B994215D0013399422BD16D
:107EF800009BDFF86CA1002B59D100225649CAF823
:107F08000000FFF78DFBBAF80420022A14BF0822EC
:107F1800042217433AE051494FF0140C0CFB04FCBF
:107F280001EB0C024FF0000E01F80CE050600CF170
:107F380010020CF1080C0A446144FFF771FB47F08A
:107F480002070134A4B221E000F5805C1168013118
:107F580067D104329445F9D1414A116829B90221FF
:107F680001231060918000930EE0142262433B4B82
:107F78004FF0020E991803F802E03A4A486054801C
:107F88000134A1F808E0A4B247F001070BF5805BC3
:107F9800BBF5405F99D1B9F1010F88BF3D46EDB2FD
:107FA800022D02D0062D12D0DDB90B265BE72B4B34
:107FB8001422624399184FF0020C03F802C00134EE
:107FC800DAF800204A60A1F808C0A4B295E70123B6
:107FD80088F8003003A80023C8F80430FFF744FAF3
:107FE80041E702A8FFF7FAFAC8B10123013D03707F
:107FF8000A2D09D8DFE805F006080608070807086B
:108008000F110F000023037102A9104800F057F95F
:10801800FFF77AFE27E70323F5E70223F3E70826AD
:1080280021E70E491422624301EB020C09F1FF39E2
:10803800CCF8040003201FFA89F9885481E700BFAF
:10804800EC29002028110300382A0020C42A002027
:10805800DEC0ADDEFE011EF1DC2A0020102A002061
:10806800D82A0020F42900203022002073B50D46BC
:108078000446C8B1C1B10DF10601FFF733FBA8B141
:108088000B4BBDF806006668142202FB0030012184
:108098000C3000F0F7F963682E600C336B60012335
:1080A800A372002002B070BD0520FBE70A20F9E7A3
:1080B800102A002013B50446A8B10DF10601FFF7F8
:1080C80011FB90B10B4ABDF80630142101FB0323C4
:1080D800DA6862B1A27A52B1DA680020013ADA604D
:1080E800A07202B010BD0520FBE70A20F9E70620C0
:1080F800F7E700BF102A002002230022FFF712BE74
:1081080018B103230022FFF70DBE052070470000B9
:10811800104B1B7813B50446ABB14FF6FF7398426A
:1081280013D001A8FFF75AFA88B105230370012379
:108138000371C48001A9084800F0C1F8FFF7E4FD05
:10814800002002B010BD0220FBE70420F9E7082058
:10815800F7E700BFEC290020C42A00200E4B1B784B
:1081680007B5A3B101A8FFF739FA90B10623037048
:1081780001A90A4800F0A3F8094B1A780AB10122AC
:108188001A73FFF7C1FD002003B05DF804FB02205D
:10819800FAE70820F8E700BFEC290020C42A0020ED
:1081A800F429002007B5ADF8060002A820F8041D40
:1081B80001460DF10600FFF7EBFA03B05DF804FB8A
:1081C80013B502AC134624F8020D0A4600202146D6
:1081D800FFF7DEFA02B010BD13B502AC134624F85F
:1081E800020D0A4620460021FFF7D2FA02B010BD60
:1081F80020B119B103680B60002070470520704753
:1082080010B561B1B2FBF3F403FB1424A4B244B972
:10821800C0E9001484608281C381204610BD0E200D
:10822800FCE70920FAE782B050E8022FC188B2EBD8
:10823800324F4FF0000317BF92B241EA014142EAC0
:10824800014104E04268B2EB324F08BF012340E825
:108258000212002AE8D18DF807309DF80730002B6C
:108268000CBF1120002002B0704737B550E8013F1D
:108278009DB2C48925448489A54228BF2D1B048941
:10828800A54202BFBFF32F8F002207E0C5EA03050E
:1082980040E80154002CE9D14FF001028DF8032089
:1082A8000193019B9DF803200B6002F0FF0322B1AC
:1082B8000B880068184403B030BD1846FBE70A88ED
:1082C8004B889A4209D150E8012FC2EA024240E89D
:1082D8000123002BF7D1012070470020704737B5E4
:1082E80050E8023F1FFAA3F5C488A54202BFBFF3B6
:1082F8002F8F00220DE0C48925448489A54228BF18
:108308002D1BC3EA054540E80254002CE8D14FF084
:1083180001028DF803200193019B9DF803200B6057
:1083280002F0FF0322B14B880068184403B030BD47
:108338001846FBE70A884B889A4209D150E8022F71
:10834800C2EA224240E80223002BF7D101207047FD
:108358000020704701F01F024B090121914000EBFA
:10836800830000F063B84B0910B501F01F04012128
:10837800A14000EB830000F04EF8E04000F001005F
:1083880010BD01F01F0301229A404B0900EB830046
:10839800D14300F061B84B0901F01F0150F82300E8
:1083A800C84000F0010070472DE9F0474E1E7609DD
:1083B80080460F460136002558F8254008EB850A07
:1083C800E44394FAA4F4B4FA84F44FEA4519202C4F
:1083D80006D10135AE42EFD83C462046BDE8F087CD
:1083E8004C44A742F5D921464046FFF7BCFF002878
:1083F800F3D0DAF80040E44394FAA4F4B4FA84F42D
:10840800E5E750E8002F0B4640E8003C9CF0000FE1
:10841800F7D11046704750E8002F42EA010340E8C0
:10842800003C9CF0000FF6D11046704750E8003F22
:1084380043EA010240E8002C9CF0000FF6D11046F8
:10844800704750E8002F02EA010340E8003C9CF026
:10845800000FF6D11046704750E8003F03EA0102CA
:1084680040E8002C9CF0000FF6D11046704750E809
:10847800002F02EB010340E8003C9CF0000FF6D10E
:108488001046704750E8003F03EB010240E8002C1B
:108498009CF0000FF6D11046704750E8003FA3EB60
:1084A800010240E8002C9CF0000FF6D110467047FE
:1084B8000121FFF7B0BF0121FFF7B8BF0021FFF787
:1084C800C0BF10B590B1D0E9012301689B1ADBB297
:1084D8000A60013BDBB2FF2B026802D10020107159
:1084E80010BD11684C1C14600B70F2E70E20F7E702
:1084F80037B5054602A8002400F8014DFEF77AFFBB
:108508002A686B68116899420ED9481E106011F8E4
:10851800014CEB68298A01FB0434AB6811791B1AFA
:10852800DBB2994238BF13719DF80700FEF786FF4A
:10853800204603B030BD37B5054602A8002300F831
:10854800013D0C46FEF756FF2A681368591C116056
:10855800E968641A298AB4FBF1F41C709DF80700D5
:10856800FEF76CFF03B030BD826810B504462AB12F
:1085780043690168006998470023A36010BD0EB4E1
:1085880003B5039929B102AA04AB42F8043D00F0EF
:108598006BF802B05DF804EB03B07047826830B442
:1085A8000468551C8560A154D0E901329A4202D36F
:1085B80030BCFFF7D9BF30BC704700002DE9F84F39
:1085C8009946DDE90A431746824688460A46012647
:1085D800BA420FD24E4538BF4E4613F0010B01D1B7
:1085E80064B900240125B9F1010F1AD909F1FF393D
:1085F8007D43F8E7B2FBF7F20136E9E79B070ED5B2
:10860800B9F1000F0CBF30252025A642EAD2013C63
:1086180029465046FFF7C2FF002CF6D1E1E7202596
:10862800F3E7B8FBF5F39F42E2D9DFF83890B8FBDF
:10863800F5F3504619F8031005FB1388FFF7AEFF52
:10864800B5FBF7F5002DF2D1BBF1000F02D00CB14C
:10865800A64201D3BDE8F88F20215046013CFFF720
:108668009DFFF4E73C0F03002DE9F74F05469046C0
:108678000E46002900F03A8116F8011B002958D04F
:10868800252940F0D180002702E047F0010716466F
:10869800324612F8013B2D2BF7D0302B04D02B2B70
:1086A80005D147F00407F2E747F00207EFE7002497
:1086B8002A2B06F101021BD1D8F80030191D1B68BE
:1086C800C8F800101C44164633782E2B1CD10136EE
:1086D8004FF0000A314611F8012BA2F130000928A9
:1086E80014D80A2303FB0A23A3F1300A0E46F1E744
:1086F80012F8013CA3F130010929E5D80A2101FB50
:108708000434303C1646D3E74FF0000A324612F8DC
:10871800011B01F0FB0068281646F8D0692916D01D
:1087280054D8582970D00ED825297DD03378002BFD
:10873800A2D12B7B002B00F0D980284603B0BDE8DE
:10874800F04FFFF711BF632968D06429EED1D8F83C
:108758000020D2F80090111D89EAE972C8F80010CB
:10876800A2EBE9724FF0010B092A61DCD34538BF4F
:10877800D3462CB1B9F1000F01DB790700D5013CD4
:10878800BA0702D5BAF1000F04D0FB0702D4002CB7
:1087980054D10024B9F1000F58DAC9F100092D218C
:1087A8002846FFF7FBFE07F00302022A05D1BAF1BB
:1087B800000F02D1002C4DD10024CDE900475346CB
:1087C8000A2249462846FFF7F9FEAFE7732954D035
:1087D80016D87029AAD1D8F800301A1DC8F8002078
:1087E800302128461C68FFF7D9FE78212846FFF774
:1087F800D5FE00220823CDE9003221461022E1E708
:1088080075292FD0782991D1D8F800100A1DC8F8F9
:108818000020CDE90047534610222CE0D8F800305C
:108828001A1D1978C8F800202846FFF7B7FE7DE71B
:108838000A230BF1010B92FBF3F295E7A345A9D2AA
:1088480020212846013CFFF7A9FEA0E77807AAD512
:108858002B21A5E7A345B0D230212846013CFFF7DC
:108868009DFEA7E7D8F80010CDE900470A1DC8F813
:10887800002053460A220968A4E7D8F800301A1DD8
:10888800C8F80020F907D3F8009012D54F46A7EB97
:10889800090B17F8011B41B9A345BFF447AF2021C5
:1088A8002846013CFFF77AFEF6E72846FFF776FEF2
:1088B800EDE7B9F1000F17D0484607F0F4F807467E
:1088C800BC4200D954B909F1FF3919F8011F002930
:1088D8003FF42CAF2846FFF761FEF6E72021284633
:1088E800013CFFF75BFEEBE74F46E9E703B0BDE865
:1088F800F08F000007B50B4688B9124B1248134A8F
:10890800C01A0E23C0080093114B0004114940F00F
:108918000100FEF72FF90E2003B05DF804FB4BB9F8
:10892800084B09480C4AC01AC0080E2300930004DB
:10893800074BEBE703601B68114603B05DF804EBD7
:10894800184700BFB80C0300000D0300F90F03001F
:108958004C0F0300FE0F0300751003002DE9F341CF
:1089680088B93D4B3D483E4AC01AC0080E243D4BCD
:10897800009400043C4940F00100FEF7FBF8204653
:1089880002B0BDE8F0814AB9334B3448374AC01ABF
:10899800C0080E2400040094324BEBE7D0F800C066
:1089A800BCF1000F09D12C4B2C48314AC01AC00821
:1089B8000824000400942B4BDCE74BB9264B2748CE
:1089C8002C4AC01AC008092400040094254BD1E79A
:1089D8004768D7F80480B3FBF8F708FB17374FB19F
:1089E8001D4B1E48244AC01AC008092400040094DC
:1089F8001C4BBFE78F0709D0174B18481F4AC01AEE
:108A0800C008102400040094164BB3E712F0030FBB
:108A180009D0114B11481A4AC01AC0081024000482
:108A28000094104BA6E7C768B9420BD34C1E0569E2
:108A38001C44AC4206D8DCF80C40A44602B0BDE8A1
:108A4800F0416047044B05480E4AC01AC00810247C
:108A580000040094034B8DE7B80C0300000D0300DD
:108A6800F90F03005E0F0300FE0F03007B100300E5
:108A78006F1003002E10030081100300AB100300D9
:108A8800C3100300E6100300F7B580B92A4B2B4842
:108A98002B4AC01AC0080E242A4B009400042A4905
:108AA80040F00100FEF766F8204603B0F0BDD0F8AC
:108AB80000C0BCF1000F09D11F4B2048234AC01A3F
:108AC800C0080824000400941E4BE8E74AB91A4B72
:108AD8001A481F4AC01AC008092400040094194BF8
:108AE800DDE74768D7F800E00EF1FF370F4209D0FD
:108AF800114B1248174AC01AC008102400040094E9
:108B0800104BCCE7C768B9420CD34C1E05690EFB65
:108B18000244AC4206D8DCF81040A44603B0BDE8D5
:108B2800F0406047044B05480B4AC01AC00810249F
:108B380000040094034BB2E7B80C0300000D0300D7
:108B4800F90F0300710F0300FE0F03006F100300FD
:108B58002E100300840F0300AA0F030029DF7047BB
:108B680028DF704770B503689D6886B004460E46D6
:108B78006DB114220021684606F040FFA3680593F2
:108B8800237901962BB1012B0DD06846A84706B072
:108B980070BD01238DF8003023690293E3680393C5
:108BA80063690493F1E702238DF80030E3681B033F
:108BB8000293F5E70846704700207047024B187A81
:108BC800003018BF012070478C2B0020034B187A07
:108BD8000122B0FA80F05A74400970478C2B0020AB
:108BE80008B510461A4606F0E0FE002008BD000051
:108BF80008B514220021044806F000FF0348FFF7D7
:108C080012FB002008BD00BF8C2B00207C2B00200D
:108C180010B5094C094B43602046FFF749FC40B9A1
:108C280006F0CCFB1C2320748C2205490548FFF76D
:108C3800E7FA002010BD00BF8C2B00201C11030098
:108C4800F02A00207C2B002070B5244D244E2B7A6E
:108C58002C463BB923492448FFF741FB306008B94B
:108C6800686070BD0223237233681A7972B1012AD1
:108C780024D018460321FFF775FF00232372636091
:108C880018491948BDE87040FFF754BBD3E90520DF
:108C9800121AB2F5805F28BF4FF48052D3E903154A
:108CA8009208012A014438BF01222844FFF756FFE1
:108CB80050B11128DDD101232372D2E7D3E9030291
:108CC8001044FFF74DFFF3E7237C002BC9D1014681
:108CD800BDE87040022000F009B800BF8C2B0020CE
:108CE800A42B0020A02B00207C2B002038B5831E4D
:108CF800012B45D8234C237A002B41D0022B09D1D4
:108D0800032830D0204B1B680022E2601A793AB160
:108D1800012A22D0637C7BBBBDE83840FFF794BFB3
:108D2800D3E905128D1AB5F5805F94BF521902F583
:108D380080529A619142EDD102284FF0000308BF9A
:108D480019462372104B18BF0D211868FFF70AFF48
:108D58000E490F48FFF7EEFADCE71A6901321A618B
:108D68005B699A42E7E7E3680133082B01D8E360BF
:108D7800D0E70023E360DFE7BDE8384006F00EBB2C
:108D880038BD00BF8C2B0020A42B0020A02B002076
:108D98007C2B002000F0FD03012B08D1044B00229E
:108DA8005A74421E504250411874FFF74DBF704725
:108DB8008C2B002010B5064C201DFFF779FB28B935
:108DC800637C1BB9BDE81040FFF73EBF10BD00BF74
:108DD8008C2B00202DE9F34180460D460F4801A950
:108DE80016461F46FFF741FA0446A8B11C22002187
:108DF80006F004FE2D0B0123237101A9C4F800809D
:108E0800A760E56066610548FFF759FAFFF7D2FFEA
:108E1800002002B0BDE8F0810420FAE77C2B002096
:108E28002DE9F74381468846104801A917461E4692
:108E3800FFF71BFA0446B0B11C22002106F0DEFD44
:108E480000250A9BA36001A92571C4F80090C4E914
:108E5800037866610548FFF732FAFFF7ABFF28464B
:108E680003B0BDE8F0830420FAE700BF7C2B0020A4
:108E78002DE9F047B0F806904479D2F800A09DF8A3
:108E8800208009FB04F4043C06460AEB0300A042D8
:108E98000F4688BFA4EB030A191DC2F800A0B1FB56
:108EA800F9F509FB15114DB9A9EB0104544528BF83
:108EB8005446BAF1000F04D1BDE8F0873668013D89
:108EC800F1E704317B1970182246B8F1000F0ED073
:108ED80001461846AAEB040A06F067FDD145254469
:108EE80036684C464FF0000128BF5446E1E7194662
:108EF800F0E7FFF7E6BAF8B546790146721E05466F
:108F0800002393422D6803D30024A64202D8F8BD5B
:108F18000133F6E70F682846FFF70DFB01343946A1
:108F2800F3E72DE9F843068ACD1C0746FFF7E0FA78
:108F3800043E35440446B5FBF6F5F0B14FF48073B2
:108F4800EDB28380C680013D076081464FF000087E
:108F5800A84512D23846FFF7CBFA064648B16379DE
:108F68000133637108F10108C9F800000760814600
:108F7800EEE72046FFF7BFFF34462046BDE8F883FA
:108F880001210430FFF77EBA10B5012104460430F0
:108F9800FFF783FA10F0FF0F04D12046BDE8104018
:108FA800FFF7A9BF10BD1FB504AC44F8042D00227B
:108FB80000922246FFF75CFF04B010BD1FB504AC59
:108FC80044F8042D012200922246FFF751FF04B015
:108FD80010BD41DF70470000064B10B500241C701F
:108FE800054B1C60BFF35F8F0449054800F039F852
:108FF800204610BDB02B0020B42B002048110300E0
:10900800A82B002007B502A8002300F8013DFEF7B1
:10901800F1F9F1EE103A23F09F03E1EE103ABFF3B5
:109028005F8F0A4B4022C3F884219DF80700FEF7A2
:1090380005FA06F0C3F920B1FFF7CBFF03B05DF8DE
:1090480004FB20BF40BF20BFF8E700BF00E100E0FD
:10905800836800225A609A60C3E90422DA601A60C1
:1090680070470B684A684360934208BF0023016059
:1090780008BF43607047436843B10268916852680B
:109088000B449342436004BF0023436070470000D1
:109098000D4930B5A1F594720225914201D80020FE
:1090A8000EE08B1ADB1093FBF5F302EBC30452F8C6
:1090B8003330834205D802D204F10802EDE7606834
:1090C80030BD2146E9E700BF9812030008B5FFF755
:1090D800DFFF024B002808BF184608BD5D110300DA
:1090E8000C4B1B78062B10D10B4B1B681A070CD1A5
:1090F8000A4B186800F0F003302B08D000F0E000AD
:10910800A0F14003584258417047002070470120A1
:10911800704700BFE00F00F0E40F00F0E80F00F028
:10912800094B1B78062B0CD1084B1B681A0708D172
:10913800074B186800F0F000A0F13003584258417E
:1091480070470020704700BFE00F00F0E40F00F008
:10915800E80F00F008B5FFF7C3FF28B17D4B7E4A42
:109168001B68C3F304231360FFF7DAFF10B17B4BCE
:109178007B4A1A60FFF7B4FF28B17A4B7A4A1B681A
:10918800C3F342331360FFF7CBFF20B1774AD368AC
:1091980023F08073D360FFF7A3FF40B14FF0804303
:1091A8000022C3F80C21C3F81021C3F83825FFF7B3
:1091B800B7FF10B16E4B03221A60FFF7B1FF40B141
:1091C8006C4B05221A6001229A6700229A603F229E
:1091D8005A60694B1B78062B50D1684B1B681907DE
:1091E8004CD1674B1B6803F0F003502B46D14FF06E
:1091F8008052644BD2F80414C3F82015D2F808142E
:10920800C3F82415D2F80C14C3F82815D2F8101492
:10921800C3F82C15D2F81414C3F83015D2F8181462
:10922800C3F83415D2F81C14C3F84015D2F820142A
:10923800C3F84415D2F82414C3F84815D2F82814F2
:10924800C3F84C15D2F82C14C3F85015D2F83014C2
:10925800C3F85415D2F83414C3F86015D2F838148A
:10926800C3F86415D2F83C14C3F86815D2F8401452
:10927800C3F86C15D2F84424C3F87025FFF730FF03
:1092880028B1414B414A1B6803F04F031360FFF7B5
:1092980027FF48B14FF08043D3F80024D20744BFDA
:1092A8006FF00102C3F80024394B1B68062B08D164
:1092B800384B1B68062B01BF374A136843F4806399
:1092C8001360364AD2F8883043F47003C2F8883005
:1092D800BFF34F8FBFF36F8F4FF01023D3F80022E7
:1092E800002A03DBD3F80432002B2FDA2C4B01229F
:1092F800C3F80425D3F80024002AFBD04FF010222D
:109308001521C2F80012D3F80024002AFBD04FF030
:1093180010231522C3F80422214B1A46D3F800144F
:109328000029FBD00021C3F80415D2F80034002B23
:10933800FBD0BFF34F8F19491A4BCA6802F4E06299
:109348001343CB60BFF34F8F00BFFDE7164B174A9F
:109358001A6008BD240300104035014074C007405E
:109368000DF0ADBA440200103C050040F0ED00E0FD
:10937800A005004010560040E00F00F0E40F00F098
:10938800E80F00F000C0004058020010E40E004052
:1093980030010010340100103C17004000ED00E0DF
:1093A80000E001400400FA05682200200090D00384
:1093B80038B5084C04F108030546002818BF1C46B8
:1093C80023682BB11A6822605B6828469847F7E73C
:1093D80038BD00BFC02B002020B9054B01225A70B0
:1093E800FFF7E6BF012802D1014A9070F8E77047FD
:1093F800B82B002020B9034B01225A70FFF7D8BFC1
:10940800704700BFB82B002038B50B4C237883B9C0
:109418000A486360A3602361E36000F0D1F8054661
:1094280005F0CCFF08B900F0D9F8012323702846CD
:1094380038BD8525FBE700BFB82B0020E19302006B
:1094480037B502A80023094C00F8013DFDF7D2FF0B
:10945800E368013BE360E56815B900F0D3F8A5704F
:109468009DF80700FDF7EAFF03B030BDB82B0020D8
:10947800012813B509D003D303281BD002B010BDAF
:109488000F4B0122C3F88020F8E702A800230D4CF7
:1094980000F8013DFDF7AEFF23780BB9FFF7B4FFE5
:1094A800E3689DF807000133E3600123A370FDF72B
:1094B800C5FFE3E700F092F8FFF7C2FFDEE700BF61
:1094C80000E100E0B82B00201FB503788DF80030CC
:1094D80043680193037A8DF80830C3680393054AFB
:1094E800054B684653F8213052F82110984705B0CB
:1094F8005DF804FBCC2B0020D02B00201FB503788F
:109508008DF800304368019383688DF80830C3688C
:109518000393054A054B684653F8213052F8211049
:10952800984705B05DF804FBCC2B0020D02B002019
:10953800F0B5194B067891F81DE043F82620174B33
:1095480094460A6943F82620154B03F806E00C46B2
:1095580007460FCC89B06D460FC594E80F0085E823
:109568000F000496BEF1000F0AD0BCF1000F0D4A9F
:10957800694608BF0022381D00F08CFC09B0F0BD18
:10958800BCF1000F084A694608BF002207F10C0029
:1095980000F082FAF2E700BFD02B0020CC2B00208D
:1095A800D42B0020D19402000595020000F18040E0
:1095B800002382B0036003680193019B02B07047E7
:1095C800054A137933B901211060937111715371F0
:1095D8001846704785207047D82B0020084B1A681A
:1095E800D20706D4402283F800230122C3F8802141
:1095F8001A604FF080430022C3F81825704700BF57
:1096080000E100E0044B01221A604FF08042D2F8DA
:109618001834DB03FBD470470C000040244B1B6854
:1096280010B573B14FF48070FFF7C0FF4FF080435F
:109638000122C3F808231F4B587910B95A711B68C7
:1096480098471D4B1B6863B14FF48270FFF7AEFF5C
:109658004FF080430222C3F80823164B01201B68F1
:109668009847164B1B6863B14FF48870FFF79EFF4D
:109678004FF080431022C3F808230E4B02201B68CA
:1096880098470F4B1B6893B10E4B00221A604FF49A
:109698008670FFF78BFF4FF080430821C3F808134B
:1096A800044B03209A71BDE810401B68184710BD91
:1096B80000010040D82B00200401004010010040A8
:1096C8000C010040340C004000F1804000F5C0401F
:1096D800002382B0036003680193019B02B07047C6
:1096E800800000F1A040D0F8003723F44033C0F8E0
:1096F8000037D0F8003743EA0141C0F80017704737
:109708002DE9FF470024584A584E594D019401212C
:109718001368A2F5C040012B80B206D1D6F80433F5
:109728000B4202D0FFF7D0FF0C430432AA424FEAA3
:109738004101EDD14F4B1B68012B0AD14FF4BE708C
:10974800FFF7C2FF4FF0A04344F00044D3F81035B0
:10975800019314F0FF0F1AD0474F00250126344219
:1097680010D0AB0003F1804303F5C043D3F81005D4
:10977800D3F8101557F82530C0F30420C1F3014180
:1097880003B198470135082D4FEA4606E7D1002C6A
:1097980066DA00224FF0FF33CDE90223DFF8D890D4
:1097A8000127002634464FF0A04809EB060393F939
:1097B8005020531C45D0D2B222F0C005E90804A8B5
:1097C800084402F0070310F804CC07FA03F31CEA74
:1097D800030F36D009EB050C92099CF930C059F8F3
:1097E8002CA0BAF1000F0AD1032A2AD10DF1080ED4
:1097F8001EF801C04CEA030C0EF801C001E0032A70
:10980800F4D005F5E07110F80C0C58F82110184246
:10981800C1F3014105D0022913D1032A0BD1114606
:1098280004E003290DD1032A05D102212846FFF7B8
:1098380057FF0134E4B2BAF1000F02D011462846AE
:10984800D0470136042EB0D154B14FF0A043019A4D
:10985800D3F81035934203D00193029B0393A0E7FA
:1098680004B0BDE8F08700BF006100400060004020
:10987800206100407C610040E02B0020014B1B6808
:10988800184700BF3C2C00200D4B984237B50D46B9
:1098980010D102A8002300F8013DFDF7ABFD094BEC
:1098A8001C7914B901221D601A719DF80700FDF793
:1098B800C5FD14B9002003B030BD1120FBE700BF7F
:1098C800002000403C2C0020034B984201BF034B72
:1098D80000221A601A717047002000403C2C0020BA
:1098E8000023435082B043580193019B02B0704754
:1098F8000A4610B54FF48E71FFF7F2FF136A9168AC
:10990800C95C136A01331362C0F81C1510BD8B695A
:109918000A4610B54FF4847123B9FFF7E1FFD0F878
:10992800183510BDFFF7DCFF536AD168D0F8180569
:10993800C854536A01335362F3E700001FB501238B
:109948008DF80030044BCDE90110D3E900126846C8
:10995800904705B05DF804FB442C002030B54C4A14
:10996800D2F8043313F4007F85B015464FD0D2F8EF
:109978002431002B4BD04FF492711046FFF7B0FF03
:109988004FF40173C2F80833424B93F8291009B910
:10999800012151603E4902228DF80020D1F880242F
:1099A800C1F8802403929A690292DA68019200222F
:1099B800C3E906226846D3E9001290473448D0F834
:1099C8001C315BB133490A6A4B699A420A464BD249
:1099D80091F82830002B47D1FFF78AFF2C4AD2F89C
:1099E800443193B14FF4A2711046FFF779FF294B28
:1099F80093F8291009B1012111609A692AB100224E
:109A08009A61586AD968FFF799FF05B030BDD5F853
:109A180004335B07D2D5D5F80831002BCED01D4CC6
:109A28001B482146FFF773FF636AA2699A422346DF
:109A3800C4D1E269E1684AB12369E3600023606A3E
:109A4800A261E3616362FFF779FFB7E794F8292021
:109A58000AB901226A600E4A4FF40170C2F808037D
:109A680000229A61586AEEE74FF48E710848FFF7B2
:109A780037FF51690029B1D00023029191688DF810
:109A88000030019153616846D2E900139847A5E771
:109A980000200040442C00202DE9F8435A4B04795B
:109AA80091462C2202FB0432064692F82A200D46E3
:109AB8009846002A40F0A38054490068FFF7E4FE66
:109AC8000746002840F09D8029683368481C0BD061
:109AD8004FF0A04001228A40C0F8082501F5E07245
:109AE8004FF0030C40F822C06868421C1FBF00F505
:109AF800E0724FF0A04C4FF0000E4CF822E0AA693B
:109B080095F814C0C3F824256A7DBCF1010F4CEA0E
:109B18000202C3F86C25C3F81405C3F80C151DD14F
:109B2800AA68511C1FBF02F5E0714FF0A0404FF02A
:109B3800000C40F821C0E968481C0BD04FF0A04C3D
:109B480001208840CCF8080501F5E0704FF0030EBD
:109B58004CF820E0C3F80815C3F810252C236343FC
:109B680008EB0302C2F804902A6948F80320B9F107
:109B7800000F31D04FF48E7130682D7FFFF7B0FEA3
:109B880030684FF4A271FFF7ABFE3268204BC2F881
:109B98000433120B53B2002BA8BF03F160404FEA05
:109BA80053134FEA4511BABF1A4802F00F0500F5E2
:109BB80061404FEA8303C9B203F16043B4BF415522
:109BC80080F8001303F5614302F01F02012101FA36
:109BD80002F2C3F880211A6033680422C3F8002512
:109BE8002C2303FB04830022C3E9062283F82920DF
:109BF8005A61012283F82A203846BDE8F8830827ED
:109C0800FAE71127F8E700BF442C00206599020005
:109C18008000020014ED00E0F8B5047900682D4DCD
:109C28000023C0F800352C2303FB04535B6873B191
:109C3800294BC0F80833020B53B201215B0902F02B
:109C48001F0201FA02F22033244941F82320D0F8F8
:109C58000C65D0F81415D0F80835D0F810254FF059
:109C6800FF37BE42C0F8147518BF06F5E076C0F895
:109C78000C75C0F80875C0F810751EBF4FF0A047E6
:109C88004FF0020C47F826C04E1C1FBF4FF0A046ED
:109C980001F5E071022746F82170511C1FBF4FF0F3
:109CA800A04102F5E072022641F822605A1C1FBF4B
:109CB80003F5E0734FF0A042022142F82310FFF7AA
:109CC80003FE2C2303FB0454002384F82A3063602A
:109CD800F8BD00BF442C00208402020000E100E02F
:109CE8002DE9F843224F06794FF02C0909FB067439
:109CF80080466569002D37D16261A16025624FF405
:109D08008E71006884F82850FFF7EAFDD8F8000043
:109D1800012383602146FFF7EBFD6368A1462BBB57
:109D2800D8F80050226A63699A4212D3D8F80030F2
:109D3800D3F81C21002AFBD00122DA6000202C2352
:109D480003FB067600237361BDE8F88394F8283096
:109D580043B9D5F81C31002BF8D049462846FFF7FF
:109D6800C7FDDFE70F20EAE71120EDE72846EBE71C
:109D7800442C00200023435082B043580193019B98
:109D880002B070471FB501238DF80030054B8DF8E0
:109D9800080001916846D3E90012904705B05DF8C4
:109DA80004FB00BF702C00207FB5384AD2F824612C
:109DB800002E49D010464FF49271FFF7DBFF0223C3
:109DC8008DF80030D2F88034C2F880340393D2F88A
:109DD8003C358DF808302E4BDA6801920022C3E931
:109DE80006226846D3E900129047284AD2F844313F
:109DF80073B14FF4A2711046FFF7BCFF244B996969
:109E080031B100219961D2F83C05D968FFF7BAFF52
:109E18001E4AD2F82031ABB14FF490711046FFF7CB
:109E2800A9FF1B4B596969B1D2F84C158DF8081078
:109E3800002299688DF8002001915A616846D3E99B
:109E48000012904704B070BDD2F81031002BCCD06E
:109E58004FF488711046FFF78DFF0D4BD2F83C0583
:109E680099698842C1D1DC69D96864B1D2F80052D5
:109E780025F02005C2F800521A699C61DA60DE619B
:109E8800FFF780FFB1E79C61FAE700BF00200040C0
:109E9800702C00202DE9F8435E4B06799146242268
:109EA80002FB0632044692F820200D469846002A06
:109EB80040F0AB8058490068FFF7E6FC07460028E9
:109EC80040F0A58029682368481C0BD04FF0A040BB
:109ED80001228A40C0F8082501F5E0724FF0030C12
:109EE80040F822C06868421C1FBF00F5E0724FF0BE
:109EF800A04C4FF0000E4CF822E0AA6995F814C067
:109F0800C3F824256A7DBCF1010F4CEA0202C3F8AC
:109F18006C25C3F80C15C3F814051DD1AA68511C8B
:109F28001FBF02F5E0714FF0A0404FF0000C40F861
:109F380021C0E968481C0BD04FF0A04C0120884094
:109F4800CCF8080501F5E0704FF0030E4CF820E05E
:109F5800C3F80815C3F810252423734308EB03023C
:109F6800C2F804902A6948F80320B9F1000F3BD0E1
:109F78004FF4887120682D7FFFF7FCFE4FF4907135
:109F88002068FFF7F7FE4FF492712068FFF7F2FEA2
:109F980020684FF4A271FFF7EDFE22681F4BC2F84C
:109FA8000433120B53B2002BA8BF03F160404FEAF1
:109FB80053134FEA4511BABF194802F00F0500F5CF
:109FC80061404FEA8303C9B203F16043B4BF41550E
:109FD80080F8001303F5614302F01F02012101FA22
:109FE80002F2C3F880211A6023680822C3F800250A
:109FF800242303FB06830022C3E906225A610122B7
:10A0080083F820203846BDE8F8830827FAE71127A7
:10A01800F8E700BF702C0020B19D02001003020079
:10A0280014ED00E0F8B5047900682D4D0023C0F860
:10A038000035242303FB04535B6873B1294BC0F834
:10A048000833020B53B201215B0902F01F0201FA27
:10A0580002F22033244941F82320D0F80C65D0F8C7
:10A068001415D0F80835D0F810254FF0FF37BE4248
:10A07800C0F80C7518BF06F5E076C0F81475C0F87E
:10A088000875C0F810751EBF4FF0A0474FF0020CBE
:10A0980047F826C04E1C1FBF4FF0A04601F5E071DF
:10A0A800022746F82170511C1FBF4FF0A04102F54E
:10A0B800E072022641F822605A1C1FBF03F5E073C4
:10A0C8004FF0A042022142F82310FFF7FDFB2423A2
:10A0D80003FB0454002384F820306360F8BD00BFFC
:10A0E800702C00201003020000E100E001F0604342
:10A0F800B3F1005F2DE9F041074632D11C4B0679D8
:10A10800242505FB063598466C6964BB6A61A9601D
:10A1180000684FF49071FFF72DFE4FF4AC7138686A
:10A12800FFF728FE3B686A69A968C3F84415C3F8B5
:10A13800482501229A606A68BAB9D3F82011D3F881
:10A14800582149B9002AF8D00F20242303FB06869A
:10A1580000237361BDE8F081002A14BF0F2000209E
:10A16800F3E71020F6E71120F4E72046F2E700BFF6
:10A17800702C00200023435082B043580193019B68
:10A1880002B07047F0B54C4A4C4CD2F8243187B035
:10A198001546A3B14FF492711046FFF7EBFFD2F8C2
:10A1A800043163B9A368C2F808330223A360A36823
:10A1B800C2F8043301231362536107B0F0BDD5F828
:10A1C8000431002B49D03E4F3B484FF48271FFF7D2
:10A1D800D1FF0FCF01AE0FC63B68336094F82E3025
:10A1E8007BB1237B012B0CBFD5F83C25D5F84C253A
:10A1F8000292022B304B0CBFD3F83C35D3F84C35C8
:10A2080003934FF4B0712C48FFF7B4FF4FF4AE71CD
:10A218002948FFF7AFFF94F8303013B194F82E3087
:10A228003BB1254B0022C3F80022A260254AC3F89F
:10A238000823214AD2F8C434C2F8C4349A0736D560
:10A2480001238DF8003094F830300BB984F82F30A2
:10A25800D4E9003168469847AFE74FF4A47116482F
:10A26800FFF788FF237B83B9154F0FCF01AE0FC6C9
:10A278003B68336094F83030002BDAD1C5F80032EF
:10A28800A360104BC5F80833D3E74FF40073C5F843
:10A29800003240F20223A36003F1CE73C5F80833FD
:10A2A800A368C5F804330123AB602B6285E713F07C
:10A2B800040318BF0223C4E700300040942C002098
:10A2C800A02C002002029C012DE9F84F0579364C9C
:10A2D8004FF0340808FB05F804EB08079B4697F88D
:10A2E8002D3081460E469246002B59D12F490068E1
:10A2F800FFF7CAFA002855D13168737B87F83230E6
:10A3080001F5E0724FF0A043B860C7F804B087F8D1
:10A318002F0087F8300040F20C6744F808A043F893
:10A328002270726802F5E07C43F82C70D9F800308E
:10A33800C3F80815C3F80C25B268C3F82425BAF188
:10A34800000F25D01A0B53B2317B002BA8BF03F1A5
:10A358006046D2B24FEA5313B8BF02F00F074FEA74
:10A368004111B4BF124E06F561464FEA8303C9B2E4
:10A3780003F16043B4BFF15586F8001303F5614358
:10A3880002F01F02012101FA02F2C3F880211A60CB
:10A39800342303FB0544012384F82D30BDE8F88FEE
:10A3A8000820FBE71120F9E7942C00208DA102007A
:10A3B80014ED00E0026803790621C2F80015044A8A
:10A3C800342101FB0323022283F82D20704700BFAC
:10A3D800942C00202DE9F843CB6803F06043B3F1D7
:10A3E800005F0D46904603D010221046BDE8F88362
:10A3F8000779944E0468944BC4F808334FF0340C32
:10A408000CFB076C9CF82F302BB1DCF80830C4F833
:10A4180004331122E9E712F0140F0CBF01230023C3
:10A428008CF82F308946B9E80F000CF10C0EAEE815
:10A438000F00D9F80030CEF80030C8F300138CF8BC
:10A4480030306B78C4F888354FF482712046FFF7B6
:10A4580091FE4FF49271FFF78DFE18F0010318BFBB
:10A468000123C4F8503518F0020318BF0123C4F8BB
:10A4780040352B78032B00F2C380DFE803F083AB71
:10A4880067022B6903F06043B3F1005FACD14FF46E
:10A498008073EA68C4F800326B68C4F844254FF446
:10A4A800A871C4F84835FFF765FE4FF4B071FFF79F
:10A4B80061FE4FF4A471FFF75DFE01232362A360E0
:10A4C800D4F85031002BFBD04FF4A8712046FFF789
:10A4D80051FEAB682A69C4F84425C4F848355B4A7C
:10A4E800342303FB07639A604FF482730821002228
:10A4F80018F0080F04D1287803281CBF01206050E9
:10A50800342179437018715800297ED101252344DC
:10A518001968002900F086803421D4F8C434C4F8BE
:10A52800C43401FB0766002186F82F10002B3FF486
:10A538005CAF13F0020F48F2012208BF032213F0A8
:10A54800040F48F2022318BF1A464EE76B68EA6800
:10A55800C4F84425C4F848352B6903F06042B2F1C9
:10A56800005F7FF441AFAA68C4F834354FF48453D0
:10A57800C4F83825C4F80032342303FB076340F2DB
:10A588000222B0E76B68EA68C4F8442518F0200F87
:10A59800C4F848354FF0340310D003FB07634FF479
:10A5A8008072C4F80022294A9A604FF4A471FFF718
:10A5B800E1FD4FF4A4730122226297E74FF4007281
:10A5C80003FB0763C4F8002240F202229A604FF4AA
:10A5D8008273F0E76B68EA68C4F83425C4F8383544
:10A5E8004FF48053C4F80032342303FB076340F26E
:10A5F80002229A600123236200214FF4827376E7D6
:10A608004FF482730821072272E718F0040F1CBF69
:10A618004FF400738360342303FB0766B368C4F800
:10A628000433E2E6D4F8241100293FF471AF4FF463
:10A6380092712046FFF79EFD25624FF48273656193
:10A6480065E700BF942C002002029C010002040070
:10A65800F0B587B004460F4615460021142201A81C
:10A668001E4605F0CBF99DF830308DF80570002BAB
:10A6780014BF2022002201A9204602960495FFF764
:10A68800A9FE07B0F0BDF0B587B004460F461546E1
:10A69800002112220DF106001E4605F0AFF9012334
:10A6A800002201A920468DF804308DF80570029625
:10A6B8000495FFF78FFE07B0F0BD00001FB50378C3
:10A6C8008DF8003003798DF8043043798DF8053022
:10A6D80083688DF80630C3688DF8073003690293E4
:10A6E80043690393054A064B684653F8213052F8EC
:10A6F8002110984705B05DF804FB00BFC82C002066
:10A70800D02C0020024B4FF4807043F0010318470F
:10A71800801603002DE9F04791460778324A42F83F
:10A728002790324A42F827304B7B80460C4663B369
:10A738000868496882008B0002F1A04203F1A04337
:10A7480040F20C65C2F800570126C3F800574FF0D5
:10A75800A04506FA00F006FA01F1C5F80805C5F8A3
:10A76800081540F20D61C2F80017C3F80017FFF78B
:10A77800C9FF4FF0000AD5F81025636822FA03F3E1
:10A78800DB070FD5BAF1000F1FD1B9F1000F3B4617
:10A79800174A214608F1040008BF0022BDE8F04727
:10A7A800FFF792BD236806FA03F3C5F80C35FFF7E7
:10A7B800A9FF236806FA03F3C5F808350AF1010A68
:10A7C800FFF7A0FFBAF1090FD5D1636801254FF053
:10A7D800A04605FA03F3C6F80C35FFF793FF636844
:10A7E8009D40C6F80855D0E7D02C0020C82C002082
:10A7F800C5A60200032812D8012A0BD1012908D1C5
:10A8080000F10E02D2B200EB40000C4B1A540020AB
:10A81800704700220129F6D009D3022901D0072068
:10A828007047064B00EB400018444270EFE7034BBB
:10A8380000EB400018448270E9E700BFD82C0020E4
:10A8480008B5012202210020FFF7D4FF08B107282C
:10A8580010D1072202210120FFF7CCFF08B10728F9
:10A8680008D100210A220846FFF7C4FF10B10728C3
:10A8780008BF002008BD00000388102B10B502D0C7
:10A88800112B1ED010BD1A4C2168B1B901220846FF
:10A89800FFF7B0FF08B1072824D1072202210120C1
:10A8A800FFF7A8FF08B107281CD1042202210020C5
:10A8B800FFF7A0FF08B1072814D1236801332360EC
:10A8C800E0E70B4A1368013B1360002BDAD1FFF76E
:10A8D800B7FF0028D6D0074B1B68002BD2D0BDE8A5
:10A8E80010401847034B1B68002BE6D09847E4E755
:10A8F800E82C0020E42C002076DF70477ADF7047D0
:10A908007CDF70478FDF704733DF7047FCF78ABA08
:10A9180070B5134B134C1449E41AE408240444F0AA
:10A92800040506462846FCF70DF946B1032E16D154
:10A9380044F003000D49BDE87040FCF703B90C4929
:10A9480044F00300FCF7FEF80A492846FCF7FAF839
:10A95800FFF7DAFF18B1BDE87040FCF763BA70BDC5
:10A96800B80C0300E80C0300581803006D18030026
:10A978007F1803009518030038B50E4B0E4C0F498D
:10A98800E41AE4082404054644F004042046FCF7CD
:10A99800D9F82B786BB90A492046FCF7D3F8094B4C
:10A9A8003B211888FFF7A8FF18B1BDE83840FCF72D
:10A9B80039BA38BDB80C0300E80C0300A918030025
:10A9C800C91803007022002007B50B4B0B480C492F
:10A9D800C01AC008000440F00300FCF7B3F868464A
:10A9E80000F064FC6946074800F0C2FD08B1FCF7B6
:10A9F80019FA03B05DF804FBB80C0300E80C030077
:10AA080023180300442F00200388212B13B5044684
:10AA180037D005D8102B1FD0112B0CD002B010BD89
:10AA28003B2B40D0562BF9D12648274B2749C01A33
:10AA3800C00800043DE0244B22482549C01AC0083C
:10AA4800000440F00300FCF77DF84FF0A0434FF4FA
:10AA58008072C3F80C25E1E71B4B1A481D49C01A40
:10AA6800C008000440F00300FCF76CF81A4BA188FA
:10AA78001A48198002F0EEFD0028CFD0FCF7D2F971
:10AA8800CCE7114B0F481649C01AC008000440F023
:10AA98000400FCF757F802A9002321F8043DA08818
:10AAA800FFF730FFE8E70748074B0E49C01AC00810
:10AAB800000440F00400FCF745F81321A088FFF7D4
:10AAC8001BFFD9E7E80C0300B80C0300E8160300E5
:10AAD800861603009C160300702200208C2F00208D
:10AAE800AF160300CB16030008B50948094B0A49FD
:10AAF800C01AC008000440F00400FCF723F8074817
:10AB0800FCF768FC18B1BDE80840FCF78BB908BD34
:10AB1800E80C0300B80C0300401803006C2F002059
:10AB280038B51B4B1B4CE41AE40824040D4644F0CA
:10AB3800040419492046FCF705F82B78032B26D87E
:10AB4800DFE803F00215231D14492046FBF7FAFF3E
:10AB580013492046FBF7F6FF00224FF4A0211148C5
:10AB6800FCF7F4FB98B1BDE83840FCF75BB90E4937
:10AB78002046FBF7E7FFBDE83840FFF7B5BF2046A2
:10AB88000A49BDE83840FBF7DDBF0949F0E738BDA1
:10AB9800B80C0300E80C0300E918030007190300C8
:10ABA800311903006C2F00204A190300751903009E
:10ABB8009C19030008B50321044801F092F918B163
:10ABC800BDE80840FCF72EB908BD00BFEC2C0020FA
:10ABD80037B5344B344C3549E41AE40824040546A7
:10ABE80044F003042046FBF7ADFF2B78112B40D827
:10ABF800DFE803F00949101D1F3F21474B384D413D
:10AC08002F3F4F5153552A49204603B0BDE83040E5
:10AC1800FBF798BF688801F08DFC2A7A00922549D5
:10AC28006B8802462046FBF7A5FF2349ECE723493A
:10AC3800EAE72349E8E723492046FBF783FFFDF7C6
:10AC48008DFA30F0080314D003B0BDE83040FCF7AB
:10AC5800E9B81D492046FBF775FF03B0BDE8304051
:10AC6800FFF7A8BF20461949FBF76CFF28690028A1
:10AC7800EAD103B030BD16492046FBF763FFA86848
:10AC8800F5E71449F8E71449BEE71449BCE7144945
:10AC9800BAE71449B8E71449B6E71449B4E71449C0
:10ACA800B2E700BFB80C0300E80C0300C6190300A4
:10ACB800E51903000E1A03004E1A0300681A030070
:10ACC8007F1A03009A1A0300AE1A0300CC1A030075
:10ACD800EB1A0300051B03001C1B0300321B0300B7
:10ACE800541B0300711B03008F1B0300B21B0300DE
:10ACF800D21B0300FCF796B8F0B5ADB000F048FBE6
:10AD08004FF4FA71084600F057FB9B4D9B4B9C494A
:10AD1800ED1AED082D0445F004063046FBF712FF46
:10AD28004FF400410020FBF747FD08B1FCF77AF823
:10AD3800FBF76EFC93493046FBF704FFFCF7C4FAB7
:10AD480008B1FCF76FF8904A90480121FCF7ECFA3B
:10AD580008B1FCF767F845F0030500F06BF98C497A
:10AD68002846FBF7EFFE8B493046FBF7EBFEFEF774
:10AD780033F908B1FCF756F887493046FBF7E2FE8D
:10AD880004F0A0FA08B1FCF74DF82CAC002344F805
:10AD9800AC3D0120214604F05BFB08B1FCF742F80A
:10ADA800204604F007FC08B1FCF73CF87B49304624
:10ADB8002CAFFBF7C7FE112307F8B03D784804F025
:10ADC80072FE774982B23846FFF79AFD08B1FCF760
:10ADD80029F800210822204604F010FE71494FF09E
:10ADE800C8732046CDE90113FFF788FD08B1FCF7C9
:10ADF80019F86D493046FBF7A5FE00216B4802F0B3
:10AE080091FA08B1FCF70EF869493046FBF79AFE4B
:10AE180000230193C4E901333946664B6648009321
:10AE280002F006FC08B1FBF7FDFF644B01932146D5
:10AE3800112363488DF80D308DF80E308DF80F30E2
:10AE480000F0E8FA08B1FBF7EDFF5E493046FBF782
:10AE580079FEAC220021204604F0D0FD0223062210
:10AE68008DF804308DF807200123574A8DF80630F5
:10AE7800ADF8143006928DF880304FF4967244F293
:10AE88005063CDE923232146504B51482A9300F0C3
:10AE9800A9FF08B1FBF7C6FF01214D4800F09FFF4D
:10AEA8004C493046FBF74EFE1C220021204604F098
:10AEB800A5FD00234FF42032CDE90132ADF8123060
:10AEC8004FF470228DF81430434B039206930322FB
:10AED800424B8DF810202046079301F049FA08B13B
:10AEE800FBF7A0FF3E493046FBF72CFE03F082F942
:10AEF80008B1FBF797FF05220021204604F07EFDEC
:10AF08009DF8043043F00103032203F0F10362F3D8
:10AF180006136FF3C7138DF8043007238DF8053037
:10AF280010238DF806309DF8073013438DF807304D
:10AF38009DF80830204613438DF8083003F0F4F9E3
:10AF480008B1FBF76FFF274803F0D6F908B1FBF704
:10AF580069FF012000F0C0F900F046F922492846AF
:10AF6800FBF7F0FDFFF726FEFBF780FC0028FBD17E
:10AF7800FEF748F8F8E700BFE80C0300B80C030038
:10AF88000C17030020170300D1A9020008170300BB
:10AF98002B17030035170300521703006917030026
:10AFA800841703005000A00091170300582F0020B9
:10AFB800A217030015A902008C2F002029AB02005C
:10AFC800442F0020B61703006C22002019A90200A4
:10AFD800EC2C0020CE17030081A90200FDAC020072
:10AFE800F0170300D9AB02000918030038B50C4B61
:10AFF8000C4C0D49E41AE4080546240444F0040006
:10B00800FBF7A0FD2B7853B92B79012B04D1074905
:10B0180044F00300FBF796FD054B01221A7038BD7A
:10B02800B80C0300E80C03002C1C0300461C0300AA
:10B03800982F00201FB5114B11481249C01AC0089B
:10B04800000440F00300FBF77DFD052200924FF05D
:10B05800CC72002302920222039369468DF80C20D9
:10B0680009480A4A0193FFF755FB08B1FBF7DAFED6
:10B078000748FFF79FF905B05DF804FBB80C03001B
:10B08800E80C0300591C03001C1C0300F5AF020068
:10B09800201C03002DE9F341144B154C06461548B6
:10B0A800C01AC008000490460F46002512492570B2
:10B0B80040F00300FBF746FD009543463A4631460B
:10B0C8000E48FFF7C5FA08B1FBF7ACFE2378002B52
:10B0D800FCD00B4D0A2445F001054FF47A40A847EF
:10B0E800013CFAD102B0BDE8F08100BFB80C030002
:10B0F800982F0020E80C03000F1C0300201C0300FD
:10B10800001C03002DE9F04305461F462048214B4B
:10B11800214C85B00DF11008C01AC00808F8011DAF
:10B1280000044FF000091D4984F8009040F0030026
:10B138001646FBF707FD4246CDF800900123294645
:10B148001748FFF785FA804608B1FBF76BFE2378AE
:10B15800002BFCD0B8F1000F07D13B4632462946F8
:10B168000F48FFF790FA804610B14046FBF75AFEA9
:10B178002378002BFCD00B4D0A2445F001054FF431
:10B188007A40A847013CFAD105B0BDE8F08300BF7A
:10B19800E80C0300B80C0300982F0020061C0300DD
:10B1A800201C0300001C030007B50C4B0C480D497C
:10B1B800C01AC008000440F00300FBF7C3FC0223D8
:10B1C80001AA00214820FFF79DFF9DF804009DF883
:10B1D800053043EA002003B05DF804FBB80C030017
:10B1E800E80C0300091D030010B51F4B1F4C204934
:10B1F800E41A2DED028BE408240444F0030482B021
:10B208002046FBF79FFCFFF7CFFF07EE900A9FED64
:10B21800197A9FED196A194A1949F8EE677A204692
:10B2280067EE877A9FED177A87EE878AFDEEC86A00
:10B23800B5EEC08AB8EEE67AF1EE10FACCBF78EE39
:10B24800477A77EE487A16EE903A67EE867AFDEE00
:10B25800E77ACDED007AFBF78DFCB0EE480A02B034
:10B26800BDEC028B10BD00BFB80C0300E80C030056
:10B27800D61C03000024F4450000C8428B1F0300BD
:10B28800E91C03000024744910B50446FFF7ACFF1D
:10B2980010EE100A04F0F8F902460B46204602495F
:10B2A800BDE8104004F05CBB1D1D030073B50646E5
:10B2B8006846FFF7E9FF0024684604F0F4FBE5B2AE
:10B2C800A84204F1010401D802B070BD02AB2B44BE
:10B2D80013F8083C7355EFE77FB504A948F2040357
:10B2E8000026054621F8083D032248208DF80A600B
:10B2F800204CFFF7CFFE204B2049E41AE408240431
:10B3080044F003042046FBF71DFC012D0CBF334617
:10B3180004230125032203A948208DF80D308DF858
:10B328000E608DF80C50FFF7B5FE15492046FBF767
:10B3380009FC04A9062301F8103D2A463046FFF708
:10B34800A9FE1049104E2046FBF7FCFB29460223B4
:10B3580001AA4820FFF7D6FE642546F001064FF4FF
:10B368007A40B047013DFAD108492046FBF7EAFB8D
:10B3780004B070BDE80C0300B80C0300621C0300A5
:10B388006F1C03008B1C0300D01C0300A71C0300C8
:10B398004FF0A0430322C3F8302770474FF0A04373
:10B3A8004FF48052C3F80C2570474FF0A0434FF478
:10B3B8008052C3F8082570474FF0A0434FF48052DD
:10B3C80070B50C46C3F80825054638B10B4E46F053
:10B3D80001064FF47A40B047013DFAD14FF0A0433F
:10B3E8004FF48052C3F80C253CB1044D45F00105DB
:10B3F8004FF47A40A847013CFAD170BD301D0300D4
:10B40800A8DF7047AADF7047ACDF7047AEDF704730
:10B4180062DF70472DE9F0414F4B504DED1AED08B2
:10B428002D0445F00305064694B00F4628464C49BE
:10B43800FBF788FB002E00F08D80002F00F08A803B
:10B448004FF6FF73F3813B683360464B04AA03F160
:10B45800100E944618685968144603C40833734597
:10B468002246F7D106F110016046FFF7D1FF0446E6
:10B4780088B9337C8DF80A3014A948F6D44321F8EA
:10B48800483D321D0120FFF7BBFF044638B136495D
:10B498002846FBF757FB204614B0BDE8F081284644
:10B4A8003249FBF74FFB21460322684604F0A6FA0F
:10B4B80011238DF800307B7A8DF801309DF8023029
:10B4C8004FF0010868F3420321461C220DA88DF8AD
:10B4D800023004F093FA9DF834300E9443F01A03C6
:10B4E8008DF8343001AD337C8DF80E30214644F2AE
:10B4F800AA6303222846CDE910441394ADF80C3012
:10B50800CDF848D004F07AFABB7A8DF80430FB7A8B
:10B518008DF805309DF8063068F3420364F3C303E1
:10B5280064F3041364F300032146142208A88DF879
:10B53800063004F063FA03ABCDE9083505230A9316
:10B54800ADF82C3008AAB31D0DA9B088FFF75AFF33
:10B558000446A0E70E249EE7B80C0300E80C03009D
:10B56800BD1E0300361D0300D21E0300EA1E0300A1
:10B5780070B5264B264CE41AE408240444F003046E
:10B58800064686B00D4620462249FBF7DBFA002E18
:10B5980039D008220021684604F030FA05236A46AB
:10B5A800F188F089CDE90035FFF72EFF054608BB85
:10B5B800F2894FF6FF739A421FD01022014602A863
:10B5C80004F01CFAF388ADF8083001238DF80A302E
:10B5D800BDF80230ADF80C3002A9019BF089CDF816
:10B5E80010D00593FFF712FF0B4905460246204687
:10B5F800FBF7ACFA284606B070BD08492046FBF7B1
:10B60800A1FA0825F6E70E25F4E700BFB80C0300F9
:10B61800E80C0300101F0300371F0300571F030027
:10B6280073B5414B414C0288E41AE408240444F001
:10B6380003040D4606463E492046FBF787FA2DB11E
:10B648003388112B1FD003D8102B0AD002B070BD3D
:10B65800502B26D0552BF9D136492046FBF772FAE4
:10B66800F4E735492046FBF76DFA34492046FBF7E5
:10B6780069FAB388EB8102A9032301F8043D2B681A
:10B6880028469847E2E72E492046FBF75BFA2D4902
:10B698002046FBF757FA4FF6FF73EB8102A9022306
:10B6A800EBE729492046FBF74DFA28492046FBF7E6
:10B6B80049FAF288EB889A4208D1B37C012B1ED153
:10B6C80023492046FBF73EFAFFF768FEF2886B89AC
:10B6D8009A42BBD1338A022BB8D12B68002BB5D044
:10B6E80006F1120000F09CFFB8B11A492046FBF79A
:10B6F80029FA00238DF8043001A92B68C0E7022B32
:10B7080006D115492046FBF71DFAFFF74EFEDDE787
:10B7180012492046FBF716FAD8E711492046FBF7ED
:10B7280011FA0123E6E700BFB80C0300E80C030098
:10B73800461D03008A1E03006C1D0300861D0300BE
:10B748009E1D0300BB1D0300D61D0300F21D030050
:10B75800081E03003F1E0300101E0300171E0300EF
:10B76800641E03000369C1688B429DBF8268D218BA
:10B7780002F1FF3203F1FF3394BF501A581A704791
:10B788002DE9F041D0E902670446F61B406896426D
:10B7980088461546384405D904F007F93D44E56064
:10B7A800BDE8F0813246AD1B04F0FFF82A4608EBED
:10B7B8000601606804F0F9F8F1E72DE9F843C56877
:10B7C8000646894617464FF000083469B368706822
:10B7D800A54228BFE418013C621B5C1BBC4228BF81
:10B7E8003C46944228BF144649462844224604F061
:10B7F800DCF8B3682544AB4208BF00253F1BA044D2
:10B80800A144F560E1D14046BDE8F88310B5114C7C
:10B81800114AA2610223C4E90433104BE361A26414
:10B828004FF400730E4A2362E264002310220D498C
:10B83800A362E01D6362E362A3656365E365226555
:10B8480004F00FF90849204604F00BF92023A371EE
:10B8580010BD00BF9C2F00208C1F03002430002047
:10B8680014300020951F0300991F0300F8B5184CE9
:10B87800182300FB033503FB00402544C46A012C50
:10B888000F46164611D003D3022C1BD000240AE021
:10B898002846FFF767FF864205D8324639462846CC
:10B8A800FFF76EFF34462046F8BD2846FFF75AFFDB
:10B8B8008642344628BF0446224639462846FFF7C2
:10B8C8005FFFF0E72846BDE8F840FFF776BF00BF06
:10B8D8009C2F0020FFF79ABF6DDF704779DF704714
:10B8E8007DDF704764DF70472DE9F74F0C9CBDF88A
:10B8F80034B02788002580468A4691462E46B8F8F7
:10B908000020B2420BDC35B12288013AD21B92B238
:10B91800FF2A39D8DA55002003B0BDE8F08FD8F8EF
:10B92800042052F82600019000220DF1030101A81D
:10B93800FFF7D8FF0028EFD19DF803204A4521D111
:10B948002288002D14BF0020022002EB09010144C7
:10B95800594519DC3DB9013292B2228003F802A0A0
:10B9680022880132228022880DF103011A4401A89D
:10B97800FFF7B8FF0028CFD121889DF803200A449B
:10B98800228001250136BAE70C20C5E72DE9F341ED
:10B99800089CBDF824501746CDE90045022206460A
:10B9A800FFF7A2FF48B9102239463046CDE90845CD
:10B9B80002B0BDE8F041FFF797BF02B0BDE8F081E3
:10B9C8002DE9F04F00231688138090F82D3085B0AC
:10B9D80007460D46144653B3082E01D80C2026E11D
:10B9E80002A8FFF779FF002840F021811388082278
:10B9F800CA54238801339BB21B222380CA5420884F
:10BA0800013080B2208006220DF10901284403F09C
:10BA1800CCFF23889DF8082006339BB212F0FE0263
:10BA280018BF01222380EA54238801332380BB787E
:10BA3800FBB123880433B342D0D802A8FFF74EFFE6
:10BA4800002840F0F48023880322EA542388013335
:10BA58009BB219222380EA542388BDF808200133B9
:10BA68009BB2E9182380EA54120A4A7023880233E9
:10BA78002380FA789AB12388D91CB142AED8022122
:10BA8800E954238801339BB201212380E954238898
:10BA98000B449BB22380EA5423880B4423807A68A2
:10BAA800AAB12388D91CB14298D8022192F9002062
:10BAB800E954238801339BB20A212380E95423885F
:10BAC80001339BB22380EA542388013323803B89C6
