:10000000000001203D020000950200009702000060
:10001000990200009B0200009D0200000000000009
:100020000000000000000000000000009F0200002F
:10003000A102000000000000A3020000A5020000D1
:10004000A9020000AB0200002D17000049240000A7
:10005000B1020000B3020000B5020000B7020000C8
:10006000B9020000BB020000BD020000BF02000098
:10007000C1020000C3020000C5020000C702000068
:10008000C9020000CB020000CD020000CF02000038
:10009000D1020000D3020000D5020000D702000008
:1000A000D9020000DB020000DD020000DF020000D8
:1000B000E1020000E3020000A7020000A702000026
:1000C000E5020000E7020000E9020000EB02000088
:0C00D000ED020000EF020000F102000051
:1000DC00364937480A1A02D0072291438D463549D2
:1000EC0035480A1A06D00722914381F30988022267
:1000FC0082F3148831483249324A00F045F83248CC
:10010C003249334A00F040F832483349334A00F060
:10011C003BF833483349344A00F036F83348344915
:10012C00344A00F031F834483449354A00F02CF8A0
:10013C0034483549354A00F027F83548354900220E
:10014C0000F02DF834483549002200F028F83448E6
:10015C003449091A082903DB0022026004300160CB
:10016C00314A90471F482049884205D00268043024
:10017C0003B4904703BCF7E700208646EC4600200A
:10018C0000212A4A9047FEE7884207D0521A05D030
:10019C00037801300B700131013AF9D17047884274
:1001AC0002D002700130FAE7704700000000012015
:1001BC0000E000200000012000000120783B00003E
:1001CC00180000201C000020F4020000F4020000C3
:1001DC00BA2F0000783B0000180000201800002007
:1001EC001C3000001C3000001C3000001C300000D3
:1001FC001C3000001C3000001C3000001C300000C3
:10020C00763B00007C3B00001C0000201C00002002
:10021C001C00002090050020900500209005002077
:10022C00900500209025002061020000F9270000B5
:10023C000F484FF00701884385460E4880470E480B
:10024C00016841F470010160BFF34F8FBFF36F8FF2
:10025C00FFF73EBF09480A490A4A884207D0521A9A
:10026C0005D0037801300B700131013AF9D1704798
:10027C0000000120A129000088ED00E004300000FE
:10028C000000002018000020FEE7FEE7FEE7FEE776
:10029C00FEE7FEE7FEE7FEE7FEE7FEE7FEE7FEE72A
:1002AC00FEE7FEE7FEE7FEE7FEE7FEE7FEE7FEE71A
:1002BC00FEE7FEE7FEE7FEE7FEE7FEE7FEE7FEE70A
:1002CC00FEE7FEE7FEE7FEE7FEE7FEE7FEE7FEE7FA
:1002DC00FEE7FEE7FEE7FEE7FEE7FEE7FEE7FEE7EA
:0802EC00FEE7FEE7FEE700BF9C
:1002F40000B583B001900091019B1B681B680099B5
:100304000198984700BF03B05DF804FB00B583B0C3
:100314000190019B1B685B680198984700BF03B07C
:100324005DF804FB00B583B00190019B1B689B68DA
:100334000198984700BF03B05DF804FB82B00190B8
:10034400019B01225A7200BF02B0704782B0019033
:10035400019B5B7A184602B070470000024A034BC7
:10036400D31ADB0818467047EC2F0000BC2F00009E
:1003740000B585B00190009100238DF80F30019BEA
:100384001B7803F00303DBB2002B06D0019B1B7820
:1003940003F00403DBB2002B44D0019B1B7803F071
:1003A4000403DBB2002B28D0019B1B78C3F30103A9
:1003B400DBB2012B02D0022B0CD017E0009B1B6890
:1003C400019A1288C2F38312D2B213449A1C009B7E
:1003D4001A6024E0009B1B68019A5288C2F38912B8
:1003E40092B213449A1C009B1A6018E010494FF40F
:1003F400A47000F05CFD00BF11E0009B1A68019B33
:100404005B88C3F389139BB21946019B1B88C3F312
:1004140089139BB20B4413445A1C009B1A6001239A
:100424008DF80F309DF80F30184605B05DF804FBC9
:100434003430000000B58BB00023ADF826303E48C0
:1004440000F0C3FD3D4800F0C0FD3D4B5B680493E4
:100454003B4B9B680693049A069B134002339B0014
:10046400374A13440433089304AB19460898FFF73A
:100474007FFF0346002B09D0049A069B13400233E6
:100484009B002F4A134404330893EDE700BF002375
:10049400079311E0049B5A1C0492069A1340079A8E
:1004A400920001A90A44264902339B000B445B686D
:1004B4001360079B01330793079B012BEAD99DF82F
:1004C4000430C3F30103DBB2012B10D0022B1CD187
:1004D400BDF80A30ADF82630BDF80630C3F38913F1
:1004E4009BB203339A08049B1344049313E0BDF8AE
:1004F4000A30ADF82630BDF80430C3F38313DBB201
:100504001A46049B1344049305E00E494FF4C27049
:1005140000F0CDFC00BF094800F063FD0590059B89
:10052400002B02D0049B064A5360BDF826301846BF
:100534000BB05DF804FB00BF04050020000500209B
:10054400EC0000203430000000B585B000210748DD
:1005540000F0C4FC0390039B0293029B83F31003FB
:100564000193019B184605B05DF804FB08050020C3
:1005740000B589B00390029101920093039B1B0C78
:100584000793FFF7E1FF0690FFF7E8FE0246079B9B
:10059400934204D3214940F2A91000F088FC069B41
:1005A4001904009B5A1C0A9B1340079A0A431C49CE
:1005B40002339B000B445A60009A0A9B1340023397
:1005C4009B00174A134404330593039B03F007036A
:1005D400D9B2059A137861F3C5031370019B03F034
:1005E4000F03D9B2059A138861F389131380029B10
:1005F400C3F31501059A136861F39F231360059AE9
:100604001378012161F301031370059A13786FF3D2
:100614008203137000BF09B05DF804FB343000009E
:10062400EC00002000B58BB00390029113468DF8C6
:100634000730039B0233089301238DF81F300020F9
:1006440000F0EEFB3E4B1A68029B1A603C4B9A6822
:100654003B4B59683A4B1B68CB1A1344013309933B
:1006640014E00121374800F080FCFFF7E3FE059019
:100674000599344800F079FC314B9A68304B59683D
:100684002F4B1B68CB1A134401330993089A099B17
:100694009A42E6D89DF81F30002B48D000230493DB
:1006A4009DF80730002B17D09DF81030012262F31B
:1006B40001038DF810309DF8103043F004038DF8D9
:1006C4001030039B03F00F03DAB2BDF8103062F36D
:1006D4008913ADF8103016E09DF81030022262F351
:1006E40001038DF810309DF8103043F004038DF8A9
:1006F4001030039BC3F309039AB2BDF8123062F3BE
:100704008F13ADF812300E4B1A680D4B9B681340D3
:1007140002339B000A4A134404330693049A069B4B
:100724001A60074B1A68089B1344054A136000209B
:1007340000F08AFB9DF81F3018460BB05DF804FBEF
:10074400EC0000200805002000B58BB00590049152
:10075400039202931F4B9B68079306AB0122194631
:100764000298FFF75FFF0346002B24D0069B023359
:1007740009930023089311E0089B9B00039A1A44F1
:10078400099B591C099107990B40126811490233BE
:100794009B000B445A60089B01330893089A029B00
:1007A4009A42E9D3069A079B00931346029A049946
:1007B4000598FFF7DDFE074B93F82034002B05D096
:1007C40000BF00F065F80346002BFAD100BF0BB060
:1007D4005DF804FBEC00002000B583B001900091AB
:1007E4000023002200990198FFF7AEFF00BF03B079
:1007F4005DF804FB00B587B0039002910192019B60
:10080400059305AA012302990398FFF79DFF00BFF2
:1008140007B05DF804FB00B587B003900291019224
:100824000093019B0493009B059304AA022302995D
:100834000398FFF789FF00BF07B05DF804FB00B51C
:100844008BB00390029101920093019B0593009B4E
:1008540006930C9B07930D9B08930E9B099305AA83
:10086400052302990398FFF76FFF00BF0BB05DF8F3
:1008740004FB0000054B5A68044B1B689A420CBFEA
:1008840001230023DBB21846704700BFEC000020B0
:1008940000B599B0FFF7EEFF0346002B01D000230B
:1008A400ADE1984B0022C3F81824BFF34F8F954B4A
:1008B4005B680493934B9B681093049A109B1340BA
:1008C40002339B008F4A134404331293002317937B
:1008D4000023169300230F9304AB19461298FFF7D5
:1008E40047FD0346002B14D0864B1A68049B9A429A
:1008F40005D8844B1B68834A536000237FE1049A24
:10090400109B134002339B007E4A1344043312931A
:10091400E2E700BF0023159311E0049B5A1C0492E4
:10092400109A1340159A920001A90A44754902339A
:100934009B000B445B681360159B01331593159B57
:10094400012BEAD99DF8043003F00303DBB2022B38
:1009540040F09C80BDF80630C3F389139BB20D931D
:10096400BDF80630C3F389139BB2502B28BF502324
:100974009BB20C930C9BC3F309039AB2BDF80630E7
:1009840062F38F13ADF806300C9B08330B939DF87C
:100994000430C3F3C203DBB20F930B995A4800F03F
:1009A400D1FB1790179B002B00F0D080179800F014
:1009B40059FC01A9169B0822179800F0FDFC169B10
:1009C40008331693049BDA43109B134001339B00B6
:1009D4000A930C9A0A9B9A4242D90A9B002B08D08C
:1009E400049A109B134002339B00464A1344043379
:1009F40000E0464B08930A9B002B02D00A9BDBB213
:100A040001E00C9BDBB28DF81F300A9B002B01D058
:100A14003E4B00E0002306930A9B002B06D00C9B60
:100A2400DAB20A9BDBB2D31ADBB200E000238DF802
:100A340017309DF81F20169B0899179800F0BCFCEE
:100A44009DF81F30169A13441693069B002B16D05C
:100A54009DF81720169B0699179800F0ADFC0EE040
:100A6400049A109B134002339B00264A1344043318
:100A74000993169B0C9A0999179800F09DFC0D9BFD
:100A840003339A08049B134404935FE09DF80430F5
:100A940003F00303DBB2012B58D1BDF80430C3F3D8
:100AA4008313DBB2062B28BF0623DAB2BDF8043069
:100AB40062F38913ADF80430BDF80430C3F3831333
:100AC400DBB202330E939DF80430C3F3C203DBB2EE
:100AD4000F930E9B9B0019460B4800F033FB1790B5
:100AE400179B002B32D0179800F0BCFB01A9169B72
:100AF4000822179800F060FC169B08331693002315
:100B040015931AE0EC000020EC2F0000F800002000
:100B1400049B5A1C0492109A134002339B003A4AD5
:100B24001344191D169B0422179800F045FC169BCC
:100B340004331693159B01331593BDF80430C3F3A6
:100B44008313DBB21A46159B9342E1D3179B002B08
:100B540038D02D4BD3F8103414932B4BD3F81834CE
:100B6400002B1AD0179800F08CFB42E000238DF87C
:100B74004F301498FFF7EAFB0346002B02D0012301
:100B84008DF84F309DF84F30002B03D017991498EF
:100B9400FFF7AEFB149B5B681493149B002BE5D109
:100BA400179800F06EFB002000F03AF9164BD3F8CA
:100BB4001834002B02D1049B134A5360002000F028
:100BC40043F916E0104BD3F81034119305E0119853
:100BD400FFF7A8FB119B5B681193119B002BF6D1C7
:100BE4000A4B1B881B0443F0020309491846FFF70C
:100BF400F3FDFFF73FFE034683F00103DBB2184623
:100C040019B05DF804FB00BFEC00002010000020C8
:100C1400B830000000B583B00C4BD3F81034019306
:100C24000A4B012283F8202408E00198FFF786FB91
:100C34000198FFF76BFB019B5B680193019B002B01
:100C4400F3D100BF03B05DF804FB00BFEC0000204B
:100C540086B003900291019201238DF817309DF81C
:100C640017301F4A039B13601D4A029B53601C4AA2
:100C7400019B9360039B44F20102934212D044F21D
:100C84000202934221D1019B154AD360144BDB68C5
:100C94001B881A46124B9A61114BDB685B68104A39
:100CA400D36112E0019B0E4A13610D4B1B699B68D3
:100CB4000B4A53610A4B1B691B68094A9361084B31
:100CC4001B695B68064AD36100BF72B600BF9DF81A
:100CD4001730DBB2002BFAD162B600BF06B0704702
:100CE4001005002000B583B002900091019244F2F7
:100CF400010071466A4600F003F803B000BD00BF6E
:100D040030B58BB007900691059272B6FFF782FF5B
:100D140000BFFFF7BDFD0346002BFAD1079B44F249
:100D24000102934214D044F2020293423AD1059B49
:100D34000993294B1B881B0443F001031846099BA4
:100D44005B681A46099B1B882449FFF764FD34E05D
:100D5400059B0893204B1B881B0443F001031D468D
:100D6400089B9C68089B9B68184600F037FB034669
:100D74001846089B5B681946089B1B68069A0292F2
:100D8400019300910346224615492846FFF757FD73
:100D9400114B1B881B0443F0010312491846FFF74B
:100DA4001BFD0AE00C4B1B881B0443F00103069A4D
:100DB4000D491846FFF71EFD00BF0C4B1B6803F0DE
:100DC4000103002B00D000BE059A06990798FFF78F
:100DD4003FFF00BF0BB030BD10000020CC3000003E
:100DE400E83000001031000024310000F0ED00E094
:100DF40072B6034B1B680133014A136000BF70478E
:100E040030050020054B1B68013B044A1360034B6B
:100E14001B68002B00D162B600BF7047300500206C
:100E240000B583B0019000F025F80346012B03D0F0
:100E34000449432000F03BF8FFF7DAFF00BF03B09A
:100E44005DF804FB3C31000000B583B003468DF827
:100E5400073000F00FF80346012B03D0044951205A
:100E640000F025F8FFF7CEFF00BF03B05DF804FBE8
:100E74003C31000084B0EFF305830193019BC3F37D
:100E840008030393039B002B0DD1EFF3148300930A
:100E9400009B0293029B03F00103002B0CBF012370
:100EA4000023DBB200E00123184604B0704700B50C
:100EB40085B003460091ADF80630BDF80630ADF8B4
:100EC4000830009B039302AB1A46002144F202004F
:100ED400FFF716FF00BF05B05DF804FB10B487B040
:100EE40001900091019B009A53E8004F104643E89B
:100EF400000191F0000FF7D1059404900391059B34
:100F0400184607B05DF8044B704710B487B00190E1
:100F14000091019B009A53E8004F44EA020043E821
:100F2400000191F0000FF6D1059404900391049B05
:100F3400184607B05DF8044B704710B487B00190B1
:100F44000091019B009A53E8004F04EA020043E831
:100F5400000191F0000FF6D1059404900391059BD4
:100F6400184607B05DF8044B704710B487B0019081
:100F74000091019B009A53E8004F04EB020043E800
:100F8400000191F0000FF6D1059404900391049BA5
:100F9400184607B05DF8044B704710B487B0019051
:100FA4000091019B009A53E8004FA4EB020043E830
:100FB400000191F0000FF6D1059404900391049B75
:100FC400184607B05DF8044B704700B583B0019034
:100FD40001210198FFF799FF0346184603B05DF815
:100FE40004FB00B583B0019000210198FFF7A5FF31
:100FF4000346184603B05DF804FB000000B583B057
:1010040001900B468DF80330019B002B03D1084956
:10101400E820FFF74CFF019BDA689DF80330019943
:10102400898A01FB03F31344184603B05DF804FBFB
:10103400B031000000B583B001900091019B002BFA
:1010440003D10849F520FFF732FF009B019AD268CB
:101054009B1A019A928AB3FBF2F3DBB2184603B0EF
:101064005DF804FBB031000000B585B00190019B30
:10107400002B04D11C494FF49270FFF718FF002392
:1010840003930020FFF7CCFE019B1B681A68019BA9
:101094005B689A4220D9019B1B681A68013A1A605E
:1010A4001B681B7819460198FFF7A8FF0390019B62
:1010B4009B681A46019B1B681B68D31A8DF80B307A
:1010C400019B1B681B799DF80B209A4204D9019B54
:1010D4001B689DF80B201A710020FFF7B5FE039BD7
:1010E400184605B05DF804FBB031000010B584B0BB
:1010F40001900091019B002B04D1114940F247104B
:10110400FFF7D5FE009B002B04D10D494FF4A470CA
:10111400FFF7CDFE009B03930020FFF781FE019BA8
:101124001B681C68621C1A6003990198FFF782FF10
:10113400034623700020FFF787FE00BF04B010BDF4
:10114400B031000000B58BB001900091019B9B8AE7
:10115400043B0793009A079B1344DA1C079BB2FBDA
:10116400F3F38DF81B300198FFF77EFF0590059B84
:10117400002B01D1002338E0059B00221A71059B46
:1011840001225A71079B9AB2059BDA80059B099349
:101194009DF81B30013B0493099B019A1A600023BC
:1011A40008931DE00198FFF75FFF0390039B002B5A
:1011B4000ED0059B5B790133DAB2059B5A71099B0A
:1011C400039A1A60039B019A1A60039B099304E033
:1011D400059800F00EF8002307E0089B01330893FC
:1011E400089A049B9A42DDD3059B18460BB05DF820
:1011F40004FB00B58BB00190019B0793079B5B79BF
:101204008DF81B30019B08939DF81B30013B05931F
:101214000023099305E0089B1B680893099B01338D
:101224000993099A059B9A42F5D3089B1B6804937A
:10123400019B0893002309930BE0089B1B6803930D
:1012440008990498FFF752FF039B0893099B013305
:1012540009939DF81B30099A9A42EED300BF0BB054
:101264005DF804FB00B585B00190019B0393039BDB
:10127400043301211846FFF778FE00BF05B05DF87E
:1012840004FB00B587B00190019B0593059B0433D3
:1012940001211846FFF781FE0346039303AB049331
:1012A400049B1B78002B02D10198FFF7A2FF00BF1B
:1012B40007B05DF804FB000000B58DB00390029107
:1012C40001920093039B0693069BDB880593039B83
:1012D4000B93009B1A1D059BB2FBF3F30A93009B2F
:1012E4000433059AB3FBF2F2059901FB02F29B1A4F
:1012F4000993009A019B1A44059B1344DA1C059B2D
:10130400B2FBF3F38DF81330069B5B799DF8132041
:101314009A420AD92749BA20FFF7C9FD05E00B9B79
:101324001B680B930A9B013B0A930A9B002BF6D183
:1013340000230893059A099BD31A0793079A019BE4
:10134400934228BF134607932DE09DF83830002BB5
:101354000BD0029A089BD0180B9A099B13440433B0
:10136400079A194601F0FEFD0AE00B9A099B134403
:10137400181D029A089B1344079A194601F0F2FDBE
:10138400002309930B9B1B680B93019A079BD31AA9
:101394000193089A079B13440893059A019B93426F
:1013A40028BF13460793019B002BCED100BF0DB07D
:1013B4005DF804FB2032000000B587B0059004916D
:1013C4000392029300230093029B039A04990598C5
:1013D400FFF772FF00BF07B05DF804FB00B585B0EE
:1013E4000190019800F00EF80390039B002B01D0AC
:1013F400039B00E0024B184605B05DF804FB00BFF8
:101404009C32000086B00190164B0593164B049352
:101414001FE0049A059BD31ADB10DA0F13445B1008
:10142400DB00059A13440393039B1B680293029AFF
:10143400019B9A4202D9039B04930AE0029A019BFE
:101444009A4203D2039B0833059302E0039B5B6833
:1014540004E0059A049B9A42DBD30023184606B0A5
:10146400704700BF703600008837000000B585B0B3
:101474000190019B002B0AD0074B43F00103039317
:10148400019B9B010293039B0298984700E000BFD5
:1014940005B05DF804FB00BFC037000000B583B0A1
:1014A4000190019B1B681F2B04D9054940F2C7100A
:1014B400FFF7FDFC4FF0A043184603B05DF804FBB2
:1014C4008837000000B585B0019001AB1846FFF7DE
:1014D400E5FF0390019B012202FA03F319460398E6
:1014E40000F035F800BF05B05DF804FB00B585B029
:1014F400019001AB1846FFF7D1FF0390019B012235
:1015040002FA03F31946039800F02BF800BF05B064
:101514005DF804FB00B585B0019001AB1846FFF7F8
:10152400BDFF0390039800F00AF80246019B22FADB
:1015340003F303F00103184605B05DF804FB82B021
:101544000190019BD3F81035184602B0704782B061
:1015540001900091019B009AC3F8082500BF02B0D6
:10156400704782B001900091019B009AC3F80C254A
:1015740000BF02B0704700B585B001904FF0A042A3
:10158400019B1B6803F5E07340F20C6142F82310E1
:101594004FF0A042019B5B6803F5E07340F20C61DD
:1015A40042F82310019B1B681846FFF78BFF019B31
:1015B4005B681846FFF786FF4FF0A042019B1B684B
:1015C40003F5E07340F20D6142F823104FF0A0429E
:1015D400019B5B6803F5E07340F20D6142F8231050
:1015E4000420FFF743FF002303931EE0019B5B6885
:1015F4001846FFF78FFF0346002B03D0039B002BF5
:1016040017D124E0019B1B681846FFF76FFF0420E5
:10161400FFF72CFF019B1B681846FFF753FF0420BC
:10162400FFF724FF039B01330393039B082BDDDDAA
:1016340000E000BF019B5B681846FFF757FF0420DA
:10164400FFF714FF019B5B681846FFF73BFF05B0EB
:101654005DF804FB00B589B001900091009B0793ED
:10166400019B1B788DF80C30019B1B798DF8103091
:10167400019B5B798DF81130019B9B68DBB28DF87F
:101684001230019BDB68DBB28DF81330019B1B69C0
:101694000593019B5B690693074A079B52F8233025
:1016A4000649079A51F8221003AA1046984700BF2A
:1016B40009B05DF804FB00BF340500203C050020A0
:1016C40000B587B00390029101920093039B1B78AD
:1016D40005931249059B019A41F823201049059B63
:1016E400009A41F82320029B5B7B002B02D00298D6
:1016F400FFF741FF00230493039B181D019B002B5C
:1017040001D0084A00E00022059B029900F04CFA3F
:101714000490049B184607B05DF804FB34050020D0
:101724003C0500205916000008B5064B1B68002B29
:1017340003D105495120FFF7BAFB024B1B689847B8
:1017440000BF08BD44050020CC37000082B00190E2
:10175400019B044A934201D1034B00E00023184645
:1017640002B07047002000404405002000B587B057
:1017740001900091019B002B03D118497720FFF7BA
:1017840096FB0198FFF7E2FF0590059B002B1ED006
:1017940000238DF813300020FFF742FB059B1B79D3
:1017A400002B03D001238DF8133005E0059B009A2C
:1017B4001A60059B01221A710020FFF745FB9DF872
:1017C4001330002B03D011230393039B02E0002367
:1017D4000393039B184607B05DF804FBCC37000065
:1017E40082B003468DF807309DF8073003F01F02DE
:1017F40005499DF907305B09012000FA02F241F81E
:10180400232000BF02B0704700E100E082B003462D
:101814008DF807309DF8073003F01F0206499DF943
:1018240007305B09012000FA02F2603341F82320FB
:1018340000BF02B0704700BF00E100E082B0034681
:1018440000918DF807309DF90730002B0CDA009BCE
:10185400DAB20C499DF8073003F00F03043B520140
:10186400D2B20B441A7609E0009BDAB206499DF91C
:1018740007305201D2B20B4483F8002300BF02B0F8
:10188400704700BF00ED00E000E100E082B001908D
:10189400019B03F06043B3F1005F0CBF01230023FD
:1018A400DBB2184602B0704784B00190019B1B0B59
:1018B4008DF80F309DF90F30184604B070470000C2
:1018C40000B583B003460A468DF8073013468DF8F9
:1018D40006309DF80630072B03D908496B20FFF723
:1018E400E6FA9DF806209DF9073011461846FFF7E1
:1018F400A5FF00BF03B05DF804FB00BF383800004B
:1019040000B583B003468DF807309DF907301846BB
:10191400FFF77CFF9DF907301846FFF761FF00BF12
:1019240003B05DF804FB82B001900B468DF80330E0
:101934009DF80330019A134401221A6000BF02B0DB
:10194400704784B001900B46ADF80230BDF8023008
:10195400019A134400221A60BDF80230019A13441C
:101964001B680393039B00BF04B0704782B00190CF
:101974000B46ADF80230BDF80230019A13441B68DF
:10198400002B14BF01230023DBB2184602B07047BA
:1019940082B001900091019B009AC3F8042300BF18
:1019A40002B0704782B001900091019B009AC3F885
:1019B400082300BF02B0704782B00190019B062249
:1019C400C3F8002500BF02B0704784B003900291B1
:1019D4000192039B029AC3F80825039B019AC3F85A
:1019E4000C2500BF04B0704782B001900091019BA8
:1019F400009AC3F8242500BF02B0704784B0019058
:101A0400019BD3F8C4340393019B039AC3F8C42401
:101A1400039B184604B0704782B001900B468DF8C2
:101A240003309DF80320019BC3F8882500BF02B052
:101A3400704784B0039002910192029A039BC3F809
:101A44004425039B019AC3F8482500BF04B070479E
:101A540084B0039002910192029A039BC3F8342547
:101A6400039B019AC3F8382500BF04B0704782B0C5
:101A740001900091019B009AC3F8002200BF02B0BC
:101A8400704782B00190019BD3F84C35184602B0E0
:101A9400704782B00190019BD3F83C35184602B0E0
:101AA400704782B00190019B0122C3F8502500BF0A
:101AB40002B0704782B00190019B0022C3F8502508
:101AC40000BF02B0704782B00190019B0122C3F8AD
:101AD400402500BF02B0704782B00190019B0022F4
:101AE400C3F8402500BF02B07047000000B583B0C2
:101AF4000190019B1B681F2B04D9054940F2C710B4
:101B0400FFF7D5F94FF0A043184603B05DF804FB86
:101B14006838000000B585B00190084611461A46A1
:101B240003468DF803300B468DF8023013468DF8CA
:101B3400013001AB1846FFF7D9FF03909DF803204D
:101B44009DF802305B001A439DF801309B001A4354
:101B54009DF818301B0242EA03019DF81C301B0457
:101B6400019A1943039B02F5E07243F8221000BF67
:101B740005B05DF804FB84B0019003230393019B3B
:101B840003F00203002B02D048F201230393019BCC
:101B940003F00403002B02D048F202230393039BB7
:101BA400184604B07047000000B58BB0059004914E
:101BB40003920293049B002B03D14A499820FFF718
:101BC40076F9049B1A68049B5B689A4203D14549E1
:101BD4009920FFF76CF9059B1B791A46342303FB04
:101BE40002F3414A13440893089B93F82D30002BC9
:101BF40003D008230793079B70E0059B1A68059B95
:101C04001B791946394B53F8213019461046FFF712
:101C1400ADFD0346002B03D011230793079B5DE022
:101C2400089B039A1A60089B029A5A60089B002238
:101C34009A60089B002283F83020089B002283F8D6
:101C44002F20049B5A7B089B83F83220049B18683E
:101C54000023019306230093032300220021FFF7AE
:101C640059FF049B58680023019306230093032320
:101C740000220021FFF74EFF059B1B680993049B7C
:101C84001968049B5B681A460998FFF79EFE049B3B
:101C94009B6819460998FFF7A7FE089B1B68002B51
:101CA40015D0059B1B681846FFF7FEFD03461A4630
:101CB400049B1B7B19461046FFF702FE059B1B681D
:101CC4001846FFF7F1FD03461846FFF719FE089B77
:101CD400012283F82D2000230793079B18460BB09D
:101CE4005DF804FBA03800004C0500200C3900000E
:101CF40000B585B00190019B1B791A46342303FB80
:101D040002F30C4A13440393039B93F82D30012BE5
:101D140003D00949FA20FFF7CAF8019B1B6818464B
:101D2400FFF74AFE039B022283F82D2000BF05B073
:101D34005DF804FB4C050020A038000000B583B01A
:101D440001900091009B03F00103002B03D0019844
:101D5400FFF7A7FE02E00198FFF7ACFE009B03F03B
:101D64000203002B03D00198FFF7ADFE02E00198B7
:101D7400FFF7B2FE00BF03B05DF804FB30B589B0D5
:101D840003900291019200930023069308238DF897
:101D94001F304FF48273ADF81C30019BDB6818468A
:101DA400FFF774FD034683F00103DBB2002B03D07D
:101DB40010230693069B9EE1B1490298FFF7F2FDBA
:101DC400039B93F82F30DBB2002B09D0039B9B6855
:101DD40019460298FFF7DCFD11230693069B8AE15E
:101DE400009B03F00403002B06D1009B03F01003B7
:101DF400002B01D1012300E0002303F00103DAB238
:101E0400039B83F82F20039B019A03F10C041546CE
:101E14000FCD0FC42B682360009B1B0903F0010343
:101E2400002B14BF01230023DAB2039B83F8302074
:101E3400019B5B7819460298FFF7EEFD4FF482711F
:101E44000298FFF77EFD4FF492710298FFF779FD37
:101E540000990298FFF772FF019B1B78032B00F295
:101E6400E88001A252F823F0AB1F00000520000017
:101E7400591F00007D1E0000009B03F01003002B7F
:101E840004D080494FF4AD70FFF711F8009B03F0C4
:101E94000803002B04D07B4940F25B10FFF707F8DE
:101EA400009B03F00403002B04D076494FF4AE707A
:101EB400FEF7FDFF019B1B691846FFF7E7FC03468D
:101EC40083F00103DBB2002B03D010230693069B9F
:101ED40011E14FF480710298FFF7C9FD019BD968A5
:101EE400019B5B681A460298FFF7A3FD4FF4A871A3
:101EF4000298FFF726FD4FF4B0710298FFF721FD19
:101F04004FF4A4710298FFF71CFD20210298FFF7FB
:101F14000AFD08210298FFF706FD00BF4FF4A871DF
:101F24000298FFF723FD034683F00103DBB2002B85
:101F3400F4D14FF4A8710298FFF703FD019B1969CE
:101F4400019B9B681A460298FFF773FD039B4E4A58
:101F54009A6071E0019BD968019B5B681A460298FC
:101F6400FFF767FD019B1B691846FFF78FFC0346CB
:101F740083F00103DBB2002B03D010230693069BEE
:101F8400B9E0019B1969019B9B681A460298FFF707
:101F94005FFD4FF484510298FFF769FD039B40F203
:101FA40002229A6048E0019BD968019B5B681A464B
:101FB4000298FFF73EFD009B03F02003002B11D095
:101FC4004FF480710298FFF752FD039B2E4A9A60EA
:101FD4004FF4A4710298FFF7B4FC4FF4A473ADF866
:101FE4001C3008E04FF400710298FFF740FD039B9A
:101FF40040F202229A6020210298FFF794FC1BE031
:10200400019BD968019B5B681A460298FFF720FD83
:102014004FF480510298FFF72AFD039B40F20222FD
:102024009A6000238DF81F3020210298FFF77BFC73
:1020340002E00723069300BF009B03F00803002B74
:1020440009D1019B1B78032B05D09DF81F3019463D
:102054000298FFF768FC039B1B68002B2FD0009BA2
:1020640003F00403002B03D0039B4FF400729A6027
:10207400039B9B6819460298FFF78AFC3AE000BF6D
:1020840002029C01A0380000000204004FF4927187
:102094000298FFF76BFC0346002B10D04FF49271AB
:1020A4000298FFF74EFC20210298FFF73CFC142114
:1020B4000298FFF738FC4FF48273ADF81C30BDF87A
:1020C4001C3019460298FFF751FC034683F00103C4
:1020D400DBB2002BDAD10298FFF790FC0590039B4A
:1020E400002283F82F20059B002B03D00598FFF7CF
:1020F40042FD0690069B184609B030BD00B587B076
:10210400039002910192039B1B79002B07D1029B40
:102114005B68FF2B03D8029B9B68FF2B04D91B49E8
:102124004FF4EC70FEF7C3FE00230493039B1B796A
:102134001A46342303FB02F3154A13440593059B03
:102144001B68002B08D1029B1B78022B04D10F497A
:102154004FF4EF70FEF7ABFE059B1B68002B08D114
:10216400029B1B78032B04D1084940F2DF10FEF7D1
:102174009EFE039B1968019B029A0598FFF7FEFDDA
:102184000490049B184607B05DF804FBA0380000D7
:102194004C05002000B58BB00390019200930B46D0
:1021A4008DF80B3005AB00221A605A609A60DA6031
:1021B4001A619DF80B308DF81530009B0693019B36
:1021C40008939DF83030002B01D0202200E000223B
:1021D40005AB19460398FFF791FF034618460BB069
:1021E4005DF804FB00B58BB00390019200930B469D
:1021F4008DF80B3005AB00221A605A609A60DA60E1
:102204001A6101238DF814309DF80B308DF81530C8
:10221400009B0693019B089305AB00221946039883
:10222400FFF76CFF034618460BB05DF804FB000093
:1022340030B58BB001900091009B1B68002B04D13A
:102244007E4940F22D20FEF732FE4FF49271019840
:10225400FFF78CFB0346002B27D04FF492710198B3
:10226400FFF76FFB4FF482710198FFF77FFB034682
:1022740083F00103DBB2002B17D0009B9B68194647
:102284000198FFF78FFB009B02229A60009B9B68DA
:1022940019460198FFF77CFB20210198FFF743FBC7
:1022A40014210198FFF73FFBC5E04FF482710198B8
:1022B400FFF75CFB0346002B50D04FF4827101986A
:1022C400FFF73FFB009B04AC03F10C050FCD0FC4DB
:1022D4002B682360009B93F82E30002B1BD0009BAF
:1022E4001B7B012B04D10198FFF7D3FB034603E0CA
:1022F4000198FFF7C6FB03460593009B1B7B022B4B
:1023040004D10198FFF7C5FB034603E00198FFF7EA
:10231400B8FB034606934FF4B0710198FFF711FB25
:102324004FF4AE710198FFF70CFB009B93F830302B
:1023340083F00103DBB2002B04D1009B93F82E3011
:10234400002B4CD000210198FFF791FB009B002249
:102354009A603B490198FFF725FB40E04FF4A471D4
:102364000198FFF7EEFA009B1B7B002B1BD1009B0F
:1023740004AC03F10C050FCD0FC42B682360009B44
:1023840093F8303083F00103DBB2002B27D0002117
:102394000198FFF76CFB009B00229A602849019882
:1023A400FFF700FB1BE04FF400710198FFF75FFBA0
:1023B400009B40F202229A6021490198FFF7F2FA49
:1023C400009B9B6819460198FFF7E2FA08210198DF
:1023D400FFF7A9FA20210198FFF7A5FA2BE001984D
:1023E400FFF70CFB0990099B03F00203002B03D0B9
:1023F40001238DF80C300BE0099B03F00403002B40
:1024040003D002238DF80C3002E000238DF80C3049
:10241400009B93F8303083F00103DBB2002B03D030
:10242400009B002283F82F20009B1B68009A5168B0
:1024340003AA104698470BB030BD00BFA038000077
:1024440002029C0108B503490348FFF7F1FE00BFEF
:1024540008BD00BF4C0500200030004000B585B029
:102464000190019B002B0AD0074B43F00103039317
:10247400019B9B010293039B0298984700E000BFD5
:1024840005B05DF804FB00BF703B000000B583B0ED
:102494000190019B1B681F2B04D9054940F2C7100A
:1024A400FEF705FD4FF0A043184603B05DF804FBAA
:1024B400B83A000000B585B00190084611461A46A6
:1024C40003468DF803300B468DF8023013468DF821
:1024D400013001AB1846FFF7D9FF03909DF80320A4
:1024E4009DF802305B001A439DF801309B001A43AB
:1024F4009DF818301B0242EA03019DF81C301B04AE
:10250400019A1943039B02F5E07243F8221000BFBD
:1025140005B05DF804FB00B585B00390002301937A
:10252400002300930023012201210398FFF7C2FF37
:1025340000BF05B05DF804FB00B585B003900B4601
:102544008DF80B309DF80B2000230193002300939A
:102554001346002200210398FFF7ACFF00BF05B02B
:102564005DF804FB00B585B0019001AB1846FFF798
:102574008DFF0390019B012202FA03F3194603988D
:1025840000F02AF800BF05B05DF804FB00B585B083
:10259400019001AB1846FFF779FF0390019B0122DC
:1025A40002FA03F31946039800F020F800BF05B0BF
:1025B4005DF804FB00B583B001900091009B002BF3
:1025C40003D10198FFF7E2FF02E00198FFF7CAFF89
:1025D40000BF03B05DF804FB82B001900091019B41
:1025E400009AC3F8082500BF02B0704782B001907A
:1025F4000091019B009AC3F80C2500BF02B07047FC
:1026040000B583B00190019B04331846FFF770FBBB
:1026140000BF03B05DF804FB00B589B005900392D8
:102624001A460B468DF8133013468DF812300023EA
:102634000793059B181D9DF812209DF813109DF813
:10264400283000931346039AFFF7A4FD0790079BD5
:10265400184609B05DF804FB00B587B003900192F9
:102664001A460B468DF80B3013468DF80A300023BA
:102674000593039B181D9DF80A309DF80B10019AD1
:10268400FFF7B0FD0590059B184607B05DF804FB05
:1026940000B583B00190019B002B0AD04FF47A70EF
:1026A400FFF7DCFE019B013B0193019B002BF5D15D
:1026B40000E000BF03B05DF804FB82B003468DF870
:1026C400073000BF02B0704700B583B0019000919D
:1026D400019B1B78002B00D00CE0019B1B79012B84
:1026E40004D1064BDBB21846FFF7E7FF044B012287
:1026F4001A7000BF00BF03B05DF804FB840500201E
:102704008005002000B587B06B4600221A605A602D
:102714009A60DA60052300934FF0CC73029302238E
:102724008DF80C30694600230A4A0B48FEF7C8FFAF
:102734000590059B0493049B002B04D0074A972122
:102744000498FEF7CFFA0448FFF75AFF00BF07B01A
:102754005DF804FBCD260000583B0000E83A000079
:1027640008B500210C20FFF725FF00BF08BD08B500
:1027740001210C20FFF71EFF00BF08BD00B583B088
:1027840003460A46ADF806301346ADF80430FFF7A9
:10279400EEFFBDF806301846FFF77AFFFFF7E0FFBB
:1027A400BDF804301846FFF773FF00BF03B05DF8AF
:1027B40004FB08B50C20FFF7AEFE0820FFF7ABFEC4
:1027C40000210120FFF7B8FE00210620FFF7B4FE28
:1027D4000E20FFF7A0FE0F20FFF79DFE1020FFF74D
:1027E4009AFE1220FFF797FE1420FFF794FE00BF15
:1027F40008BD000000B585B0FFF7DBFF012108200C
:10280400FFF7D8FE4FF47A714FF47A70FFF7B6FFF2
:10281400FFF778FF4F4B0F221A7000230093012318
:102824004C4A48214C48FFF7F7FE4FF49670FFF7E7
:1028340015FE484B00221A70002300930123454AD9
:1028440069214548FFF7E8FE4FF49670FFF706FE4E
:102854000023ADF80E3048E00223404A48213E48A8
:10286400FFF7FAFE4FF4FA70FFF7F8FD3B4B1B78C5
:102874001B029BB203F470639AB2394B1A80374B34
:102884005B789AB2364B1B8813449AB2344B1A8045
:10289400334B1B88B3F58B7F06D14FF4FA714FF499
:1028A400FA70FFF76BFF03E04FF47A70FFF7F0FE66
:1028B40001232A4A69212848FFF7CEFE4FF4967077
:1028C400FFF7CCFD254B1B78D12B05D140F26C7161
:1028D4006420FFF753FF03E04FF4FA60FFF7D8FEDC
:1028E400BDF80E300133ADF80E30BDF80E30022BBA
:1028F400B2D91423ADF80E301EE0BDF80E301A46DE
:10290400920013441A4691001A460B4613449AB295
:10291400BDF80E30194689000B4419468800194643
:1029240003460B449BB219461046FFF727FFBDF838
:102934000E30013BADF80E30BDF80E30002BDCD16B
:1029440000210820FFF736FE4FF47A70FFF7A0FE4F
:10295400FEE700BF88050020583B00008C050020DE
:102964008E050020BFF34F8F054BDB6803F4E06254
:102974000349044B1343CB60BFF34F8F00BFFDE704
:1029840000ED00E00400FA05024B034A1A6000BFA0
:10299400704700BF180000200090D00308B500F075
:1029A40067F90346002B06D09F4B1B681B0A9F4AFE
:1029B40003F01F03136000F087F90346002B02D0D5
:1029C4009B4B9C4A1A6000F09BF90346002B06D0EF
:1029D400994B1B685B0B994A03F00703136000F0E3
:1029E400BBF90346002B05D0954BDB68944A23F0D2
:1029F4008073D36000F0CCF90346002B0ED04FF067
:102A040080430022C3F80C214FF080430022C3F816
:102A140010214FF080430022C3F8382500F0E4F978
:102A24000346002B02D0874B03221A6000F0F8F90A
:102A34000346002B0BD0844B05221A60834B0122E2
:102A44001A60834B00221A60824B3F221A6000F006
:102A540003FA0346002B76D04FF080537E4AD3F816
:102A64000434C2F820354FF080537B4AD3F808343D
:102A7400C2F824354FF08053774AD3F80C34C2F8A7
:102A840028354FF08053744AD3F81034C2F82C35EB
:102A94004FF08053704AD3F81434C2F830354FF0F5
:102AA40080536D4AD3F81834C2F834354FF080534C
:102AB400694AD3F81C34C2F840354FF08053664A53
:102AC400D3F82034C2F844354FF08053624AD3F827
:102AD4002434C2F848354FF080535F4AD3F8283481
:102AE400C2F84C354FF080535B4AD3F82C34C2F80B
:102AF40050354FF08053584AD3F83034C2F8543527
:102B04004FF08053544AD3F83434C2F860354FF050
:102B14008053514AD3F83834C2F864354FF08053A7
:102B24004D4AD3F83C34C2F868354FF080534A4AD2
:102B3400D3F84034C2F86C354FF08053464AD3F88A
:102B44004434C2F8703500F0A3F90346002B05D0D5
:102B5400424B1B68424A03F04F03136000F0C4F970
:102B64000346002B0DD04FF08043D3F8003403F01C
:102B74000103002B05D04FF080436FF00102C3F82E
:102B8400002400F0DDF90346002B05D0354B1B680B
:102B9400344A43F480631360334BD3F88830324AA9
:102BA40043F47003C2F88830BFF34F8FBFF36F8FC5
:102BB4004FF01023D3F80032002B05DB4FF0102325
:102BC400D3F80432002B2BDA284B0122C3F8042556
:102BD40000BF264BD3F80034002BFAD04FF010235B
:102BE4001522C3F8002200BF204BD3F80034002B79
:102BF400FAD04FF010231522C3F8042200BF1B4B58
:102C0400D3F80034002BFAD0184B0022C3F8042563
:102C140000BF164BD3F80034002BFAD0FFF7A2FE06
:102C2400FFF7B2FE00BF08BD240300104035014089
:102C340074C007400DF0ADBA440200103C050040DA
:102C4400F0ED00E0A005004010560040885600401A
:102C5400185600401456004000C0004058020010AE
:102C6400E40E00403C17004000ED00E000E00140AD
:102C7400124B1B68DBB2062B1DD1114B1B6803F0F2
:102C84000F03002B17D10F4B1B6803F0F003302BFD
:102C940001D1012310E00B4B1B6803F0F003402B20
:102CA40001D1012308E0074B1B6803F0F003502B0C
:102CB40001D1012300E0002318467047E00F00F023
:102CC400E40F00F0E80F00F00A4B1B68DBB2062BA0
:102CD4000DD1094B1B6803F00F03002B07D1074BE1
:102CE4001B6803F0F003302B01D1012300E0002323
:102CF40018467047E00F00F0E40F00F0E80F00F012
:102D0400124B1B68DBB2062B1DD1114B1B6803F061
:102D14000F03002B17D10F4B1B6803F0F003302B6C
:102D240001D1012310E00B4B1B6803F0F003402B8F
:102D340001D1012308E0074B1B6803F0F003502B7B
:102D440001D1012300E0002318467047E00F00F092
:102D5400E40F00F0E80F00F00A4B1B68DBB2062B0F
:102D64000DD1094B1B6803F00F03002B07D1074B50
:102D74001B6803F0F003302B01D1012300E0002392
:102D840018467047E00F00F0E40F00F0E80F00F081
:102D9400124B1B68DBB2062B1DD1114B1B6803F0D1
:102DA4000F03002B17D10F4B1B6803F0F003302BDC
:102DB40001D1012310E00B4B1B6803F0F003402BFF
:102DC40001D1012308E0074B1B6803F0F003502BEB
:102DD40001D1012300E0002318467047E00F00F002
:102DE400E40F00F0E80F00F00A4B1B68DBB2062B7F
:102DF4000DD1094B1B6803F00F03002B07D1074BC0
:102E04001B6803F0F003302B01D1012300E0002301
:102E140018467047E00F00F0E40F00F0E80F00F0F0
:102E24000A4B1B68DBB2062B0DD1094B1B6803F060
:102E34000F03002B07D1074B1B6803F0F003302B63
:102E440001D1012300E0002318467047E00F00F091
:102E5400E40F00F0E80F00F00A4B1B68DBB2062B0E
:102E64000DD1094B1B6803F00F03002B07D1074B4F
:102E74001B6803F0F003502B01D1012300E0002371
:102E840018467047E00F00F0E40F00F0E80F00F080
:102E9400124B1B68DBB2062B1DD1114B1B6803F0D0
:102EA4000F03002B17D10F4B1B6803F0F003302BDB
:102EB40001D1012310E00B4B1B6803F0F003402BFE
:102EC40001D1012308E0074B1B6803F0F003502BEA
:102ED40001D1012300E0002318467047E00F00F001
:102EE400E40F00F0E80F00F0124B1B68DBB2062B76
:102EF4001DD1114B1B6803F00F03002B17D10F4B8F
:102F04001B6803F0F003302B01D1012310E00B4BBD
:102F14001B6803F0F003402B01D1012308E0074BA9
:102F24001B6803F0F003502B01D1012300E00023C0
:102F340018467047E00F00F0E40F00F0E80F00F0CF
:102F4400064B1B68062B05D1054B1B68062B01D1CC
:102F5400012300E000231846704700BF3001001031
:102F640034010010844640EA010313F0030F18D122
:102F74008446202A0BD32DE9F007B1E8F807A0E82E
:102F8400F807A2F12002202AF7D2BDE8F007042AAC
:102F940007D351F8043B40F8043BA2F10402042A8D
:102FA400F7D2002A05D011F8013B00F8013B013AA1
:062FB400F9D160467047F0
:102FBC00C837000000000000983800000000000036
:102FCC007039000000000000443A000000000000CE
:102FDC0030300000000003031C3000000000000330
:102FEC00E40000201C00002024000020240000200D
:082FFC00140000201800000081
:1030040000000000000000000000000000000000BC
:083014000000000000000000B4
:10301C0062616C6C6F632E6C6F675F6D656D706F4A
:10302C006F6C000061707000433A5C4E6F726469A3
:10303C00635F53656D695F53444B735C6E524635E9
:10304C005F53444B5F31352E302E305F6135333654
:10305C003431615C6E5246355F53444B5F31352ED3
:10306C00302E305F613533363431615C636F6D7097
:10307C006F6E656E74735C6C696272617269657394
:10308C005C6578706572696D656E74616C5F6C6F90
:10309C00675C7372635C6E72665F6C6F675F66729F
:1030AC006F6E74656E642E63000000004261636B8A
:1030BC00656E647320666C7573686564000000004F
:1030CC00415353455254494F4E204641494C454477
:1030DC002061742025733A25750000004552524F2B
:1030EC0052202575205B25735D2061742025733A71
:1030FC0025750D0A50432061743A203078253038FC
:10310C0078000000456E64206F66206572726F72E5
:10311C00207265706F727400554E4B4E4F574E2097
:10312C004641554C54206174203078253038580075
:10313C00433A5C4E6F726469635F53656D695F53AC
:10314C00444B735C6E5246355F53444B5F31352EA6
:10315C00302E305F613533363431615C6E5246351A
:10316C005F53444B5F31352E302E305F6135333633
:10317C003431615C636F6D706F6E656E74735C6C13
:10318C0069627261726965735C7574696C5C61709B
:10319C00705F7574696C5F706C6174666F726D2EA4
:1031AC0063000000433A5C4E6F726469635F536561
:1031BC006D695F53444B735C6E5246355F53444BA1
:1031CC005F31352E302E305F613533363431615CF2
:1031DC006E5246355F53444B5F31352E302E305F87
:1031EC00613533363431615C636F6D706F6E656E53
:1031FC0074735C6C69627261726965735C62616C38
:10320C006C6F635C6E72665F62616C6C6F632E6375
:10321C0000000000433A5C4E6F726469635F536553
:10322C006D695F53444B735C6E5246355F53444B30
:10323C005F31352E302E305F613533363431615C81
:10324C006E5246355F53444B5F31352E302E305F16
:10325C00613533363431615C636F6D706F6E656EE2
:10326C0074735C6C69627261726965735C657870A9
:10327C006572696D656E74616C5F6D656D6F626AA8
:10328C005C6E72665F6D656D6F626A2E6300000026
:10329C00556E6B6E6F776E206572726F7220636FF6
:1032AC00646500004E52465F5355434345535300EB
:1032BC004E52465F4552524F525F5356435F484100
:1032CC004E444C45525F4D495353494E4700000004
:1032DC004E52465F4552524F525F534F46544445EF
:1032EC00564943455F4E4F545F454E41424C454411
:1032FC00000000004E52465F4552524F525F494EFD
:10330C005445524E414C00004E52465F4552524F6E
:10331C00525F4E4F5F4D454D000000004E52465FD0
:10332C004552524F525F4E4F545F464F554E4400DC
:10333C004E52465F4552524F525F4E4F545F53555B
:10334C0050504F52544544004E52465F4552524FD6
:10335C00525F494E56414C49445F504152414D00D9
:10336C004E52465F4552524F525F494E56414C4960
:10337C00445F5354415445004E52465F4552524FA0
:10338C00525F494E56414C49445F4C454E47544858
:10339C00000000004E52465F4552524F525F494E5C
:1033AC0056414C49445F464C414753004E52465F90
:1033BC004552524F525F494E56414C49445F44412D
:1033CC00544100004E52465F4552524F525F4441A9
:1033DC0054415F53495A45004E52465F4552524F35
:1033EC00525F54494D454F55540000004E52465FB4
:1033FC004552524F525F4E554C4C00004E52465F58
:10340C004552524F525F464F5242494444454E003A
:10341C004E52465F4552524F525F494E56414C49AF
:10342C00445F4144445200004E52465F4552524F55
:10343C00525F4255535900004E52465F4552524F0F
:10344C00525F4D4F44554C455F4E4F545F494E496A
:10345C005449414C495A4544000000004E52465FC5
:10346C004552524F525F4D555445585F494E495441
:10347C005F4641494C4544004E52465F4552524FBF
:10348C00525F4D555445585F4C4F434B5F46414935
:10349C004C4544004E52465F4552524F525F4D557B
:1034AC005445585F554E4C4F434B5F4641494C4534
:1034BC00440000004E52465F4552524F525F4D55EC
:1034CC005445585F434F4E445F494E49545F464103
:1034DC00494C4544000000004E52465F4552524F45
:1034EC00525F4D4F44554C455F414C5245414459F8
:1034FC005F494E495449414C495A4544000000002B
:10350C004E52465F4552524F525F53544F524147B1
:10351C00455F46554C4C00004E52465F4552524F4B
:10352C00525F4150495F4E4F545F494D504C454D91
:10353C00454E5445440000004E52465F4552524F92
:10354C00525F464541545552455F4E4F545F454E70
:10355C0041424C45440000004E52465F4552524F8A
:10356C00525F494F5F50454E44494E4700000000A2
:10357C004E52465F4552524F525F4452565F54571B
:10358C00495F4552525F4F56455252554E0000000E
:10359C004E52465F4552524F525F4452565F5457FB
:1035AC00495F4552525F414E41434B004E52465F7C
:1035BC004552524F525F4452565F5457495F4552E1
:1035CC00525F444E41434B004E52465F4552524F60
:1035DC00525F424C455F495053505F52585F504BBD
:1035EC00545F5452554E4341544544004E52465F2D
:1035FC004552524F525F424C455F495053505F43C6
:10360C0048414E4E454C5F414C52454144595F45F3
:10361C0058495354530000004E52465F4552524F86
:10362C00525F424C455F495053505F4C494E4B5F83
:10363C00444953434F4E4E4543544544000000000B
:10364C004E52465F4552524F525F424C455F495075
:10365C0053505F504545525F52454A45435445448B
:10366C000000000000000000B0320000010000006B
:10367C00BC32000002000000DC320000030000003D
:10368C0000330000040000001433000005000000AB
:10369C0028330000060000003C3300000700000047
:1036AC0054330000080000006C33000009000000D7
:1036BC00843300000A000000A03300000B0000005F
:1036CC00B83300000C000000D03300000D000000E7
:1036DC00E43300000E000000F83300000F0000007F
:1036EC0008340000100000001C3400001100000021
:1036FC0034340000800000004434000081000000DD
:10370C006834000082000000843400008300000054
:10371C00A034000084000000C034000085000000CC
:10372C00E4340000860000000C350000900000001E
:10373C002435000091000000443500009200000088
:10374C0064350000008200007C350000018200001E
:10375C009C35000002820000B83500000084000097
:10376C00D435000001840000F8350000028400000C
:10377C0024360000038400004C3600002E2E2F2E21
:10378C002E2F2E2E2F2E2E2F2E2E2F2E2E2F6D6FC8
:10379C0064756C65732F6E7266782F68616C2F6E12
:1037AC0072665F6770696F2E680000000000000091
:1037BC00000000000338FDD8704700005052530041
:1037CC00433A5C4E6F726469635F53656D695F5316
:1037DC00444B735C6E5246355F53444B5F31352E10
:1037EC00302E305F613533363431615C6E52463584
:1037FC005F53444B5F31352E302E305F613533369D
:10380C003431615C6D6F64756C65735C6E72667877
:10381C005C647269766572735C7372635C707273EC
:10382C005C6E7266785F7072732E63002E2E2F2E74
:10383C002E2F2E2E2F2E2E2F2E2E2F2E2E2F696E1C
:10384C00746567726174696F6E2F6E7266782F6E15
:10385C007266785F676C75652E6800002E2E2F2EB1
:10386C002E2F2E2E2F2E2E2F2E2E2F2E2E2F6D6FE7
:10387C0064756C65732F6E7266782F68616C2F6E31
:10388C0072665F6770696F2E680000005457494D6F
:10389C0000000000433A5C4E6F726469635F5365CD
:1038AC006D695F53444B735C6E5246355F53444BAA
:1038BC005F31352E302E305F613533363431615CFB
:1038CC006E5246355F53444B5F31352E302E305F90
:1038DC00613533363431615C6D6F64756C65735C66
:1038EC006E7266785C647269766572735C7372630F
:1038FC005C6E7266785F7477696D2E6300000000F1
:10390C00492400002E2E2F2E2E2F2E2E2F2E2E2F12
:10391C002E2E2F2E2E2F696E746567726174696F4F
:10392C006E2F6E7266782F6E7266785F676C756537
:10393C002E6800002E2E2F2E2E2F2E2E2F2E2E2FB9
:10394C002E2E2F2E2E2F6D6F64756C65732F6E724D
:10395C0066782F68616C2F6E72665F6770696F2E68
:10396C00680000005541525400000000433A5C4E80
:10397C006F726469635F53656D695F53444B735C2D
:10398C006E5246355F53444B5F31352E302E305FCF
:10399C00613533363431615C6E5246355F53444B7E
:1039AC005F31352E302E305F613533363431615C0A
:1039BC006D6F64756C65735C6E7266785C6472694D
:1039CC00766572735C7372635C6E7266785F756138
:1039DC0072742E63000000002E2E2F2E2E2F2E2EF2
:1039EC002F2E2E2F2E2E2F2E2E2F696E7465677272
:1039FC006174696F6E2F6E7266782F6E7266785F67
:103A0C00676C75652E6800002E2E2F2E2E2F2E2EF5
:103A1C002F2E2E2F2E2E2F2E2E2F6D6F64756C6544
:103A2C00732F6E7266782F68616C2F6E72665F678B
:103A3C0070696F2E6800000055415254450000001B
:103A4C00433A5C4E6F726469635F53656D695F5393
:103A5C00444B735C6E5246355F53444B5F31352E8D
:103A6C00302E305F613533363431615C6E52463501
:103A7C005F53444B5F31352E302E305F613533361A
:103A8C003431615C6D6F64756C65735C6E726678F5
:103A9C005C647269766572735C7372635C6E726679
:103AAC00785F75617274652E630000002E2E2F2EC8
:103ABC002E2F2E2E2F2E2E2F2E2E2F2E2E2F6D6F95
:103ACC0064756C65732F6E7266782F68616C2F6EDF
:103ADC0072665F6770696F2E68000000433A5C4E37
:103AEC006F726469635F53656D695F53444B735CBC
:103AFC006E5246355F53444B5F31352E302E305F5E
:103B0C00613533363431615C6E5246355F53444B0C
:103B1C005F31352E302E305F613533363431615C98
:103B2C006578616D706C65735C70657269706865E1
:103B3C0072616C5C7477695F73656E736F725F4DE5
:103B4C0061726B5C6D61696E2E6300000000000099
:103B5C0000300040000000000100000000000000E8
:0A3B6C00000000000338FDD8704788
:043B78000090D003E6
:040000030000023DBA
:00000001FF
